:100000000A128A11F52F00308A000408840A820738
:100010000034543469346D3465343A340034443433
:0A0020006134743465343A3400345E
:100AC800F70077080F39303E0800831203138C1D96
:100AD8006E2D6F2D692D8C11080083160313911448
:100AE8000A128A1169250A128A110800831603134B
:100AF80011150A128A1169250A128A11080083162B
:100B08000313911611160A128A1169250A128A11FD
:100B18000800F8007808F70004300310F70CFF3ECF
:100B2800031D912D7708303E080083160313911595
:100B38000A128A1169250A128A11831203131308EB
:100B48000800F70077088312031393000A128A112A
:100B580069250A128A1183160313111BB42DB52DAA
:100B6800AF2D0800831603130716071ABC2DC02DD6
:100B7800831603138715C32D831603138711283093
:100B8800831203139400FF308316031393000800A5
:100B9800FB00DE2D7B0884000A128A1103200A124A
:100BA8008A110A128A1196260A128A110130FA004D
:100BB8007A08FB077B0884000A128A1103200A12AC
:100BC8008A11003A031DE92DEA2DCE2D080083165F
:100BD80003138613061386120612071087100230B5
:100BE8000A128A115A260A128A1128300A128A1100
:100BF8005A260A128A1180300A128A115A260A12B3
:100C08008A110C300A128A115A260A128A110630E1
:100C18000A128A115A260A128A1101300A128A11F6
:100C28005A260A128A112730FB00F530FA00FA0B0F
:100C38001B2EFB0B1B2E0800F9000A128A117125C6
:100C48000A128A11D0308312031393000A128A11F0
:100C580069250A128A1183160313111B342E352EA7
:100C6800212E79080A128A11A5250A128A110A1258
:100C78008A1171250A128A11D1300A128A11A52502
:100C88000A128A110A128A1199250A128A11F80081
:100C98007808FA000A128A1183250A128A110A12A0
:100CA8008A117A250A128A117A080800F900831233
:100CB800031307107908860087142730F800F530E9
:100CC800F700F70B652EF80B652E831203138710B8
:100CD8002730F800F530F700F70B702EF80B702E60
:100CE8007908F70003300310F70DFF3E031D772E38
:100CF8000310770D83120313860087142730F8003A
:100D0800F530F700F70B862EF80B862E83120313A7
:100D180087102730F800F530F700F70B912EF80B05
:100D2800912E0800F900831203130714790886002E
:100D380087142730F800F530F700F70BA12EF80BD1
:100D4800A12E8312031387102730F800F530F7001F
:100D5800F70BAC2EF80BAC2E7908F7000330031014
:100D6800F70DFF3E031DB32E0310770D83120313F7
:100D7800860087142730F800F530F700F70BC22EED
:100D8800F80BC22E8312031387102730F800F530B2
:100D9800F700F70BCD2EF80BCD2E08000A128A119A
:100DA800EB250A128A1101300A128A11CC250A127F
:100DB8008A11C0300A128A115A260A128A1107307B
:100DC8000A128A11CC250A128A110A128A11B6252A
:100DD8000A128A1100300A128A1120260A128A1170
:100DE800FC007C08F60001300A128A1120260A123B
:100DF8008A11FC007C08F50002300A128A112026AC
:100E08000A128A11FC007C08F40003300A128A11C5
:100E180020260A128A11FC007C08F30004300A120A
:100E28008A1120260A128A11FC007C08F20005307B
:100E38000A128A1120260A128A11FC007C08F10085
:100E480006300A128A1120260A128A11FC007C0830
:100E5800F00085300A128A115A260A128A1174087B
:100E68000A128A118D250A128A110A128A119626E7
:100E78000A128A1174080A128A1164250A128A1140
:100E88000A128A1196260A128A113A300A128A110F
:100E980096260A128A1175080A128A118D250A12D5
:100EA8008A110A128A1196260A128A1175080A12DC
:100EB8008A1164250A128A110A128A1196260A12C0
:100EC8008A113A300A128A1196260A128A1176086D
:100ED8000A128A118D250A128A110A128A11962677
:100EE8000A128A1176080A128A1164250A128A11CE
:100EF8000A128A1196260A128A11C5300A128A1114
:100F080096260A128A1172080A128A118D250A1267
:100F18008A110A128A1196260A128A1172080A126E
:100F28008A1164250A128A110A128A1196260A124F
:100F38008A113A300A128A1196260A128A11710801
:100F48000A128A118D250A128A110A128A11962606
:100F58000A128A1171080A128A1164250A128A1162
:100F68000A128A1196260A128A113A300A128A112E
:100F780096260A128A1170080A128A118D250A12F9
:100F88008A110A128A1196260A128A1170080A1200
:100F98008A1164250A128A110A128A1196260A12DF
:100FA8008A112F300A128A1196260A128A1173089A
:100FB8000A128A118D250A128A110A128A11962696
:100FC8000A128A1173080A128A1164250A128A11F0
:100FD8000A128A1196260A128A11EE2E0A128A110C
:100FE8000028F001F101F201F301F401F501F60125
:080FF80083010A128A11D22EB6
:08400000FF3FFF3FFF3FFF3FC0
:02400E00FA3F77
:00000001FF
