:100000000A128A11F52F00308A000408840A820738
:100010000034543469346D3465343A340034443433
:0A0020006134743465343A3400345E
:100AB600F70077080F39303E0800831203138C1DA8
:100AC600652D662D602D8C11080083160313911475
:100AD6000A128A1160250A128A1108008316031366
:100AE60011150A128A1160250A128A110800831646
:100AF6000313911611160A128A1160250A128A1119
:100B06000800F8007808F70004300310F70CFF3EE1
:100B1600031D882D7708303E0800831603139115B0
:100B26000A128A1160250A128A1183120313130806
:100B36000800F70077088312031393000A128A113C
:100B460060250A128A1183160313111BAB2DAC2DD7
:100B5600A62D0800831603130716071AB32DB72D03
:100B6600831603138715BA2D8316031387112830AE
:100B7600831203139400FF308316031393000800B7
:100B8600FB00D52D7B0884000A128A1103200A1265
:100B96008A110A128A1192260A128A110130FA0063
:100BA6007A08FB077B0884000A128A1103200A12BE
:100BB6008A11003A031DE02DE12DC52D080083168C
:100BC60003138613061386120612071087100230C7
:100BD6000A128A1152260A128A1128300A128A111A
:100BE60052260A128A1180300A128A1152260A12D5
:100BF6008A110C300A128A1152260A128A110630FC
:100C06000A128A1152260A128A1101300A128A1110
:100C160052260A128A114130FB00EE30FA00FA0B16
:100C2600122EFB0B122E00000800F9000A128A1180
:100C360068250A128A11D0308312031393000A1210
:100C46008A1160250A128A1183160313111B2C2E92
:100C56002D2E192E79080A128A119C250A128A113C
:100C66000A128A1168250A128A11D1300A128A11CB
:100C76009C250A128A110A128A1190250A128A11D3
:100C8600F8007808FA000A128A117A250A128A11DF
:100C96000A128A1171250A128A117A080800F900C7
:100CA6008312031307107908860087144130F80071
:100CB600EE30F700F70B5D2EF80B5D2E0000831269
:100CC600031387104130F800EE30F700F70B692E5A
:100CD600F80B692E00007908F70003300310F70DB2
:100CE600FF3E031D712E0310770D8312031386003A
:100CF60087144130F800EE30F700F70B802EF80B22
:100D0600802E00008312031387104130F800EE3066
:100D1600F700F70B8C2EF80B8C2E00000800F9005C
:100D26008312031307147908860087144130F800EC
:100D3600EE30F700F70B9D2EF80B9D2E0000831268
:100D4600031387104130F800EE30F700F70BA92E99
:100D5600F80BA92E00007908F70003300310F70DF1
:100D6600FF3E031DB12E0310770D83120313860079
:100D760087144130F800EE30F700F70BC02EF80B61
:100D8600C02E00008312031387104130F800EE30A6
:100D9600F700F70BCC2EF80BCC2E000008000A1239
:100DA6008A11E2250A128A1101300A128A11C32514
:100DB6000A128A11C0300A128A1152260A128A11A0
:100DC60007300A128A11C3250A128A110A128A11D9
:100DD600AD250A128A1100300A128A1118260A1243
:100DE6008A11FC007C08F60001300A128A111826C6
:100DF6000A128A11FC007C08F50002300A128A11D8
:100E060018260A128A11FC007C08F40003300A1224
:100E16008A1118260A128A11FC007C08F300043095
:100E26000A128A1118260A128A11FC007C08F2009E
:100E360005300A128A1118260A128A11FC007C084B
:100E4600F10006300A128A1118260A128A11FC00CD
:100E56007C08F00085300A128A1152260A128A117D
:100E660074080A128A1184250A128A110A128A1132
:100E760092260A128A1174080A128A115B250A122E
:100E86008A110A128A1192260A128A113A300A1215
:100E96008A1192260A128A1175080A128A11842565
:100EA6000A128A110A128A1192260A128A117508E2
:100EB6000A128A115B250A128A110A128A119226CF
:100EC6000A128A113A300A128A1192260A128A11D5
:100ED60076080A128A1184250A128A110A128A11C0
:100EE60092260A128A1176080A128A115B250A12BC
:100EF6008A110A128A1192260A128A11C5300A121A
:100F06008A1152260A128A1172080A128A11842537
:100F16000A128A110A128A1192260A128A11720874
:100F26000A128A115B250A128A110A128A1192265E
:100F36000A128A113A300A128A1192260A128A1164
:100F460071080A128A1184250A128A110A128A1154
:100F560092260A128A1171080A128A115B250A1250
:100F66008A110A128A1192260A128A113A300A1234
:100F76008A1192260A128A1170080A128A11842589
:100F86000A128A110A128A1192260A128A11700806
:100F96000A128A115B250A128A110A128A119226EE
:100FA6000A128A112F300A128A1192260A128A11FF
:100FB60073080A128A1184250A128A110A128A11E2
:100FC60092260A128A1173080A128A115B250A12DE
:100FD6008A110A128A1192260A128A11EE2E0A1212
:100FE6008A110028F001F101F201F301F401F50183
:0A0FF600F60183010A128A11D22EBF
:08400000FF3FFF3FFF3FFF3FC0
:02400E00FA3F77
:00000001FF
