:060000000A128A11DB2F39
:10000A0001300A128A1567230A128A1180300A12ED
:10001A008A1567230A128A116A30F3008830F400BD
:10002A000A128A1588220A128A1194300A128A152B
:10003A0067230A128A117E30F3008830F4000A120C
:10004A008A1588220A128A11D4300A128A1567235D
:10005A000A128A115630F3008830F4000A128A15FF
:10006A0088220A128A111A30F7005E30F6006E30C2
:10007A00F500F50B3E28F60B3E28F70B3E2800004C
:10008A00080001300A128A1567230A128A11803081
:10009A000A128A1567230A128A11B630F3008830C9
:1000AA00F4000A128A1588220A128A1194300A1256
:1000BA008A1567230A128A11A430F3008830F400E3
:1000CA000A128A1588220A128A11D4300A128A154B
:1000DA0067230A128A113C30F0000030F1008312C3
:1000EA0003135708F3005608F2000A128A1523234D
:1000FA000A128A11710883120313D7007008D600F6
:10010A005608F0005708F100F201F30100300A1214
:10011A008A11E2200A128A11730883120313DE007D
:10012A007208DD007108DC007008DB005E08C1009F
:10013A005D08C0005C08BF005B08BE000A128A1591
:10014A00B2250A128A11831203134108E2004008F9
:10015A00E1003F08E0003E08DF006208A3006108F2
:10016A00A2006008A1005F08A0000A128A15F22600
:10017A000A128A11831203132108C7002008C60035
:10018A000A128A11AF230A128A110030F300893049
:10019A00F4000A128A1588220A128A114D30831233
:1001AA000313DA001930D9004F30D800D80BDB28F6
:1001BA00D90BDB28DA0BDB280800F80078080319CA
:1001CA00E728E828FC28F31FEB28EC28FC2870090C
:1001DA00FA007109FB007209FC007309FD00FA0AB2
:1001EA000319FB0A0319FC0A0319FD0A04297308F7
:1001FA00FD007208FC007108FB007008FA00730821
:10020A00720471047004031D0B290C29152900308E
:10021A00F3000030F2000030F1000030F0009B29BA
:10022A009630F4007408F90027290130F4007408A4
:10023A00F90701300310FD0CFC0CFB0CFA0CFF3E15
:10024A00031D1F29FE307D05031D2C292D291A297E
:10025A0049290130F4007408F9070130FA0700301F
:10026A0003180130FB07003003180130FC07003087
:10027A0003180130FD0701300310FD0CFC0CFB0CC8
:10028A00FA0CFF3E031D4129FF307D05031D4E294F
:10029A004F292E295B290130F9020130F40003109D
:1002AA00FA0DFB0DFC0DFD0DF40B5429FC1B5E2908
:1002BA005F296529023079020318642965295029C2
:1002CA007918682969297129FF30FA05FF30FB0579
:1002DA007F30FC05FF30FD050310F90C7908F400A6
:1002EA00F501F601F70118300310F40DF50DF60DBE
:1002FA00F70DFF3E031D79297408FA047508FB04FB
:10030A007608FC047708FD04780803198D298E29DC
:10031A009329F31F912992299329FD177D08F30048
:10032A007C08F2007B08F1007A08F000080001302E
:10033A000A128A1567230A128A1180300A128A154C
:10034A0067230A128A110030F3008830F4000A1277
:10035A008A1588220A128A110A128A1163220A123B
:10036A008A11F500750883120313EC006C080A124F
:10037A008A15B3230A128A110A128A1163220A12EF
:10038A008A11F500750883120313EB006B080A1231
:10039A008A15B3230A128A110330F7008A30F6004D
:1003AA005530F500F50BD729F60BD729F70BD729C6
:1003BA00DE2901300A128A1567230A128A1180304F
:1003CA000A128A1567230A128A112C30F300883020
:1003DA00F4000A128A1588220A128A110A128A114C
:1003EA0063220A128A11F500750883120313EA00C0
:1003FA006A080A128A15B3230A128A110A128A1182
:10040A0063220A128A11F500750883120313E900A0
:10041A0069080A128A15B3230A128A110330F700EF
:10042A008A30F6005530F500F50B192AF60B192A11
:10043A00F70B192A202A01300A128A1567230A1291
:10044A008A1180300A128A1567230A128A114130EA
:10045A00F3008830F4000A128A1588220A128A11D7
:10046A000A128A1163220A128A11F5007508831288
:10047A000313E80068080A128A15B3230A128A11BC
:10048A000A128A1163220A128A11F5007508831268
:10049A000313E70067080A128A15B3230A128A119E
:1004AA000330F7008A30F6005530F500F50B5B2A69
:1004BA00F60B5B2AF70B5B2A622A080083120313E6
:1004CA008801081E692A6A2A2D2B881E6D2A6E2A1F
:1004DA002D2B081F712A722A2D2B881B752A762A22
:1004EA00662A2D2B0330F2008A30F1005530F000D5
:1004FA00F00B7D2AF10B7D2AF20B7D2A842A8312C6
:10050A0003130810881588198B2A8F2A831203135C
:10051A000815922A8312031308110819952A992A91
:10052A008312031388149C2A831203138810081E4B
:10053A009F2AA02AAC2A881EA32AA42AAC2A081F0A
:10054A00A72AA82AAC2A881BAB2AAC2AAE2AEF0112
:10055A003D2B881088158819B32AB72A83120313EA
:10056A000815BA2A8312031308110819BD2AC12AC9
:10057A00831203130814C42A831203130810081ED3
:10058A00C72AC82AD42A881ECB2ACC2AD42A081FCA
:10059A00CF2AD02AD42A881BD32AD42AD72AEF01D1
:1005AA00EF0A3D2B081188158819DC2AE02A8312E4
:1005BA0003130814E32A8312031308100818E62AFF
:1005CA00EA2A831203138814ED2A8312031388106C
:1005DA00081EF02AF12AFD2A881EF42AF52AFD2A85
:1005EA00081FF82AF92AFD2A881BFC2AFD2A022B51
:1005FA000230F0007008EF003D2B8811081408182B
:10060A00072B0B2B8312031308150E2B83120313CC
:10061A0008110819112B152B831203138814182B90
:10062A00831203138810081E1B2B1C2B282B881ED1
:10063A001F2B202B282B081F232B242B282B881B0E
:10064A00272B282B2D2B0330F0007008EF003D2BB1
:10065A00081E302B312B772A881E342B352B772A0C
:10066A00081F382B392B772A881F3C2B3D2B772ADA
:10067A00081A402B412B4F2B881E442B452B4F2BFE
:10068A00081F482B492B4F2B881F4C2B4D2B4F2BC8
:10069A00EE018C2B081E522B532B622B881A562BD9
:1006AA00572B622B081F5A2B5B2B622B881F5E2B42
:1006BA005F2B622BEE01EE0A8C2B081E652B662B34
:1006CA00772B881E692B6A2B772B081B6D2B6E2BB9
:1006DA00772B881F712B722B772B0230F000700852
:1006EA00EE008C2B081E7A2B7B2B8C2B881E7E2BE4
:1006FA007F2B8C2B081F822B832B8C2B881B862B02
:10070A00872B8C2B0330F0007008EE008C2B081E10
:10071A008F2B902B8C2B881E932B942B8C2B081FA2
:10072A00972B982B8C2B881F9B2B9C2B8C2B6F0821
:10073A00F00002300310F00DFF3E031D9F2BA03086
:10074A007007F1006E087107F200720884008313C3
:10075A000008080000308312031347020A30031905
:10076A0046020318B92BBA2BC22B4608303E0A128E
:10077A008A15B3230A128A11422D003047020A3021
:10078A0003194602031CCA2BCB2B0F2C003047023D
:10079A006430031946020318D32BD42B0F2C0A30CA
:1007AA00F0000030F1004708F3004608F2000A1290
:1007BA008A15AE220A128A11710883120313D50010
:1007CA007008D4005508CF005408CE000A30F00053
:1007DA000030F1004708F3004608F2000A128A15B1
:1007EA0023230A128A11710883120313D100700895
:1007FA00D0005008303E0A128A15B3230A128A1111
:10080A00831203134E08303E0A128A15B3230A12C2
:10081A008A11422D00304702643003194602031C34
:10082A00172C182C8F2C03304702E8300319460284
:10083A000318202C212C8F2C0A30F0000030F100F4
:10084A004708F3004608F2000A128A15AE220A1275
:10085A008A11710883120313D5007008D4000A3074
:10086A00F0000030F1004708F3004608F2000A12CF
:10087A008A1523230A128A11710883120313D300DB
:10088A007008D2005508CF005408CE000A30F00094
:10089A000030F1005308F3005208F2000A128A15D8
:1008AA00AE220A128A11710883120313D500700846
:1008BA00D4005508D1005408D0000A30F0000030A6
:1008CA00F1005308F3005208F2000A128A15232392
:1008DA000A128A11710883120313CD007008CC0022
:1008EA004C08303E0A128A15B3230A128A1183125F
:1008FA0003135008303E0A128A15B3230A128A11CA
:10090A00831203134E08303E0A128A15B3230A12C1
:10091A008A11422D03304702E83003194602031CAC
:10092A00972C982C422D273047020F300319460284
:10093A000318A02CA12C422D0A30F0000030F1003F
:10094A004708F3004608F2000A128A15AE220A1274
:10095A008A11710883120313D5007008D4000A3073
:10096A00F0000030F1004708F3004608F2000A12CE
:10097A008A1523230A128A11710883120313D300DA
:10098A007008D2005508CF005408CE000A30F00093
:10099A000030F1005308F3005208F2000A128A15D7
:1009AA00AE220A128A11710883120313D500700845
:1009BA00D4005508D1005408D0000A30F0000030A5
:1009CA00F1005308F3005208F2000A128A15232391
:1009DA000A128A11710883120313CB007008CA0025
:1009EA000A30F0000030F1004B08F3004A08F20028
:1009FA000A128A15AE220A128A1171088312031387
:100A0A00D5007008D4005508CD005408CC000A302F
:100A1A00F0000030F1004B08F3004A08F2000A1215
:100A2A008A1523230A128A11710883120313C90033
:100A3A007008C8004808303E0A128A15B3230A1201
:100A4A008A11831203134C08303E0A128A15B32303
:100A5A000A128A11831203135008303E0A128A15A9
:100A6A00B3230A128A11831203134E08303E0A1264
:100A7A008A15B3230A128A11422D08007308803995
:100A8A0083120313A0002008F8007308A0002007AF
:100A9A00A1002108FA00F21F532D542D552D7A1466
:100AAA007A080319592D5A2D6A2D7A0A031D5E2DCB
:100ABA005F2D672D0030F3000030F2000030F100A6
:100ACA000030F000F217F301722D0030F30000300D
:100ADA00F2000030F1000030F00077088039A00001
:100AEA002008F9007908780603197C2D7D2D7E2DC2
:100AFA0078177708A0002007A1002108F900F61F3F
:100B0A00872D882D892D7914790803198D2D8E2D1D
:100B1A009E2D790A031D922D932D9B2D0030F700EF
:100B2A000030F6000030F5000030F400F617F70147
:100B3A00A62D0030F7000030F6000030F500003036
:100B4A00F4007A0879020318AB2DAC2DF02D781F2A
:100B5A00AF2DB02DB42D8030A0002008F8067A08F9
:100B6A00A0002008FB007908A0002008FA007B08F2
:100B7A00A0002008F9007008A0002008FB007408F3
:100B8A00A0002008F0007B08A0002008F4007108EB
:100B9A00A0002008FB007508A0002008F1007B08CF
:100BAA00A0002008F5007208A0002008FB007608C3
:100BBA00A0002008F2007B08A0002008F6007308B5
:100BCA00A0002008FB007708A0002008F3007B089B
:100BDA00A0002008F700FB017908A000A101210864
:100BEA00A3007A082002A200031CA3032308803A68
:100BFA00FF0080307F02031D042E1A302202031CDC
:100C0A00072E082E492E7308720471047004031DFE
:100C1A000F2E112E0130122E003083120313A00062
:100C2A002008FB000030F3000030F2000030F10031
:100C3A000030F0007908A0002008FA004F2E7B1C33
:100C4A00272E282E332E7B0883120313A0000310AD
:100C5A00200C0138A1002108FB00352E0310FB0CE3
:100C6A00701C382E392E3A2EFB17013083120313CB
:100C7A00A000730DF30CF20CF10CF00CA00B3E2E3D
:100C8A000130A0002008FA0779087A02031C4E2EC8
:100C9A004F2E242E781B522E532EA22E7A08031D75
:100CAA00572E582E612E0030F3000030F20000302B
:100CBA00F1000030F000DA2F7408F007750803110C
:100CCA000318013E03196A2EF10776080311031867
:100CDA00013E0319712EF207770803110318013E2A
:100CEA000319782EF307731C7B2E7C2E5A2F7B1C3C
:100CFA007F2E802E8B2E7B0883120313A0000310F5
:100D0A00200C0138A1002108FB008D2E0310FB0CDA
:100D1A00701C902E912E922EFB1701308312031312
:100D2A00A000730DF30CF20CF10CF00CA00B962E34
:100D3A000130A0002008FA075A2F7308803AFF00F2
:100D4A007708803A7F02031DB42E76087202031DCB
:100D5A00B42E75087102031DB42E740870020318AC
:100D6A00B72EB82E122FFF3083120313A000FF30C4
:100D7A00A100FF30A200FF30A3007408A400750888
:100D8A00A5007608A6007708A7007008A4027108D3
:100D9A00031C710FD12ED22EA5027208031C720FEA
:100DAA00D72ED82EA6027308031C730FDD2EDE2E53
:100DBA00A7022408A00725080318250FE52EE62E0A
:100DCA00A10726080318260FEB2EEC2EA2072708E8
:100DDA000318270AA3072308F3002208F2002108B0
:100DEA00F1002008F0008030A0002008F806FB0976
:100DFA00FB0A7B08031D022F032F202F0130F00767
:100E0A00003003180130F107003003180130F207EF
:100E1A00003003180130F307202F7408F002750818
:100E2A00031C750FF1027608031C760FF20277088D
:100E3A00031C770FF3027308720471047004031D14
:100E4A00272F282F562F7B08031D2C2F2D2F562F87
:100E5A000030F3000030F2000030F1000030F00002
:100E6A00DA2F013083120313A0000310F00DF10DE5
:100E7A00F20DF30DA00B3A2FFB1F442F452F462FDF
:100E8A0070147B1C492F4A2F4D2F0314FB0D4F2F33
:100E9A000310FB0D7A080319532F542F562F0130D4
:100EAA00FA02F21F592F5A2F362FF901FB1F5E2F14
:100EBA005F2F6D2F7B087F390319642F652F682FE9
:100ECA00F901F90A6D2F701C6B2F6C2F6D2F652F8E
:100EDA0079080319712F722FA82F0130F0070030FB
:100EEA0003180130F107003003180130F20700300F
:100EFA0003180130F307731C832F842FA82F70085F
:100F0A0083120313A0007108A1007208A2007308DB
:100F1A00A3000130A400230DA30CA20CA10CA00C69
:100F2A00A40B902F2308F3002208F2002108F100F5
:100F3A002008F0007A0A0319A32FA42FA82F013042
:100F4A00A0002008FA077A0A0319AC2FAD2FB22F96
:100F5A007A08031DB12FB22FC02F0030F3000030E2
:100F6A00F2000030F1000030F0007A08031DBE2FB5
:100F7A00BF2FC02FF8017A1CC32FC42FC62FF21718
:100F8A00CC2F7F3083120313A0002008F2057A08C1
:100F9A0083120313A0000310200CA1002108F30000
:100FAA00F81FD82FD92FDA2FF31708008313B03080
:100FBA00FD000A30FE000D30FF00A03084000A1246
:100FCA008A1521220A128A1183160313B001B1016C
:100FDA00B201B301B40183120313E601E701E80188
:100FEA00E901EA01EB01EC01ED01EE01EF018301F8
:100FFA000A128A15552D45346E34743465347234A8
:10100A002034743468346534203442346F346234A2
:10101A00623469346E342034533469347A34653432
:10102A003A34003449346E34763461346C34693479
:10103A00643420344434613474346134203449349F
:10104A006E347034753474342134213400344534A8
:10105A006E347434653472342034743468346534CC
:10106A00203443346F3469346C3420345334693453
:10107A007A3465343A34003445346E347434653421
:10108A007234203474346834653420344E346F3406
:10109A002E3420345434753472346E3473343A3402
:1010AA0000342034203420342034203420344D3489
:1010BA0041344334483449344E344534203420349E
:1010CA002034203420342034003421342134203494
:1010DA00203420342034573445344C3443344F348C
:1010EA004D34453420342034203420342134213402
:1010FA0000345434523441344E34533446344F3429
:10110A0052344D34453452342034573449344E34F1
:10111A00443449344E344734003454346F347434CC
:10112A0061346C3420344E346F342E3420345434C9
:10113A00753472346E3473343A342034003454348F
:10114A006F34743461346C342034543469346D34FB
:10115A0065342034543461346B3465346E343A3433
:10116A000034573469346E34643469346E34673405
:10117A00203443346F346D3470346C3465347434D1
:10118A0065347334003445346E34743465347234DF
:10119A0065346434203444346134743461343A3408
:1011AA0020340034573469346E34643469346E340C
:1011BA00673420345334743461347234743473347D
:1011CA00003442346F346234623469346E34203409
:1011DA00533469347A3465343A342034003443342D
:1011EA006F3469346C342034533469347A34653456
:1011FA003A342034003420345334653463346F3441
:10120A006E34643473342E340034FF1B1429831370
:10121A007F1883170008840A0319FF0A08007F0849
:0E122A007F398A000408840A0319FF0A820033
:1013F600F030831603138800831203138801080054
:10140600F00070080319082A092A0C2A831203130C
:10141600861708003734383439342F3434343534A9
:1014260036342A343134323433342D344334303480
:101436003D342B347E088A007F0882000A128A1502
:101446001D220A128A158000840A04087D060319E3
:101456000034FF0A0319FE0A212AF300F201731C65
:10146600352A362A3A2A7008F1007108F207031065
:10147600F00D0310F30C7308031D422A432A322A87
:101486007208080002300A128A1567230A128A15A2
:1014960028300A128A1567230A128A150E300A1294
:1014A6008A1567230A128A1506300A128A156723D7
:1014B6000A128A1580300A128A1567230A128A15BB
:1014C6000800803083120313B9063D08F3003C0878
:1014D600F2003B08F1003A08F0003908F700380836
:1014E600F6003708F5003608F4000A128A1143257B
:1014F6000A128A15730883120313B9007208B8001A
:101506007108B7007008B60008009D2A7408FF002D
:10151600730884000A128A150A210A128A150A1209
:101526008A15B3230A128A150130F3070318F40A41
:101536000030F407740883120313FF007308840055
:101546000A128A150A210A128A15003A031DAC2AC4
:10155600AD2A892A0800700871040319B32AB42A2F
:10156600E32AF501F50AC22A01300310F00DF10D48
:10157600FF3E031DB82A0130F4007408F507F11F79
:10158600C52AC62AB72A71087302031DCC2A700819
:101596007202031CCF2AD02AD62A7008F2027108DA
:1015A600031CF303F30201300310F10CF00CFF3EB1
:1015B600031DD72A0130F502031DE22AE32AC62AB3
:1015C6007308F1007208F00008000A30F40074088D
:1015D600F000831203136C080A128A1530220A12CD
:1015E6008A15831203136B07F50075088316031318
:1015F600B3000A30F4007408F000831203136A087B
:101606000A128A1530220A128A15831203136907F1
:10161600F500750883160313B2000A30F400740847
:10162600F0008312031368080A128A1530220A1280
:101636008A15831203136707F5007508E60008008C
:10164600F501F6017008710403192A2B2B2B622B66
:10165600F701F70A392B01300310F00DF10DFF3EAB
:10166600031D2F2B0130F4007408F707F11F3C2BE4
:101676003D2B2E2B01300310F50DF60DFF3E031DFD
:101686003E2B71087302031D4A2B70087202031C5D
:101696004D2B4E2B552B7008F2027108031CF303D9
:1016A600F302751401300310F10CF00CFF3E031D1C
:1016B600562B0130F702031D612B622B3D2B76085A
:1016C600F1007508F0000800F200831203130711F9
:1016D6004130F100EE30F000F00B6F2BF10B6F2B69
:1016E6000000720883120313870087154130F1004A
:1016F600EE30F000F00B7D2BF10B7D2B00008312FA
:10170600031387114130F100EE30F000F00B892B06
:10171600F10B892B00007208F00003300310F00D66
:10172600FF3E031D912B0310700D831203138700D8
:10173600071187154130F100EE30F000F00BA12BB8
:10174600F10BA12B00008312031387114130F10026
:10175600EE30F000F00BAD2BF10BAD2B00000800C6
:10176600F2008312031307154130F100EE30F0004A
:10177600F00BBB2BF10BBB2B00007208831203137B
:10178600870087154130F100EE30F000F00BC92BD1
:10179600F10BC92B00008312031387114130F100AE
:1017A600EE30F000F00BD52BF10BD52B00007208B4
:1017B600F00003300310F00DFF3E031DDD2B031078
:1017C600700D831203138700071587154130F1004A
:1017D600EE30F000F00BED2BF10BED2B0000831239
:1017E600031387114130F100EE30F000F00BF92BB6
:1017F600F10BF92B0000080000307005F8000030EE
:101806007105F90080307205FA007F307305FB0020
:101816007B087A0479047804031D122C132C1B2CE4
:101826000030F3000030F2000030F1000030F0002C
:1018360000307405F80000307505F9008030760533
:10184600FA007F307705FB007B087A047904780478
:10185600031D2E2C2F2C372C0030F7000030F600FD
:101866000030F5000030F40077087306031D452CA0
:1018760076087206031D452C75087106031D452C56
:10188600740870060319482C492C4B2C03104C2C59
:1018960003140800831203132308F3002208F2003E
:1018A6002108F1002008F0000030F7000030F600B3
:1018B6000030F5000030F4000A128A15FF230A12E0
:1018C6008A15031C672C682C712C831203132408B9
:1018D600840083138001840A8001A02C83120313E1
:1018E60023087F39FC00FD010310FC0DFD0D2408C3
:1018F60084007C0883138000840A7D088000220D02
:10190600220D0139FC00FD01240884007C088004B6
:10191600840A7D0880042408840082308007840FAE
:1019260000080318000AFF00FF307F0780008403C9
:10193600230880393F38A300A2130800831203133B
:10194600A00001300A128A1567230A128A15803010
:101956000A128A1567230A128A15D730F3008830CF
:10196600F4000A128A1588220A128A1583120313B2
:101976000616A101A201D42C1A30FB005E30FA0033
:101986006E30F900F90BC52CFA0BC52CFB0BC52CD8
:101996000000013083120313A1070318A20A0030C6
:1019A600A2073C30F0000030F1002008F900FA01EF
:1019B6007908F2007A08F3000A128A1519260A1223
:1019C6008A15831203132208803AFB007108803AB5
:1019D6007B02031DF02C70082102031CF32CF42C4F
:1019E600BF2C8312031386140612080083120313F6
:1019F6002E08A3002D08A2002C08A1002B08A00089
:101A06003430AF002F08A4000A128A154D240A129A
:101A16008A1583120313B51F112D122D1B2D0030AD
:101A2600AE000030AD000030AC000030AB00542DED
:101A3600003035021D3003193402031C232D242DDA
:101A4600252D542D2E08A3002D08A2002C08A10038
:101A56002B08A0000A128A15F2260A128A1583128A
:101A660003132308F3002208F2002108F1002008DE
:101A7600F00001300A128A11E2200A128A15730850
:101A860083120313B3007208B2007108B100700824
:101A9600B0003308AE003208AD003108AC003008A3
:101AA600AB00080083160313860187010A128A1504
:101AB60045220A128A150A128A1105200A128A1567
:101AC6000A128A15FB210A128A150A128A119C210A
:101AD6000A128A150A128A1580260A128A150A120D
:101AE6008A15E8220A128A150A128A156E270A1220
:101AF6008A15831203136D08E3006308F000660875
:101B06000A128A1530220A128A1583120313E40078
:101B16006408E50065080A128A1503220A128A1566
:101B26008312031365080319992D9A2D682D6508EC
:101B36000A128A15A1240A128A158312031365084C
:101B4600E300E4016308D6006408D7000A128A118C
:101B560046200A128A15AE2D0A128A11002883120F
:101B660003134108AE004008AD003F08AC003E0834
:101B7600AB000A128A15F9240A128A158312031376
:101B86002E08B9002D08B8002C08B7002B08B6009F
:101B96004108BD004008BC003F08BB003E08BA0033
:101BA6000A128A1564220A128A1583120313390847
:101BB600C5003808C4003708C3003608C200450807
:101BC600F3004408F2004308F1004208F00041081F
:101BD600F7004008F6003F08F5003E08F4000A1238
:101BE6008A1143250A128A15730883120313C1004A
:101BF6007208C0007108BF007008BE004108AE0040
:101C06004008AD003F08AC003E08AB000A128A153A
:101C1600F9240A128A15831203132E08C1002D080F
:101C2600C0002C08BF002B08BE000800F601F11FFB
:101C36001D2E1E2E252EF009F109F00A0319F10AB0
:101C4600F601F60AF31F282E292E322EF209F30981
:101C5600F20A0319F30A0130F4007408F606F701D4
:101C6600F801700871040319392E3A2E712EF50108
:101C7600F50A482E01300310F00DF10DFF3E031D4D
:101C86003E2E0130F4007408F507F11F4B2E4C2E42
:101C96003D2E01300310F70DF80DFF3E031D4D2EAE
:101CA60071087302031D592E70087202031C5C2E04
:101CB6005D2E642E7008F2027108031CF303F30212
:101CC600771401300310F10CF00CFF3E031D652E56
:101CD6000130F502031D702E712E4C2E7608031965
:101CE600752E762E7B2EF709F809F70A0319F80ADE
:101CF6007808F1007708F0000800313083120313EA
:101D06006C06031D872E882EA32E31306A06031D0E
:101D16008D2E8E2E9E2E30306906031D932E942E08
:101D2600992E3130F5007508ED00F12E3230F500B0
:101D36007508ED00F12E3330F5007508ED00F12E33
:101D460032306C06031DA82EA92EBB2E31306A0632
:101D5600031DAE2EAF2EB62E30306906031DB42EEF
:101D6600B52E9E2E992E3430F5007508ED00F12E15
:101D760034306C06031DC02EC12EDC2E31306A06AF
:101D8600031DC62EC72ED72E30306906031DCC2E56
:101D9600CD2ED22E3530F5007508ED00F12E3630F9
:101DA600F5007508ED00F12E3730F5007508ED00E9
:101DB600F12E01300A128A1567230A128A15C030DD
:101DC6000A128A1567230A128A151730F30088301B
:101DD600F4000A128A1588220A128A1508000310CE
:101DE60083120313220D230DA4002408AA002A0837
:101DF600031DFE2EFF2E082F0030A3000030A20088
:101E06000030A1000030A0006D2F2008A40021089A
:101E1600A5002208A6002308A7001F300310A70C60
:101E2600A60CA50CA40CFF3E031D112F2408A80028
:101E36002808A900A217FF30A005FF30A105FF3032
:101E4600A2050030A3059630AA02AA1F2B2F2C2F1D
:101E5600462F2A08803A973E0318322F332F342F05
:101E6600FF2E01300310A30CA20CA10CA00CFF3E08
:101E7600031D352F0130A4002408AA07031D442F93
:101E8600452F342F5D2F20302A02031C4B2F4C2F59
:101E9600582FFF2E0130A4000310A00DA10DA20D96
:101EA600A30DA40B4F2F0130AA022A08031D5C2F95
:101EB6005D2F4D2F29080319612F622F6D2FA00961
:101EC600A109A209A309A00A0319A10A0319A20AD2
:101ED6000319A30A080001300A128A1567230A1299
:101EE6008A1580300A128A1567230A128A15C830A5
:101EF600F3008830F4000A128A1588220A128A151D
:101F0600C0300A128A1567230A128A15E630F300D2
:101F16008830F4000A128A1588220A128A15CC30F3
:101F26000A128A1567230A128A15831203136C088C
:101F36000A128A15B3230A128A15831203136B0831
:101F46000A128A15B3230A128A1594300A128A15C0
:101F560067230A128A15F430F3008830F4000A1257
:101F66008A1588220A128A15A0300A128A15672352
:101F76000A128A15831203136A080A128A15B323F2
:101F86000A128A158312031369080A128A15B323E3
:101F96000A128A15D4300A128A1567230A128A157C
:101FA6009230F3008830F4000A128A1588220A1249
:101FB6008A15E4300A128A1567230A128A158312D3
:101FC600031368080A128A15B3230A128A158312A4
:101FD600031367080A128A15B3230A128A151A30E0
:101FE600F7005E30F6006E30F500F50BF82FF60BB5
:0A1FF600F82FF70BF82F0000080089
:08400000FF3FFF3FFF3FFF3FC0
:02400E00FA3F77
:00000001FF
