:100000000A128A11E22F00308A000408840A82074B
:10001000003445346E3474346534723420347434AE
:1000200068346534203442346F3462346234693465
:100030006E342034533469347A3465343A340034BD
:1000400045346E3474346534723420347434683416
:100050006534203443346F3469346C342034533481
:1000600069347A3465343A34003445346E34743447
:1000700065347234203474346834653420344E343A
:100080006F342E3420345434753472346E347334F7
:100090003A34003454346F34743461346C34203462
:1000A000543469346D3465342034543461346B34E1
:1000B00065346E343A340034573469346E34643401
:1000C00069346E346734203443346F346D347034A3
:1000D0006C346534743465347334003457346934A3
:1000E0006E34643469346E34673420345334743479
:1000F0006134723474347334003442346F34623493
:10010000623469346E342034533469347A3465345B
:100110003A342034003443346F3469346C3420343E
:10012000533469347A3465343A34203400344E34EC
:100130006F342E3420345434753472346E34733446
:060140003A3420340034C3
:100154007E088A007F0882000A128A11AA200A12E5
:100164008A118000840A04087D0603190034FF0AFA
:100174000319FE0AAE28F401F501701CC228C32835
:10018400C9287208F4070318F50A7308F507013043
:100194000310F20DF30DFF3E031DCA2801300310B6
:1001A400F10CF00CFF3E031DD12870087104031DEF
:1001B400DC28DD28BF287508F1007408F000080069
:1001C4008312031349034A04031DE928EA28EF288C
:1001D4006430C5000030C6000629023049064A04CE
:1001E400031DF528F628FB287D30C5000030C60025
:1001F4000629033049064A04031D01290229062958
:100204009630C5000030C60008007708F100760873
:10021400F0007908F3007808F2000A128A11BD2070
:100224000A128A11710883120313A3007008A20032
:100234002308F1002208F0007B08F3007A08F2009A
:100244000A128A11BD200A128A117108831203133B
:10025400A1007008A0002108F7002008F60008009B
:10026400700871040319372938296729F501F50A3B
:10027400462901300310F00DF10DFF3E031D3C290A
:100284000130F4007408F507F11F49294A293B2974
:1002940071087302031D502970087202031C53294C
:1002A40054295A297008F2027108031CF303F3025B
:1002B40001300310F10CF00CFF3E031D5B290130EB
:1002C400F502031D662967294A297308F10072089B
:1002D400F0000800F501F601700871040319732990
:1002E4007429AB29F701F70A822901300310F00DB4
:1002F400F10DFF3E031D78290130F4007408F7075F
:10030400F11F85298629772901300310F50DF60D93
:10031400FF3E031D872971087302031D932970088A
:100324007202031C962997299E297008F20271080B
:10033400031CF303F302751401300310F10CF00CE9
:10034400FF3E031D9F290130F702031DAA29AB2993
:1003540086297608F1007508F0000800F20083127F
:10036400031307114130F100EE30F000F00BB8290F
:10037400F10BB82900007208831203138700871554
:100384004130F100EE30F000F00BC629F10BC62924
:1003940000008312031387114130F100EE30F000A6
:1003A400F00BD229F10BD22900007208F0000330BF
:1003B4000310F00DFF3E031DDA290310700D8312A4
:1003C40003138700071187154130F100EE30F00068
:1003D400F00BEA29F10BEA290000831203138711B9
:1003E4004130F100EE30F000F00BF629F10BF62964
:1003F40000000800F2008312031307154130F100D6
:10040400EE30F000F00B042AF10B042A000072080D
:1004140083120313870087154130F100EE30F0009A
:10042400F00B122AF10B122A000083120313871116
:100434004130F100EE30F000F00B1E2AF10B1E2AC1
:1004440000007208F00003300310F00DFF3E031D9E
:10045400262A0310700D83120313870007158715CE
:100464004130F100EE30F000F00B362AF10B362A61
:1004740000008312031387114130F100EE30F000C5
:10048400F00B422AF10B422A00000800F601F31F88
:100494004C2A4D2A542AF209F309F20A0319F30AE1
:1004A400F601F60AF11F572A582A5D2AF009F109C4
:1004B400F00A0319F10A700871040319622A632A05
:1004C400922AF501F50A712A01300310F00DF10D9D
:1004D400FF3E031D672A0130F4007408F507F11F7D
:1004E400742A752A662A71087302031D7B2A700810
:1004F4007202031C7E2A7F2A852A7008F202710880
:10050400031CF303F30201300310F10CF00CFF3E63
:10051400031D862A0130F502031D912A922A752AA9
:1005240076080319962A972A9C2AF209F309F20AF3
:100534000319F30A7308F1007208F0000800F601C9
:10054400F11FA52AA62AAD2AF009F109F00A031918
:10055400F10AF601F60AF31FB02AB12ABA2AF209FF
:10056400F309F20A0319F30A0130F4007408F606D9
:10057400F701F801700871040319C12AC22AF92A83
:10058400F501F50AD02A01300310F00DF10DFF3EFC
:10059400031DC62A0130F4007408F507F11FD32A9D
:1005A400D42AC52A01300310F70DF80DFF3E031DB0
:1005B400D52A71087302031DE12A70087202031C14
:1005C400E42AE52AEC2A7008F2027108031CF303FA
:1005D400F302771401300310F10CF00CFF3E031DFD
:1005E400ED2A0130F502031DF82AF92AD42A7608E7
:1005F4000319FD2AFE2A032BF709F809F70A031940
:10060400F80A7808F1007708F000080001300A12AF
:100614008A11B0210A128A11C0300A128A11B0213B
:100624000A128A1183300A128A15E1270A128A11E2
:10063400CB300A128A11B0210A128A1183120313D1
:100644004C08FA004B08F9000A128A1150260A12C3
:100654008A1194300A128A11B0210A128A11753053
:100664000A128A15E1270A128A119F300A128A1186
:10067400B0210A128A11831203134A08FA004908A6
:10068400F9000A128A1150260A128A11D4300A1269
:100694008A11B0210A128A118F300A128A15E127B1
:1006A4000A128A11DF300A128A11B0210A128A1141
:1006B400831203134808FA004708F9000A128A1142
:1006C40050260A128A111A30FD005E30FC006E308A
:1006D400FB00FB0B6B2BFC0B6B2BFD0B6B2B000044
:1006E400080083160313860187018312031388010C
:1006F4000A128A15C2270A128A110A128A15AA270F
:100704000A128A110A128A1119240A128A110A1267
:100714008A11E2200A128A11831203134A08F7008D
:100724004908F6004608F9004508F8004808FB00A7
:100734004708FA000A128A1107210A128A11770857
:1007440083120313C4007608C3000A128A11082313
:100754000A128A1101300A128A11B0210A128A116E
:1007640080300A128A11B0210A128A1166300A12E4
:100774008A15E1270A128A118312031306144D30D5
:1007840083120313B0001930AF004F30AE00AE0B2C
:10079400C92BAF0BC92BB00BC92B83120313061043
:1007A400861401300A128A11B0210A128A1180308B
:1007B4000A128A11B0210A128A1154300A128A15B7
:1007C400E1270A128A1194300A128A11B0210A12FE
:1007D4008A1142300A128A15E1270A128A11D4308A
:1007E4000A128A11B0210A128A113C30F00000303A
:1007F400F100831203134408F3004308F2000A12C1
:100804008A11A1220A128A11710883120313B200F9
:100814007008B1003208FA003108F9000A128A118E
:1008240050260A128A11152C0A128A1100288030C7
:100834000A128A11B0210A128A1118300A128A1572
:10084400E1270A128A11F901FA010A128A11042510
:100854000A128A11F600F701831203134C08F100FF
:100864004B08F0000A30F2000030F3000A128A113B
:10087400BD200A128A117608700783120313CB0075
:1008840077080318770A7107CC000130F9070318B9
:10089400FA0A0030FA077A08803AFF0080307F02B3
:1008A400031D562C02307902031C592C5A2C272C78
:1008B4001A30F8005E30F7006E30F600F60B602C4C
:1008C400F70B602CF80B602C000080300A128A11A0
:1008D400B0210A128A1101300A128A15E1270A127C
:1008E4008A11F901FA010A128A1104250A128A11DD
:1008F400F600F701831203134A08F1004908F000D7
:100904000A30F2000030F3000A128A11BD200A12E4
:100914008A117608700783120313C9007708031835
:10092400770A7107CA000130F9070318FA0A003080
:10093400FA077A08803AFF0080307F02031DA42C56
:1009440001307902031CA72CA82C752C1A30F8004E
:100954005E30F7006E30F600F60BAE2CF70BAE2CC3
:10096400F80BAE2C000080300A128A11B0210A1252
:100974008A112D300A128A15E1270A128A11F90107
:10098400FA010A128A1104250A128A11F600F701E3
:10099400831203134808F1004708F0000A30F200FC
:1009A4000030F3000A128A11BD200A128A11760857
:1009B400700783120313C70077080318770A7107B7
:1009C400C8000130F9070318FA0A0030FA077A0858
:1009D400803AFF0080307F02031DF22C023079023E
:1009E400031CF52CF62CC32C1A30F8005E30F700EB
:1009F4006E30F600F60BFC2CF70BFC2CF80BFC2CE1
:100A040000000800831203138801081E0A2D0B2D11
:100A1400CE2D881E0E2D0F2DCE2D081F122D132D19
:100A2400CE2D881B162D172D072DCE2D0330F20049
:100A34008A30F1005530F000F00B1E2DF10B1E2D05
:100A4400F20B1E2D252D8312031308108815881907
:100A54002C2D302D831203130815332D8312031309
:100A640008110819362D3A2D8312031388143D2DCD
:100A7400831203138810081E402D412D4D2D881E0E
:100A8400442D452D4D2D081F482D492D4D2D881BD6
:100A94004C2D4D2D4F2DCE01DE2D88108815881933
:100AA400542D582D8312031308155B2D8312031341
:100AB400081108195E2D622D831203130814652D85
:100AC400831203130810081E682D692D752D881EC6
:100AD4006C2D6D2D752D081F702D712D752D881B96
:100AE400742D752D782DCE01CE0ADE2D08118815B2
:100AF40088197D2D812D831203130814842D8312EC
:100B0400031308100818872D8B2D831203138814E0
:100B14008E2D831203138810081E912D922D9E2D65
:100B2400881E952D962D9E2D081F992D9A2D9E2D4C
:100B3400881B9D2D9E2DA32D0230F0007008CE0041
:100B4400DE2D881108140818A82DAC2D8312031368
:100B54000815AF2D8312031308110819B22DB62DF1
:100B6400831203138814B92D831203138810081EEB
:100B7400BC2DBD2DC92D881EC02DC12DC92D081F0A
:100B8400C42DC52DC92D881BC82DC92DCE2D0330CC
:100B9400F0007008CE00DE2D081ED12DD22D182DA8
:100BA400881ED52DD62D182D081FD92DDA2D182DD8
:100BB400881FDD2DDE2D182D081AE12DE22DF02DD4
:100BC400881EE52DE62DF02D081FE92DEA2DF02DC8
:100BD400881FED2DEE2DF02DCD012D2E081EF32DA9
:100BE400F42D032E881AF72DF82D032E081FFB2D44
:100BF400FC2D032E881FFF2D002E032ECD01CD0AC0
:100C04002D2E081E062E072E182E881E0A2E0B2E99
:100C1400182E081B0E2E0F2E182E881F122E132E80
:100C2400182E0230F0007008CD002D2E081E1B2E49
:100C34001C2E2D2E881E1F2E202E2D2E081F232EF7
:100C4400242E2D2E881B272E282E2D2E0330F00027
:100C54007008CD002D2E081E302E312E2D2E881E0C
:100C6400342E352E2D2E081F382E392E2D2E881F6A
:100C74003C2E3D2E2D2E4E08F00002300310F00DB8
:100C8400FF3E031D402E33307007F1004D087107FD
:100C9400F2007208840083130008080000307A020E
:100CA4000A30031979020318582E592E612E790837
:100CB400303E0A128A11FC210A128A11E12F0030F7
:100CC4007A020A3003197902031C692E6A2EAE2EA9
:100CD40000307A026430031979020318722E732EDD
:100CE400AE2E0A30F0000030F1007A08F3007908E3
:100CF400F2000A128A1132210A128A11710883122F
:100D04000313AD007008AC002D08A7002C08A60042
:100D14000A30F0000030F1007A08F3007908F2009C
:100D24000A128A116C210A128A11710883120313A0
:100D3400A9007008A8002808303E0A128A11FC2174
:100D44000A128A11831203132608303E0A128A11EA
:100D5400FC210A128A11E12F00307A02643003194F
:100D64007902031CB62EB72E2E2F03307A02E830F8
:100D7400031979020318BF2EC02E2E2F0A30F0005B
:100D84000030F1007A08F3007908F2000A128A119F
:100D940032210A128A11710883120313AD007008FC
:100DA400AC000A30F0000030F1007A08F300790852
:100DB400F2000A128A116C210A128A117108831234
:100DC4000313AB007008AA002D08A7002C08A60086
:100DD4000A30F0000030F1002B08F3002A08F2007A
:100DE4000A128A1148220A128A1171088312031303
:100DF400AD007008AC002D08A9002C08A8000A302A
:100E0400F0000030F1002B08F3002A08F2000A1267
:100E14008A11A1220A128A11710883120313A500F0
:100E24007008A4002408303E0A128A11FC210A1218
:100E34008A11831203132808303E0A128A11FC21F6
:100E44000A128A11831203132608303E0A128A11E9
:100E5400FC210A128A11E12F03307A02E8300319C7
:100E64007902031C362F372FE12F27307A020F30F7
:100E74000319790203183F2F402FE12F0A30F000A5
:100E84000030F1007A08F3007908F2000A128A119E
:100E940032210A128A11710883120313AD007008FB
:100EA400AC000A30F0000030F1007A08F300790851
:100EB400F2000A128A116C210A128A117108831233
:100EC4000313AB007008AA002D08A7002C08A60085
:100ED4000A30F0000030F1002B08F3002A08F20079
:100EE4000A128A1148220A128A1171088312031302
:100EF400AD007008AC002D08A9002C08A8000A3029
:100F0400F0000030F1002B08F3002A08F2000A1266
:100F14008A11A1220A128A11710883120313A300F1
:100F24007008A2000A30F0000030F1002308F3003A
:100F34002208F2000A128A1148220A128A11710840
:100F440083120313AD007008AC002D08A5002C0813
:100F5400A4000A30F0000030F1002308F300220856
:100F6400F2000A128A11A1220A128A11710883124C
:100F74000313A1007008A0002008303E0A128A1151
:100F8400FC210A128A11831203132408303E0A1228
:100F94008A11FC210A128A11831203132808303E95
:100FA4000A128A11FC210A128A11831203132608D9
:100FB400303E0A128A11FC210A128A11E12F08001C
:100FC40083134330FD000F30FE00B230FF00333096
:100FD40084000A128A11AE200A128A11C301C401C4
:100FE400C501C601C701C801C901CA01CB01CC01B1
:0C0FF400CD01CE0183010A128A11732B7B
:101F5400F0308316031388008312031388010800EA
:101F64003734383439342F343434353436342A342D
:101F74003134323433342D34433430343D342B341F
:101F840002300A128A11B0210A128A1528300A1264
:101F94008A11B0210A128A150E300A128A11B02150
:101FA4000A128A1506300A128A11B0210A128A15F9
:101FB40080300A128A11B0210A128A150800F4002E
:101FC400F32F740884000A128A1103200A128A1556
:101FD4000A128A11FC210A128A150130F3007308CF
:101FE400F407740884000A128A1103200A128A155D
:0C1FF400003A031DFE2FFF2FE32F080012
:08400000FF3FFF3FFF3FFF3FC0
:02400E00FA3F77
:00000001FF
