:060000000A128A11DC2F38
:10000C001B287408FF00730884000A168A1100204C
:10001C000A128A110A128A1550220A128A11013008
:10002C00F3070318F40A0030F4077408831203135F
:10003C00FF00730884000A168A1100200A128A1124
:10004C00003A031D2A282B280728080001300A1221
:10005C008A1504220A128A1180300A128A15042287
:10006C000A128A110030F3008830F4000A128A1147
:10007C0006200A128A110A128A1164220A128A11A3
:10008C0083120313D6005608EC006C08D600D70177
:10009C005608C6005708C7000A128A11B0230A1264
:1000AC008A110A128A1164220A128A11831203130A
:1000BC00D6005608EB006B08D600D7015608C600D0
:1000CC005708C7000A128A11B0230A128A1103308A
:1000DC0083120313D8008A30D7005530D600D60BC4
:1000EC007528D70B7528D80B752801300A128A157C
:1000FC0004220A128A1180300A128A1504220A126A
:10010C008A112C30F3008830F4000A128A11062070
:10011C000A128A110A128A1164220A128A11831293
:10012C000313D6005608EA006A08D600D701560811
:10013C00C6005708C7000A128A11B0230A128A1186
:10014C000A128A1164220A128A1183120313D6002E
:10015C005608E9006908D600D7015608C6005708AA
:10016C00C7000A128A11B0230A128A1103308312B3
:10017C000313D8008A30D7005530D600D60BC428CC
:10018C00D70BC428D80BC42801300A128A150422B4
:10019C000A128A1180300A128A1504220A128A1154
:1001AC004130F3008830F4000A128A1106200A123A
:1001BC008A110A128A1164220A128A1183120313F9
:1001CC00D6005608E8006808D600D7015608C600C5
:1001DC005708C7000A128A11B0230A128A110A1290
:1001EC008A1164220A128A1183120313D60056084C
:1001FC00E7006708D600D7015608C6005708C700A5
:10020C000A128A11B0230A128A11033083120313C3
:10021C00D8008A30D7005530D600D60B1329D70B0F
:10022C001329D80B132908008316031353088312C0
:10023C000313A30083160313520883120313A200A3
:10024C0083160313510883120313A100831603139F
:10025C00500883120313A000831603134F08831254
:10026C000313A700831603134E0883120313A6006F
:10027C00831603134D0883120313A500831603136F
:10028C004C0883120313A400831603134B08831228
:10029C000313AB00831603134A0883120313AA003B
:1002AC0083160313490883120313A900831603133F
:1002BC00480883120313A8008316031347088312FC
:1002CC000313AF0083160313460883120313AE0007
:1002DC0083160313450883120313AD00831603130F
:1002EC00440883120313AC008316031343088312D0
:1002FC000313B30083160313420883120313B200D3
:10030C0083160313410883120313B10083160313DE
:10031C00400883120313B000831603133F088312A3
:10032C000313B700831603133E0883120313B6009E
:10033C00831603133D0883120313B50083160313AE
:10034C003C0883120313B400831603133B08831277
:10035C000313BB00831603133A0883120313BA006A
:10036C0083160313390883120313B900831603137E
:10037C00380883120313B80083160313370883124B
:10038C000313BF0083160313360883120313BE0036
:10039C0083160313350883120313BD00831603134E
:1003AC00340883120313BC0083160313330883121F
:1003BC000313C30083160313320883120313C20002
:1003CC0083160313310883120313C100831603131E
:1003DC00300883120313C0006C03031DF629F729A0
:1003EC00102A6A03031DFB29FC290B2A6908031D2B
:1003FC00002A012A062A2308F5007508ED00632A55
:10040C002708F5007508ED00632A2B08F500750820
:10041C00ED00632A02306C06031D152A162A2F2ABA
:10042C006A03031D1A2A1B2A2A2A6908031D1F2A7C
:10043C00202A252A2F08F5007508ED00632A3308B9
:10044C00F5007508ED00632A3708F5007508ED0016
:10045C00632A04306C06031D342A352A4E2A6A039B
:10046C00031D392A3A2A492A6908031D3E2A3F2AC4
:10047C00442A3B08F5007508ED00632A3F08F50097
:10048C007508ED00632A4308F5007508ED00632A32
:10049C0001300A128A1504220A128A11C0300A127B
:1004AC008A1504220A128A111730F3008830F400DE
:1004BC000A128A1106200A128A11080083120313E9
:1004CC008801081E6A2A6B2A2E2B881E6E2A6F2A18
:1004DC002E2B081F722A732A2E2B881B762A772A1A
:1004EC00672A2E2B0330F2008A30F1005530F000D1
:1004FC00F00B7E2AF10B7E2AF20B7E2A852A8312C0
:10050C0003130810881588198C2A902A8312031358
:10051C000815932A8312031308110819962A9A2A8C
:10052C008312031388149D2A831203138810081E48
:10053C00A02AA12AAD2A881EA42AA52AAD2A081F02
:10054C00A82AA92AAD2A881BAC2AAD2AAF2AEF010A
:10055C003E2B881088158819B42AB82A83120313E5
:10056C000815BB2A8312031308110819BE2AC22AC4
:10057C00831203130814C52A831203130810081ED0
:10058C00C82AC92AD52A881ECC2ACD2AD52A081FC2
:10059C00D02AD12AD52A881BD42AD52AD82AEF01C9
:1005AC00EF0A3E2B081188158819DD2AE12A8312DF
:1005BC0003130814E42A8312031308100818E72AFB
:1005CC00EB2A831203138814EE2A83120313881068
:1005DC00081EF12AF22AFE2A881EF52AF62AFE2A7D
:1005EC00081FF92AFA2AFE2A881BFD2AFE2A032B49
:1005FC000230F0007008EF003E2B88110814081828
:10060C00082B0C2B8312031308150F2B83120313C7
:10061C0008110819122B162B831203138814192B8B
:10062C00831203138810081E1C2B1D2B292B881ECC
:10063C00202B212B292B081F242B252B292B881B06
:10064C00282B292B2E2B0330F0007008EF003E2BAB
:10065C00081E312B322B782A881E352B362B782A04
:10066C00081F392B3A2B782A881F3D2B3E2B782AD2
:10067C00081A412B422B502B881E452B462B502BF6
:10068C00081F492B4A2B502B881F4D2B4E2B502BC0
:10069C00EE018D2B081E532B542B632B881A572BD2
:1006AC00582B632B081F5B2B5C2B632B881F5F2B3A
:1006BC00602B632BEE01EE0A8D2B081E662B672B2D
:1006CC00782B881E6A2B6B2B782B081B6E2B6F2BB1
:1006DC00782B881F722B732B782B0230F00070084C
:1006EC00EE008D2B081E7B2B7C2B8D2B881E7F2BDD
:1006FC00802B8D2B081F832B842B8D2B881B872BFA
:10070C00882B8D2B0330F0007008EE008D2B081E0B
:10071C00902B912B8D2B881E942B952B8D2B081F9A
:10072C00982B992B8D2B881F9C2B9D2B8D2B6F0819
:10073C00F00002300310F00DFF3E031DA02BA03083
:10074C007007F1006E087107F200720884008313C1
:10075C000008080000308312031347020A30031903
:10076C0046020318BA2BBB2BC32B4608303E0A1289
:10077C008A1550220A128A11432D003047020A3082
:10078C0003194602031CCB2BCC2B102C0030470238
:10079C006430031946020318D42BD52B102C0A30C5
:1007AC00F0000030F1004708F3004608F2000A168A
:1007BC008A1187270A128A11710883120313D50034
:1007CC007008D4005508CF005408CE000A30F00051
:1007DC000030F1004708F3004608F2000A128A15AF
:1007EC00C0210A128A11710883120313D1007008F8
:1007FC00D0005008303E0A128A1550220A128A1173
:10080C00831203134E08303E0A128A1550220A1224
:10081C008A11432D00304702643003194602031C31
:10082C00182C192C902C03304702E830031946027F
:10083C000318212C222C902C0A30F0000030F100EF
:10084C004708F3004608F2000A168A1187270A1295
:10085C008A11710883120313D5007008D4000A3072
:10086C00F0000030F1004708F3004608F2000A12CD
:10087C008A15C0210A128A11710883120313D3003E
:10088C007008D2005508CF005408CE000A30F00092
:10089C000030F1005308F3005208F2000A168A11D6
:1008AC0087270A128A11710883120313D500700866
:1008BC00D4005508D1005408D0000A30F0000030A4
:1008CC00F1005308F3005208F2000A128A15C021F5
:1008DC000A128A11710883120313CD007008CC0020
:1008EC004C08303E0A128A1550220A128A118312C1
:1008FC0003135008303E0A128A1550220A128A112C
:10090C00831203134E08303E0A128A1550220A1223
:10091C008A11432D03304702E83003194602031CA9
:10092C00982C992C432D273047020F30031946027F
:10093C000318A12CA22C432D0A30F0000030F1003A
:10094C004708F3004608F2000A168A1187270A1294
:10095C008A11710883120313D5007008D4000A3071
:10096C00F0000030F1004708F3004608F2000A12CC
:10097C008A15C0210A128A11710883120313D3003D
:10098C007008D2005508CF005408CE000A30F00091
:10099C000030F1005308F3005208F2000A168A11D5
:1009AC0087270A128A11710883120313D500700865
:1009BC00D4005508D1005408D0000A30F0000030A3
:1009CC00F1005308F3005208F2000A128A15C021F4
:1009DC000A128A11710883120313CB007008CA0023
:1009EC000A30F0000030F1004B08F3004A08F20026
:1009FC000A168A1187270A128A11710883120313A7
:100A0C00D5007008D4005508CD005408CC000A302D
:100A1C00F0000030F1004B08F3004A08F2000A1213
:100A2C008A15C0210A128A11710883120313C90096
:100A3C007008C8004808303E0A128A1550220A1263
:100A4C008A11831203134C08303E0A128A15502265
:100A5C000A128A11831203135008303E0A128A15A7
:100A6C0050220A128A11831203134E08303E0A12C6
:100A7C008A1550220A128A11432D080073088039F6
:100A8C0083120313A0002008F8007308A0002007AD
:100A9C00A1002108FA00F21F542D552D562D7A1461
:100AAC007A0803195A2D5B2D6B2D7A0A031D5F2DC5
:100ABC00602D682D0030F3000030F2000030F100A2
:100ACC000030F000F217F301732D0030F30000300A
:100ADC00F2000030F1000030F00077088039A000FF
:100AEC002008F9007908780603197D2D7E2D7F2DBD
:100AFC0078177708A0002007A1002108F900F61F3D
:100B0C00882D892D8A2D7914790803198E2D8F2D16
:100B1C009F2D790A031D932D942D9C2D0030F700E9
:100B2C000030F6000030F5000030F400F617F70145
:100B3C00A72D0030F7000030F6000030F500003033
:100B4C00F4007A0879020318AC2DAD2DF12D781F25
:100B5C00B02DB12DB52D8030A0002008F8067A08F4
:100B6C00A0002008FB007908A0002008FA007B08F0
:100B7C00A0002008F9007008A0002008FB007408F1
:100B8C00A0002008F0007B08A0002008F4007108E9
:100B9C00A0002008FB007508A0002008F1007B08CD
:100BAC00A0002008F5007208A0002008FB007608C1
:100BBC00A0002008F2007B08A0002008F6007308B3
:100BCC00A0002008FB007708A0002008F3007B0899
:100BDC00A0002008F700FB017908A000A101210862
:100BEC00A3007A082002A200031CA3032308803A66
:100BFC00FF0080307F02031D052E1A302202031CD9
:100C0C00082E092E4A2E7308720471047004031DF9
:100C1C00102E122E0130132E003083120313A0005D
:100C2C002008FB000030F3000030F2000030F1002F
:100C3C000030F0007908A0002008FA00502E7B1C30
:100C4C00282E292E342E7B0883120313A0000310A8
:100C5C00200C0138A1002108FB00362E0310FB0CE0
:100C6C00701C392E3A2E3B2EFB17013083120313C6
:100C7C00A000730DF30CF20CF10CF00CA00B3F2E3A
:100C8C000130A0002008FA0779087A02031C4F2EC5
:100C9C00502E252E781B532E542EA32E7A08031D6E
:100CAC00582E592E622E0030F3000030F200003026
:100CBC00F1000030F000DB2F7408F0077508031109
:100CCC000318013E03196B2EF10776080311031864
:100CDC00013E0319722EF207770803110318013E27
:100CEC000319792EF307731C7C2E7D2E5B2F7B1C36
:100CFC00802E812E8C2E7B0883120313A0000310F0
:100D0C00200C0138A1002108FB008E2E0310FB0CD7
:100D1C00701C912E922E932EFB170130831203130D
:100D2C00A000730DF30CF20CF10CF00CA00B972E31
:100D3C000130A0002008FA075B2F7308803AFF00EF
:100D4C007708803A7F02031DB52E76087202031DC8
:100D5C00B52E75087102031DB52E740870020318A8
:100D6C00B82EB92E132FFF3083120313A000FF30BF
:100D7C00A100FF30A200FF30A3007408A400750886
:100D8C00A5007608A6007708A7007008A4027108D1
:100D9C00031C710FD22ED32EA5027208031C720FE6
:100DAC00D82ED92EA6027308031C730FDE2EDF2E4D
:100DBC00A7022408A00725080318250FE62EE72E06
:100DCC00A10726080318260FEC2EED2EA2072708E4
:100DDC000318270AA3072308F3002208F2002108AE
:100DEC00F1002008F0008030A0002008F806FB0974
:100DFC00FB0A7B08031D032F042F212F0130F00762
:100E0C00003003180130F107003003180130F207ED
:100E1C00003003180130F307212F7408F002750815
:100E2C00031C750FF1027608031C760FF20277088B
:100E3C00031C770FF3027308720471047004031D12
:100E4C00282F292F572F7B08031D2D2F2E2F572F7F
:100E5C000030F3000030F2000030F1000030F00000
:100E6C00DB2F013083120313A0000310F00DF10DE2
:100E7C00F20DF30DA00B3B2FFB1F452F462F472FD9
:100E8C0070147B1C4A2F4B2F4E2F0314FB0D502F2D
:100E9C000310FB0D7A080319542F552F572F0130CF
:100EAC00FA02F21F5A2F5B2F372FF901FB1F5F2F0E
:100EBC00602F6E2F7B087F390319652F662F692FE2
:100ECC00F901F90A6E2F701C6C2F6D2F6E2F662F87
:100EDC0079080319722F732FA92F0130F0070030F6
:100EEC0003180130F107003003180130F20700300D
:100EFC0003180130F307731C842F852FA92F70085A
:100F0C0083120313A0007108A1007208A2007308D9
:100F1C00A3000130A400230DA30CA20CA10CA00C67
:100F2C00A40B912F2308F3002208F2002108F100F2
:100F3C002008F0007A0A0319A42FA52FA92F01303D
:100F4C00A0002008FA077A0A0319AD2FAE2FB32F91
:100F5C007A08031DB22FB32FC12F0030F3000030DD
:100F6C00F2000030F1000030F0007A08031DBF2FB2
:100F7C00C02FC12FF8017A1CC42FC52FC72FF21711
:100F8C00CD2F7F3083120313A0002008F2057A08BE
:100F9C0083120313A0000310200CA1002108F300FE
:100FAC00F81FD92FDA2FDB2FF31708008313D43057
:100FBC00FD000930FE004B30FF00A03084000A1603
:100FCC008A1120270A128A1183160313D401D50122
:100FDC00D601D701D80183120313E701E801E90117
:100FEC00EA01EB01EC01ED01EE01EF0183010A12C4
:100FFC008A15772C45346E3474346534723420344D
:10100C00743468346534203442346F34623462345E
:10101C0069346E342034533469347A3465343A3458
:10102C00003449346E34763461346C34693464344D
:10103C0020344434613474346134203449346E3493
:10104C0070347534743421342134003445346E34A6
:10105C007434653472342034743468346534203418
:10106C0043346F3469346C342034533469347A34F7
:10107C0065343A34003445346E3474346534723427
:10108C00203474346834653420344E346F342E3448
:10109C0020345434753472346E3473343A3400342E
:1010AC002034203420342034203420344D34413446
:1010BC004334483449344E344534203420342034BD
:1010CC002034203420340034213421342034203492
:1010DC0020342034573445344C3443344F344D345D
:1010EC00453420342034203420342134213400344D
:1010FC005434523441344E34533446344F345234D5
:10110C004D34453452342034573449344E344434FD
:10111C0049344E344734003454346F3474346134AD
:10112C006C3420344E346F342E34203454347534B3
:10113C0072346E3473343A342034003454346F3493
:10114C00743461346C342034543469346D34653403
:10115C002034543461346B3465346E343A34003496
:10116C00573469346E34643469346E3467342034E3
:10117C0043346F346D3470346C346534743465348A
:10118C0073340034543469346D346534203452343F
:10119C0065346D34613469346E3469346E3467345B
:1011AC003A34003445346E347434653472346534F6
:1011BC006434203444346134743461343A3420342B
:1011CC000034573469346E34643469346E346734A3
:1011DC0020345334743461347234743473340034C2
:1011EC0042346F346234623469346E342034533494
:1011FC0069347A3465343A342034003454346F34DE
:10120C00743461346C342034543469346D34653442
:10121C003A342034003443346F3469346C34203421
:10122C00533469347A3465343A34203400345434C9
:10123C0069346D3465342F345434753472346E34EF
:10124C003A3420340034503472346F34633465349F
:10125C006534643469346E34673400342034533468
:10126C00653463346F346E34643473342E34003428
:10127C005334653463346F346E34643473340034F3
:101296000734083409342F340434053406342A3428
:1012A6000134023403342D34433400343D342B34BA
:1012B6002D341434053407342D340F3407340634F2
:1012C6002D340A3408340534173414340334043402
:1012D60017340F340334033417340A340434023415
:1012E600113414340134033411340F34023402340B
:1012F60011340A340234013401300A128A150422E8
:101306000A128A1580300A128A1504220A128A15D0
:101316006A30F3008830F4000A128A1106200A1295
:101326008A1594300A128A1504220A128A157E300A
:10133600F3008830F4000A128A1106200A128A1570
:10134600D4300A128A1504220A128A155630F3007E
:101356008830F4000A128A1106200A128A151A30F9
:10136600F7005E30F6006E30F500F50BB829F60B87
:10137600B829F70BB82900000800F501F601700836
:1013860071040319C729C829FF29F701F70AD629C5
:1013960001300310F00DF10DFF3E031DCC29013085
:1013A600F4007408F707F11FD929DA29CB2901308F
:1013B6000310F50DF60DFF3E031DDB2971087302C0
:1013C600031DE72970087202031CEA29EB29F2299A
:1013D6007008F2027108031CF303F302751401305E
:1013E6000310F10CF00CFF3E031DF3290130F70248
:1013F600031DFE29FF29DA297608F1007508F00099
:101406000800F2008312031307114130F100EE3099
:10141600F000F00B0C2AF10B0C2A00007208831264
:101426000313870087154130F100EE30F000F00B12
:101436001A2AF10B1A2A000083120313871141306E
:10144600F100EE30F000F00B262AF10B262A000000
:101456007208F00003300310F00DFF3E031D2E2A24
:101466000310700D8312031387000711871541308F
:10147600F100EE30F000F00B3E2AF10B3E2A0000A0
:101486008312031387114130F100EE30F000F00BA8
:101496004A2AF10B4A2A00000800F20083120313BD
:1014A60007154130F100EE30F000F00B582AF10B31
:1014B600582A0000720883120313870087154130EB
:1014C600F100EE30F000F00B662AF10B662A000000
:1014D6008312031387114130F100EE30F000F00B58
:1014E600722AF10B722A00007208F0000330031012
:1014F600F00DFF3E031D7A2A0310700D83120313AD
:101506008700071587154130F100EE30F000F00B2B
:101516008A2AF10B8A2A00008312031387114130AD
:10152600F100EE30F000F00B962AF10B962A00003F
:10153600080000307005F80000307105F9008030B1
:101546007205FA007F307305FB007B087A04790484
:101556007804031DAF2AB02AB82A0030F300003001
:10156600F2000030F1000030F00000307405F800A1
:1015760000307505F90080307605FA007F30770572
:10158600FB007B087A0479047804031DCB2ACC2A55
:10159600D42A0030F7000030F6000030F5000030A5
:1015A600F40077087306031DE22A76087206031D07
:1015B600E22A75087106031DE22A740870060319EB
:1015C600E52AE62AE82A0310E92A0314080083120A
:1015D60003132308F3002208F2002108F100200873
:1015E600F0000030F7000030F6000030F500003063
:1015F600F4000A128A159C220A128A15031C042B6F
:10160600052B0E2B831203132408840083138001F9
:10161600840A80013D2B8312031323087F39FC00C3
:10162600FD010310FC0DFD0D240884007C088313C6
:101636008000840A7D088000220D220D0139FC00FD
:10164600FD01240884007C088004840A7D08800447
:101656002408840082308007840F00080318000ADB
:10166600FF00FF307F0780008403230880393F385E
:10167600A300A2130800831203132E08A3002D084B
:10168600A2002C08A1002B08A0003430AF002F08C0
:10169600A4000A128A15EA220A128A158312031373
:1016A600B51F562B572B602B0030AE000030AD0017
:1016B6000030AC000030AB00992B003035021D30F5
:1016C60003193402031C682B692B6A2B992B2E08ED
:1016D600A3002D08A2002C08A1002B08A0000A12C6
:1016E6008A15F2240A128A15831203132308F300BB
:1016F6002208F2002108F1002008F00001300A1249
:101706008A1546270A128A15730883120313B30033
:101716007208B2007108B1007008B0003308AE005C
:101726003208AD003108AC003008AB000800831267
:1017360003134108AE004008AD003F08AC003E0868
:10174600AB000A128A153E230A128A158312031366
:101756002E08B9002D08B8002C08B7002B08B600D3
:101766004108BD004008BC003F08BB003E08BA0067
:101776000A168A1163270A128A1583120313390877
:10178600C5003808C4003708C3003608C20045083B
:10179600F3004408F2004308F1004208F000410853
:1017A600F7004008F6003F08F5003E08F4000A126C
:1017B6008A1144250A128A15730883120313C1007D
:1017C6007208C0007108BF007008BE004108AE0074
:1017D6004008AD003F08AC003E08AB000A128A156F
:1017E6003E230A128A15831203132E08C1002D0800
:1017F600C0002C08BF002B08BE00080001300A12EA
:101806008A1504220A128A1580300A128A150422C1
:101816000A128A15E730F3008830F4000A128A119A
:1018260006200A128A1594300A128A1504220A1210
:101836008A15C830F3008830F4000A128A1106208F
:101846000A128A15D8300A128A1504220A128A1533
:101856003E30F3008930F4000A128A1106200A127B
:101866008A158312031306165708DC005608DB0098
:101876005C08803AFF0080307F02031D442C013053
:101886005B020318472C482C492C722C1A30831201
:101896000313DA005E30D9006D30D800D80B512C16
:1018A600D90B512CDA0B512C582CD4300A128A152C
:1018B60004220A128A15831203135C08C7005B0808
:1018C600C6000A128A11B0230A128A15FF30831243
:1018D6000313DB070318DC0AFF30DC073B2C8312FB
:1018E6000313861406120800831603138601870164
:1018F6000A168A1144270A128A150A128A157F21A6
:101906000A128A150A168A110A270A128A150A1253
:101916008A112C200A128A150A128A111A210A1211
:101926008A150A168A11C1270A128A158312031309
:10193600E3006308E50065080A128A15F7250A120E
:101946008A15831203136D08E3006308F000650827
:101956000A168A112F270A128A1583120313E40026
:101966006408E6006608E3006308D60065080A1204
:101976008A158C260A128A15831203136608E30059
:10198600E4016308F0006408F1000A168A111227C0
:101996000A128A158312031366080319D32CD42C52
:1019A6008A2C6608E300E4016308D6006408D700C1
:1019B6000A128A1501240A128A158312031366086D
:1019C600E300E4016308D6006408D7000A128A150A
:1019D6006E250A128A15EE2C0A128A1100280310A7
:1019E60083120313220D230DA4002408AA002A083B
:1019F600031DFE2CFF2C082D0030A3000030A20092
:101A06000030A1000030A0006D2D2008A4002108A0
:101A1600A5002208A6002308A7001F300310A70C64
:101A2600A60CA50CA40CFF3E031D112D2408A8002E
:101A36002808A900A217FF30A005FF30A105FF3036
:101A4600A2050030A3059630AA02AA1F2B2D2C2D25
:101A5600462D2A08803A973E0318322D332D342D11
:101A6600FF2C01300310A30CA20CA10CA00CFF3E0E
:101A7600031D352D0130A4002408AA07031D442D9B
:101A8600452D342D5D2D20302A02031C4B2D4C2D67
:101A9600582DFF2C0130A4000310A00DA10DA20D9E
:101AA600A30DA40B4F2D0130AA022A08031D5C2D9D
:101AB6005D2D4D2D29080319612D622D6D2DA0096F
:101AC600A109A209A309A00A0319A10A0319A20AD6
:101AD6000319A30A080001300A128A1504220A1201
:101AE6008A1580300A128A1504220A128A15B6301F
:101AF600F3008830F4000A128A1106200A128A15A9
:101B060094300A128A1504220A128A15A430F300A8
:101B16008830F4000A128A1106200A128A15D43077
:101B26000A128A1504220A128A158312031356080A
:101B3600F0005708F100F201F30100300A128A158D
:101B460046270A128A15730883120313DE007208E9
:101B5600DD007108DC007008DB005E08C1005D086E
:101B6600C0005C08BF005B08BE000A128A159A23F3
:101B76000A128A15831203134108E2004008E100A5
:101B86003F08E0003E08DF006208A3006108A200EB
:101B96006008A1005F08A0000A128A15F2240A1242
:101BA6008A15831203132108C7002008C6000A12EB
:101BB6008A11B0230A128A153430F3008930F400F2
:101BC6000A128A1106200A128A154D30831203134F
:101BD600DA001930D9004F30D800D80BF02DD90BC8
:101BE600F02DDA0BF02D080083120313D900013013
:101BF6000A128A1504220A128A1580300A128A15D8
:101C060004220A128A15D830F3008830F4000A122A
:101C16008A1106200A128A15C0300A128A15042271
:101C26000A128A15F630F3008830F4000A128A1177
:101C360006200A128A15CC300A128A1504220A12C4
:101C46008A1583160313570883120313D600D70188
:101C56005608C6005708C7000A128A11B0230A128E
:101C66008A1594300A128A1504220A128A1511302E
:101C7600F3008930F4000A128A1106200A128A1526
:101C8600A0300A128A1504220A128A158316031333
:101C9600560883120313D600D7015608C600570804
:101CA600C7000A128A11B0230A128A15D4300A1202
:101CB6008A1504220A128A159230F3008830F4003D
:101CC6000A128A1106200A128A15E4300A128A15A7
:101CD60004220A128A15831203135908D600D70163
:101CE6005608C6005708C7000A128A11B0230A12FE
:101CF6008A151A3083120313D8005E30D7006D3070
:101D0600D600D60B842ED70B842ED80B842E8B2E82
:101D1600080083120313DA0001300A128A1504221E
:101D26000A128A1580300A128A1504220A128A15A6
:101D36009830F3008830F4000A128A1106200A123D
:101D46008A15831203135A08D700D8015708C6000C
:101D56005808C7000A128A11B0230A128A15C03021
:101D66000A128A1504220A128A151D30F3008930D8
:101D7600F4000A128A1106200A128A158312031326
:101D86006D08D700D8015708C6005808C7000A12C0
:101D96008A11B0230A128A1594300A128A1504226F
:101DA6000A128A150430F3008930F4000A128A11E7
:101DB60006200A128A15831203135608D700D80183
:101DC6005708C6005808C7000A128A11B0230A121B
:101DD6008A15D4300A128A1504220A128A15293065
:101DE600F3008930F4000A128A1106200A128A15B5
:101DF600033083120313D9008A30D8005530D70038
:101E0600D70B032FD80B032FD90B032F2E300A1213
:101E16008A1550220A128A15033083120313D90039
:101E26008A30D8005530D700D70B172FD80B172F6D
:101E3600D90B172F2E300A128A1550220A128A152C
:101E4600033083120313D9008A30D8005530D700E7
:101E5600D70B2B2FD80B2B2FD90B2B2F2E300A124B
:101E66008A1550220A128A15333083120313D900B9
:101E7600BB30D800DF30D700D70B3F2FD80B3F2F12
:101E8600D90B3F2F0800F800780803194B2F4C2F69
:101E9600602FF31F4F2F502F602F7009FA00710922
:101EA600FB007209FC007309FD00FA0A0319FB0A1C
:101EB6000319FC0A0319FD0A682F7308FD0072084E
:101EC600FC007108FB007008FA00730872047104C4
:101ED6007004031D6F2F702F792F0030F300003030
:101EE600F2000030F1000030F000FF2F9630F400D1
:101EF6007408F9008B2F0130F4007408F9070130DB
:101F06000310FD0CFC0CFB0CFA0CFF3E031D832F8B
:101F1600FE307D05031D902F912F7E2FAD2F0130B2
:101F2600F4007408F9070130FA070030031801308D
:101F3600FB07003003180130FC070030031801309E
:101F4600FD0701300310FD0CFC0CFB0CFA0CFF3EE8
:101F5600031DA52FFF307D05031DB22FB32F922F32
:101F6600BF2F0130F9020130F4000310FA0DFB0D0A
:101F7600FC0DFD0DF40BB82FFC1BC22FC32FC92F70
:101F8600023079020318C82FC92FB42F7918CC2F25
:101F9600CD2FD52FFF30FA05FF30FB057F30FC052E
:101FA600FF30FD050310F90C7908F400F501F60180
:101FB600F70118300310F40DF50DF60DF70DFF3E81
:101FC600031DDD2F7408FA047508FB047608FC046B
:101FD6007708FD0478080319F12FF22FF72FF31F66
:101FE600F52FF62FF72FFD177D08F3007C08F2007A
:101FF6007B08F1007A08F0000800FF1B0A2883130B
:102006007F1883170008840A0319FF0A08007F084F
:0E2016007F398A000408840A0319FF0A820039
:102E1400F03083160313880083120313880108001B
:102E2400700871040319172F182F1B2F8312031313
:102E3400861708007E088A007F0882000A168A1115
:102E44001C270A168A118000840A04087D060319C7
:102E54000034FF0A0319FE0A202FF300F201731C49
:102E6400342F352F392F7008F1007108F207031041
:102E7400F00D0310F30C7308031D412F422F312F63
:102E84007208080002300A128A1504220A168A11EE
:102E940028300A128A1504220A168A110E300A12E0
:102EA4008A1504220A168A1106300A128A15042287
:102EB4000A168A1180300A128A1504220A168A1107
:102EC4000800803083120313B9063D08F3003C0860
:102ED400F2003B08F1003A08F0003908F70038081E
:102EE400F6003708F5003608F4000A128A11442562
:102EF4000A168A11730883120313B9007208B80002
:102F04007108B7007008B60008007008710403194E
:102F14008C2F8D2FBC2FF501F50A9B2F0130031048
:102F2400F00DF10DFF3E031D912F0130F4007408E4
:102F3400F507F11F9E2F9F2F902F71087302031D19
:102F4400A52F70087202031CA82FA92FAF2F700899
:102F5400F2027108031CF303F30201300310F10CB5
:102F6400F00CFF3E031DB02F0130F502031DBB2FF3
:102F7400BC2F9F2F7308F1007208F00008000A307C
:102F8400F4007408F000831203136C080A168A1103
:102F94002F270A168A11831203136B07F50075088D
:102FA40083160313D7000A30F4007408F000831268
:102FB40003136A080A168A112F270A168A11831224
:102FC40003136907F500750883160313D6008312EB
:102FD40003136808F4007408F7006708F400740821
:102FE400F8000A30F4007408F00077080A168A1111
:0C2FF4002F270A168A117807F600080043
:08400000FF3FFF3FFF3FFF3FC0
:02400E00FA3F77
:00000001FF
