:060000000A128A11DF2F35
:10000A0003340034831603130716071A0D28112820
:10001A0083160313871514288316031387112830B0
:10002A00831203139400FF3083160313930008000E
:10003A0083120313A901A31F232824283128A00906
:10004A00A109A209A309A00A0319A10A0319A20A6C
:10005A000319A30AA901A90AA71F34283528442885
:10006A00A409A509A609A709A40A0319A50A031937
:10007A00A60A0319A70A0130FD007D08A906003067
:10008A00AD000030AC000030AB000030AA002308FD
:10009A00220421042004031953285428A128A80162
:1000AA00A80A64280130FD000310A00DA10DA20DBD
:1000BA00A30DFD0B59280130FD007D08A807A31FD9
:1000CA006728682857280130FD000310AA0DAB0DD8
:1000DA00AC0DAD0DFD0B6A2823082702031D7F28EE
:1000EA0022082602031D7F2821082502031D7F28D6
:1000FA0020082402031C8228832892282008A402AC
:10010A002108031C210FA5022208031C220FA602A4
:10011A002308031C230FA7022A1401300310A30C7F
:10012A00A20CA10CA00CFF3E031D93280130A802CB
:10013A00031DA028A128682829080319A528A6288C
:10014A00B128AA09AB09AC09AD09AA0A0319AB0A75
:10015A000319AC0A0319AD0A2D08A3002C08A20042
:10016A002B08A1002A08A000080000307A020A30F1
:10017A00031979020318C228C328CB287908303E0C
:10018A000A128A157A240A128A114B2A00307A0234
:10019A000A3003197902031CD328D42818290030FD
:1001AA007A026430031979020318DC28DD28182939
:1001BA000A30F0000030F1007A08F3007908F20002
:1001CA000A128A1500240A128A117108831203136B
:1001DA00AD007008AC002D08A7002C08A6000A3054
:1001EA00F0000030F1007A08F3007908F2000A12F0
:1001FA008A15BA240A128A11710883120313A900F4
:10020A007008A8002808303E0A128A157A240A12B1
:10021A008A11831203132608303E0A128A157A2499
:10022A000A128A114B2A00307A02643003197902C1
:10023A00031C20292129982903307A02E83003195E
:10024A007902031829292A2998290A30F00000304E
:10025A00F1007A08F3007908F2000A128A150024DC
:10026A000A128A11710883120313AD007008AC00D8
:10027A000A30F0000030F1007A08F3007908F20041
:10028A000A128A15BA240A128A11710883120313F0
:10029A00AB007008AA002D08A7002C08A6000A3097
:1002AA00F0000030F1002B08F3002A08F2000A12CD
:1002BA008A1544250A128A11710883120313AD00A4
:1002CA007008AC002D08A9002C08A8000A30F0001C
:1002DA000030F1002B08F3002A08F2000A128A15EE
:1002EA0003260A128A11710883120313A5007008E3
:1002FA00A4002408303E0A128A157A240A128A11A6
:10030A00831203132808303E0A128A157A240A1225
:10031A008A11831203132608303E0A128A157A2498
:10032A000A128A114B2A03307A02E8300319790239
:10033A00031CA029A1294B2A27307A020F3003195E
:10034A0079020318A929AA294B2A0A30F000003099
:10035A00F1007A08F3007908F2000A128A150024DB
:10036A000A128A11710883120313AD007008AC00D7
:10037A000A30F0000030F1007A08F3007908F20040
:10038A000A128A15BA240A128A11710883120313EF
:10039A00AB007008AA002D08A7002C08A6000A3096
:1003AA00F0000030F1002B08F3002A08F2000A12CC
:1003BA008A1544250A128A11710883120313AD00A3
:1003CA007008AC002D08A9002C08A8000A30F0001B
:1003DA000030F1002B08F3002A08F2000A128A15ED
:1003EA0003260A128A11710883120313A3007008E4
:1003FA00A2000A30F0000030F1002308F3002208BE
:10040A00F2000A128A1544250A128A117108831207
:10041A000313AD007008AC002D08A5002C08A40039
:10042A000A30F0000030F1002308F3002208F2003D
:10043A000A128A1503260A128A11710883120313F3
:10044A00A1007008A0002008303E0A128A157A24FA
:10045A000A128A11831203132408303E0A128A15DB
:10046A007A240A128A11831203132808303E0A12C8
:10047A008A157A240A128A11831203132608303E37
:10048A000A128A157A240A128A114B2A08000A12B9
:10049A008A1590230A128A110A128A1107200A124F
:1004AA008A1101300A128A1571230A128A11103030
:1004BA0083120313BB003930BA000D30B900B90BEF
:1004CA00642ABA0B642ABB0B642A0A128A156A26A2
:1004DA000A128A110A128A1533270A128A118316F6
:1004EA0003134C08500783120313E7008316031300
:1004FA004D0803184D0A510783120313E8008316A7
:10050A0003134408480783120313E50083160313F1
:10051A0045080318450A490783120313E6008316A0
:10052A0003133C08400783120313E30083160313E3
:10053A003D0803183D0A410783120313E4005D08CE
:10054A0083160313380783120313E1005E080318A6
:10055A005E0A83160313390783120313E20060301D
:10056A00B900F030BA00FF30BB00FF30BC00831680
:10057A0003132C0883120313B907831603132D08D8
:10058A0003182D0FC92ACC2A83120313BA0783161C
:10059A0003132E0803182E0FD32AD62A8312031305
:1005AA00BB07831603132F0803182F0A831203139A
:1005BA00BC073C08DC003B08DB003A08DA003908D3
:1005CA00D9000030A3000030A2001030A100003092
:1005DA00A0005C08F3005B08F2005A08F100590811
:1005EA00F0005C08F7005B08F6005A08F5005908A5
:1005FA00F4000A128A15FE240A128A117308831259
:10060A000313A7007208A6007108A5007008A400C9
:10061A000A128A111D200A128A118312031323084F
:10062A00CC002208CB002108CA002008C9000030EB
:10063A00A3000030A2000830A1000030A0004C083E
:10064A00F3004B08F2004A08F1004908F00083164B
:10065A0003133708F7003608F6003508F5003408A2
:10066A00F4000A128A15FE240A128A1173088312E8
:10067A000313A7007208A6007108A5007008A40059
:10068A000A128A111D200A128A11831203132308DF
:10069A00D4002208D3002108D2002008D10000305B
:1006AA00A3000030A2000830A1000030A0006508B5
:1006BA00F0006608F1000030F11BFF30F200F30091
:1006CA005C08F7005B08F6005A08F5005908F400C0
:1006DA000A128A15FE240A128A1173088312031356
:1006EA00A7007208A6007108A5007008A4000A12E3
:1006FA008A111D200A128A11831203132308D000BB
:10070A002208CF002108CE002008CD0051084D074D
:10071A00B9000030031801305207BB010318BB0AA5
:10072A004E07BA000318BB0A53083B07BC0103185B
:10073A00BC0A4F07BB000318BC0A54083C07500701
:10074A00BC003C0883160313A300831203133B085F
:10075A0083160313A200831203133A0883160313A2
:10076A00A10083120313390883160313A000003073
:10077A0083120313A3000030A2000030A10004304A
:10078A00A0000230B9000030BA000030BB000030CF
:10079A00BC0083160313200883120313BD008316BB
:1007AA000313210883120313BE00831603132208BE
:1007BA0083120313BF008316031323088312031340
:1007CA00C0006808C2006708C1000310C10DC20D4D
:1007DA000310C10DC20D4108C3004208C400003015
:1007EA00C41BFF30C500C6004308BD0744080318F0
:1007FA00440F002C012CBE0745080318450F062C90
:10080A00072CBF0746080318460AC0076D0A122CB0
:10081A000310BD0DBE0DBF0DC00DFF3E031D0D2CF7
:10082A003D08B9073E0803183E0F1C2C1D2CBA07B9
:10083A003F0803183F0F222C232CBB07400803183C
:10084A00400ABC073C08A7003B08A6003A08A500D6
:10085A003908A4000A128A111D200A128A11831269
:10086A000313230883160313B30083120313220806
:10087A0083160313B200831203132108831603138A
:10088A00B10083120313200883160313B00000304B
:10089A0083120313A3000030A2002030A10000300D
:1008AA00A0006308F0006408F1000030F11BFF307B
:1008BA00F200F3005C08F7005B08F6005A08F5003E
:1008CA005908F4000A128A15FE240A128A117308BA
:1008DA0083120313A7007208A6007108A500700806
:1008EA00A4000A128A111D200A128A118312031304
:1008FA002308D4002208D3002108D2002008D100FE
:10090A000030A3000030A2001030A1000030A00087
:10091A005C08F3005B08F2005A08F1005908F0007D
:10092A005C08F7005B08F6005A08F5005908F4005D
:10093A000A128A15FE240A128A11730883120313F3
:10094A00A7007208A6007108A5007008A4000A1280
:10095A008A111D200A128A11831203132308CC005C
:10096A002208CB002108CA002008C9000030A300D1
:10097A000130A2000030A1000030A0004C08F300B2
:10098A004B08F2004A08F1004908F0006008F70035
:10099A005F08F6005E08F5005D08F4000A128A1581
:1009AA00FE240A128A11730883120313A70072081D
:1009BA00A6007108A5007008A4000A128A111D2059
:1009CA000A128A11831203132308D0002208CF00C7
:1009DA002108CE002008CD000030A3000030A2007C
:1009EA000030A1000430A0000230B9000030BA0083
:1009FA000030BB000030BC0051084D07BD0000307C
:100A0A00031801305207BF010318BF0A4E07BE0080
:100A1A000318BF0A53083F07C0010318C00A4F074B
:100A2A00BF000318C00A540840075007C0003D0819
:100A3A00B9073E0803183E0F232D242DBA073F0895
:100A4A0003183F0F292D2A2DBB0740080318400A17
:100A5A00BC073C08A7003B08A6003A08A5003908CD
:100A6A00A4000A128A111D200A128A118312031382
:100A7A00230883160313A300831203132208831681
:100A8A000313A20083120313210883160313A10080
:100A9A0083120313200883160313A0000030831265
:100AAA000313B9008030BA000030BB000030BC002C
:100ABA0083160313200883120313B907831603133B
:100ACA0021080318210F6A2D6D2D83120313BA070B
:100ADA008316031322080318220F742D772D83120D
:100AEA000313BB078316031323080318230A83126D
:100AFA000313BC073C08F3003B08F2003A08F10074
:100B0A003908F0006108F4006208F500F601F701FF
:100B1A000A128A15FE240A128A1170088312031314
:100B2A00BD007108BE007208BF007308C0000F3014
:100B3A000310C00CBF0CBE0CBD0CFF3E031D9D2D47
:100B4A00400883160313AB00831203133F0883166E
:100B5A000313AA00831203133E0883160313A90082
:100B6A00831203133D0883160313A8002408831273
:100B7A000313B90083160313250883120313BA005B
:100B8A0083160313260883120313BB008316031369
:100B9A00270883120313BC00831603133008831239
:100BAA000313B902831603133108031C310FDE2D18
:100BBA00E12D83120313BA02831603133208031CAE
:100BCA00320FE82DEB2D83120313BB028316031396
:100BDA003308031C330FF22DF52D83120313BC02C5
:100BEA0083160313831203133C08F3003B08F20035
:100BFA003A08F1003908F0006D0ABD005030BE0015
:100C0A00C330BF000030C0000030C100112E410DBA
:100C1A00C10CC00CBF0CBE0CBD0B0C2E4108F7005A
:100C2A004008F6003F08F5003E08F4000A128A154B
:100C3A00FE240A128A11730883120313D800720859
:100C4A00D7007108D6007008D50080305802031DFD
:100C5A003A2E00305702031D3A2E00305602031D69
:100C6A003A2E00305502031D3A2E03183D2E3E2E11
:100C7A00632E831603132B08F3002A08F2002908AF
:100C8A00F1002808F000031083120313550DF40035
:100C9A00560DF500570DF600580DF7000A128A1581
:100CAA009D250A128A11730883120313EC00720835
:100CBA00EB007108EA007008E900872E8316031317
:100CCA002B08F3002A08F2002908F1002808F0008E
:100CDA00831203135808F7005708F6005608F50060
:100CEA005508F4000A128A159D250A128A11031062
:100CFA00700D83120313E900710DEA00720DEB0007
:100D0A00730DEC000030A3000030A2000130A100F6
:100D1A000030A0006C08A7006B08A6006A08A500AE
:100D2A006908A4000A128A111D200A128A11831264
:100D3A0003132308F3002208F2002108F100200817
:100D4A00F0000030A3000030A2000130A100003002
:100D5A00A0006C08A7006B08A6006A08A50069082D
:100D6A00A4000A128A111D200A128A11831203137F
:100D7A002308F7002208F6002108F5002008F400ED
:100D8A000A128A15FE240A128A117308831203139F
:100D9A00D4007208D3007108D2007008D100003064
:100DAA00A3000130A2000030A1000030A0005408C6
:100DBA00F3005308F2005208F1005108F000003025
:100DCA00F7000030F6000B30F500DE30F4000A12AE
:100DDA008A15FE240A128A11730883120313A700C4
:100DEA007208A6007108A5007008A4000A128A11E8
:100DFA001D200A128A11831203132308D400220821
:100E0A00D3002108D2002008D1000030A30001300D
:100E1A00A2000030A1000030A0006C08F3006B08AB
:100E2A00F2006A08F1006908F000FF30F700FF30AD
:100E3A00F600E330F5004330F4000A128A15FE2466
:100E4A000A128A11730883120313A7007208A600F4
:100E5A007108A5007008A4000A128A111D200A123E
:100E6A008A11831203132308D0002208CF00210815
:100E7A00CE002008CD000030A3000030A2000030D0
:100E8A00A1001030A000CF30B9000E30BA000030F7
:100E9A00BB000030BC0051084D07BD0000300318EC
:100EAA0001305207BF010318BF0A4E07BE000318DC
:100EBA00BF0A53083F07C0010318C00A4F07BF0003
:100ECA000318C00A540840075007C0003D08B90774
:100EDA003E0803183E0F722F732FBA073F080318F4
:100EEA003F0F782F792FBB0740080318400ABC0729
:100EFA003C08A7003B08A6003A08A5003908A40048
:100F0A000A128A111D200A128A1183120313200859
:100F1A006907C1000030031801302107C301031813
:100F2A00C30A6A07C2000318C30A22084307C40196
:100F3A000318C40A6B07C3000318C40A230844072A
:100F4A006C07C4004408EC004308EB004208EA00BE
:100F5A004108E9000030A3000030A2000330A100DC
:100F6A00E830A0006C08A7006B08A6006A08A50074
:100F7A006908A4000A128A111D200A128A11831212
:100F8A0003132108C8002008C700C0300A128A15B6
:100F9A003A240A128A11831203134808FA004708EE
:100FAA00F9000A128A11BA200A128A116A2A0A1246
:100FBA008A1100280A128A1105200A128A11ED00E4
:100FCA000A128A1106200A128A11EE008313A0302F
:100FDA008400D7300A128A1509230A128A114D3061
:100FEA0084006D300A128A1509230A128A118301B4
:100FFA000A128A114C2A08308A000408840A8207D5
:10100A00003442344D3450343234383430340034BD
:10160200831203138C1D062B072B012B8C11080050
:1016120064008001840A04060319003404060A2BBC
:101622008316031391140A128A1501230A128A15CA
:1016320008008316031311150A128A1501230A12D0
:101642008A1508008316031311140A128A1501233E
:101652000A128A15080083160313911611160A122C
:101662008A1501230A128A1508008316031391159D
:101672000A128A1501230A128A1583120313130808
:101682000800F00070088312031393000A128A15EF
:1016920001230A128A1583160313111B512B522B95
:1016A200432B0800F2000A128A1523230A128A1514
:1016B200EE300A128A1542230A128A1572080A1299
:1016C2008A1542230A128A1571080A128A154223C0
:1016D2000A128A150A128A151A230A128A15080092
:1016E200F400832B740884000A128A1500200A125F
:1016F2008A150A128A157A240A128A150130F30011
:101702007308F407740884000A128A1500200A126A
:101712008A15003A031D8E2B8F2B732B080083161C
:10172200031386130613861206120710871002305F
:101732000A128A153A240A128A1528300A128A15C0
:101742003A240A128A1580300A128A153A240A1299
:101752008A150C300A128A153A240A128A150630A2
:101762000A128A153A240A128A1501300A128A15B7
:101772003A240A128A154130F400EE30F300F30BDA
:10178200C02BF40BC02B00000800F2000A128A15CD
:1017920011230A128A15EE308312031393000A12E0
:1017A2008A1501230A128A1583160313111BDA2BD9
:1017B200DB2BC72B72080A128A1542230A128A15DA
:1017C2000A128A1511230A128A15EF300A128A1593
:1017D20042230A128A150A128A1536230A128A1518
:1017E200F1007108F3000A128A152C230A128A15D5
:1017F2000A128A151A230A128A1573080800700839
:1018020071040319052C062C352CF501F50A142C4C
:1018120001300310F00DF10DFF3E031D0A2C0130C3
:10182200F4007408F507F11F172C182C092C710805
:101832007302031D1E2C70087202031C212C222C21
:10184200282C7008F2027108031CF303F302013022
:101852000310F10CF00CFF3E031D292C0130F502A0
:10186200031D342C352C182C7308F1007208F0007B
:101872000800F2008312031307107208860087140F
:101882004130F100EE30F000F00B452CF10B452C0D
:1018920000008312031387104130F100EE30F00094
:1018A200F00B512CF10B512C00007208F0000330A8
:1018B2000310F00DFF3E031D592C0310700D83120F
:1018C2000313860087144130F100EE30F000F00B74
:1018D200682CF10B682C000083120313871041302F
:1018E200F100EE30F000F00B742CF10B742C0000C0
:1018F2000800F2008312031307147208860087148B
:101902004130F100EE30F000F00B852CF10B852C0C
:1019120000008312031387104130F100EE30F00013
:10192200F00B912CF10B912C00007208F0000330A7
:101932000310F00DFF3E031D992C0310700D83124E
:101942000313860087144130F100EE30F000F00BF3
:10195200A82CF10BA82C000083120313871041302E
:10196200F100EE30F000F00BB42CF10BB42C0000BF
:101972000800F501F601700871040319C12CC22C8C
:10198200F92CF701F70AD02C01300310F00DF10DFC
:10199200FF3E031DC62C0130F4007408F707F11F47
:1019A200D32CD42CC52C01300310F50DF60DFF3EBF
:1019B200031DD52C71087302031DE12C70087202FD
:1019C200031CE42CE52CEC2C7008F2027108031CB9
:1019D200F303F302751401300310F10CF00CFF3E17
:1019E200031DED2C0130F702031DF82CF92CD42C29
:1019F2007608F1007508F00008000030FC000030A5
:101A0200FB000030FA000030F900701C092D0A2D8D
:101A1200212D7408F907750803110318013E0319F3
:101A2200132DFA07760803110318013E03191A2D24
:101A3200FB07770803110318013E0319212DFC0748
:101A42000130F8000310F40DF50DF60DF70DF80B4B
:101A5200232D01300310F30CF20CF10CF00CFF3EBD
:101A6200031D2B2D7308720471047004031D3A2D9B
:101A72003B2D062D7C08F3007B08F2007A08F1006A
:101A82007908F0000800F601F31F482D492D502D6A
:101A9200F209F309F20A0319F30AF601F60AF11F31
:101AA200532D542D592DF009F109F00A0319F10AA9
:101AB2007008710403195E2D5F2D8E2DF501F50A54
:101AC2006D2D01300310F00DF10DFF3E031D632D4E
:101AD2000130F4007408F507F11F702D712D622D8D
:101AE20071087302031D772D70087202031C7A2D90
:101AF2007B2D812D7008F2027108031CF303F3029F
:101B020001300310F10CF00CFF3E031D822D013059
:101B1200F502031D8D2D8E2D712D76080319922D40
:101B2200932D982DF209F309F20A0319F30A7308A7
:101B3200F1007208F00008000030FC000030FB00E9
:101B42000030FA000030F900730872047104700466
:101B52000319AC2DAD2DFA2DFD01FD0ABD2D01306D
:101B6200F8000310F00DF10DF20DF30DF80BB22D8C
:101B72000130F8007808FD07F31FC02DC12DB02DEC
:101B82000130F8000310F90DFA0DFB0DFC0DF80BF6
:101B9200C32D73087702031DD82D72087602031D28
:101BA200D82D71087502031DD82D70087402031C0C
:101BB200DB2DDC2DEB2D7008F4027108031C710F74
:101BC200F5027208031C720FF6027308031C730FEE
:101BD200F702791401300310F30CF20CF10CF00C43
:101BE200FF3E031DEC2D0130FD02031DF92DFA2DE0
:101BF200C12D7C08F3007B08F2007A08F100790815
:101C0200F0000800F601F11F072E082E0F2EF00932
:101C1200F109F00A0319F10AF601F60AF31F122E6E
:101C2200132E1C2EF209F309F20A0319F30A0130EA
:101C3200F4007408F606F701F8017008710403193C
:101C4200232E242E5B2EF501F50A322E01300310CD
:101C5200F00DF10DFF3E031D282E0130F400740833
:101C6200F507F11F352E362E272E01300310F70D02
:101C7200F80DFF3E031D372E71087302031D432E1C
:101C820070087202031C462E472E4E2E7008F20276
:101C92007108031CF303F302771401300310F10CF3
:101CA200F00CFF3E031D4F2E0130F502031D5A2E8C
:101CB2005B2E362E760803195F2E602E652EF709ED
:101CC200F809F70A0319F80A7808F1007708F00012
:101CD2000800AA300A128A15C6230A128A15F400CD
:101CE200F501F601F701770883160313D30076088E
:101CF200D2007508D1007408D000AB300A128A15E0
:101D0200C6230A128A15F400F501F601F7017708D5
:101D120083160313CF007608CE007508CD00740831
:101D2200CC00AC300A128A15C6230A128A15F400B6
:101D3200F501F601F701770883160313CB00760845
:101D4200CA007508C9007408C800AD300A128A15A5
:101D5200C6230A128A15F400F501F601F701770885
:101D620083160313C7007608C6007508C5007408F9
:101D7200C400AE300A128A15C6230A128A15F4006C
:101D8200F501F601F701770883160313C3007608FD
:101D9200C2007508C1007408C000AF300A128A156B
:101DA200C6230A128A15F400F501F601F701770835
:101DB20083160313BF007608BE007508BD007408C1
:101DC200BC00B0300A128A15C6230A128A15F40022
:101DD200F501F601F701770883160313BB007608B5
:101DE200BA007508B9007408B800B1300A128A1531
:101DF200C6230A128A15F400F501F601F7017708E5
:101E020083120313E0007608DF007508DE00740811
:101E1200DD00B2300A128A15C6230A128A15F400AE
:101E2200F501F601F701770883160313B700760868
:101E3200B6007508B5007408B400B5300A128A15E8
:101E4200C6230A128A15F400F501F601F701770894
:101E520083160313AF007608AE007508AD00740850
:101E6200AC000800831203136D08A00005300310B4
:101E7200A00DFF3E031D382F0310200D343EA1009C
:101E82002108F100F4300A128A1553230A128A1526
:101E9200623083120313A1006530A000A00B4F2F04
:101EA200A10B4F2FF6300A128A15C6230A128A1581
:101EB20083120313A000A101A201A3012308B00011
:101EC2002208AF002108AE002008AD00F7300A1248
:101ED2008A15C6230A128A1583120313A000A101D0
:101EE200A201A3012308B4002208B3002108B20012
:101EF2002008B100F8300A128A15C6230A128A1580
:101F020083120313A000A101A201A3012308B800B8
:101F12002208B7002108B6002008B5006D08083C69
:101F2200A000A00A3508A1003608A2003708A300C5
:101F32003808A4003108A5003208A6003308A7001B
:101F42003408A80008300310A50DA60DA70DA80D92
:101F5200FF3E031DA42F2D08A9002E08AA002F085A
:101F6200AB003008AC0010300310A90DAA0DAB0D68
:101F7200AC0DFF3E031DB52F2908A5072A0803183B
:101F82002A0FC42FC52FA6072B0803182B0FCA2F01
:101F9200CB2FA7072C0803182C0AA8072508A1078E
:101FA20026080318260FD62FD72FA20727080318B3
:101FB200270FDC2FDD2FA30728080318280AA40700
:101FC200E72F240DA40CA30CA20CA10CA00BE22F52
:101FD200240883160313A70083120313230883160E
:101FE2000313A60083120313220883160313A5000A
:0E1FF20083120313210883160313A4000800B2
:08400000FF3FFF3FFF3FFF3FC0
:02400E00FF3F72
:00000001FF
