:060000000A128A11DF2F35
:1000100003340034F4001C28740884000A128A1582
:1000200000200A128A110A128A11D9200A128A1192
:100030000130F3007308F407740884000A128A156B
:1000400000200A128A11003A031D272828280C28AC
:100050000800831603138613061386120612071070
:10006000871002300A128A1199200A128A11283048
:100070000A128A1199200A128A1180300A128A11F2
:1000800099200A128A110C300A128A1199200A1238
:100090008A1106300A128A1199200A128A11013037
:1000A0000A128A1199200A128A114130F400EE30A6
:1000B000F300F30B5928F40B592800000800F20054
:1000C0000A128A15A1270A128A11EE30831203132D
:1000D00093000A128A1591270A128A1183160313B4
:1000E000111B73287428602872080A128A15D927F0
:1000F0000A128A110A128A15A1270A128A11EF30F0
:100100000A128A15D9270A128A110A128A15BD27DE
:100110000A128A11F1007108F3000A128A15B32736
:100120000A128A110A128A15AA270A128A1173085A
:100130000800F20083120313071072088600871468
:100140004130F100EE30F000F00BA428F10BA428B0
:1001500000008312031387104130F100EE30F000ED
:10016000F00BB028F10BB02800007208F00003304B
:100170000310F00DFF3E031DB8280310700D83120D
:100180000313860087144130F100EE30F000F00BCD
:10019000C728F10BC72800008312031387104130D2
:1001A000F100EE30F000F00BD328F10BD328000063
:1001B0000800F200831203130714720886008714E4
:1001C0004130F100EE30F000F00BE428F10BE428B0
:1001D00000008312031387104130F100EE30F0006D
:1001E000F00BF028F10BF02800007208F00003304B
:1001F0000310F00DFF3E031DF8280310700D83124D
:100200000313860087144130F100EE30F000F00B4C
:100210000729F10B072900008312031387104130CF
:10022000F100EE30F000F00B1329F10B1329000060
:1002300008000030FC000030FB000030FA00003005
:10024000F900701C242925293C297408F907750830
:1002500003110318013E03192E29FA07760803112A
:100260000318013E03193529FB077708031103180A
:10027000013E03193C29FC070130F8000310F40D7E
:10028000F50DF60DF70DF80B3E2901300310F30CB8
:10029000F20CF10CF00CFF3E031D462973087204AA
:1002A00071047004031D5529562921297C08F30087
:1002B0007B08F2007A08F1007908F00008000030AD
:1002C000FC000030FB000030FA000030F900730839
:1002D00072047104700403196E296F29BC29FD0191
:1002E000FD0A7F290130F8000310F00DF10DF20D29
:1002F000F30DF80B74290130F8007808FD07F31F9F
:100300008229832972290130F8000310F90DFA0DB2
:10031000FB0DFC0DF80B852973087702031D9A2944
:1003200072087602031D9A2971087502031D9A2925
:1003300070087402031C9D299E29AD297008F402DF
:100340007108031C710FF5027208031C720FF6028C
:100350007308031C730FF702791401300310F30CB8
:10036000F20CF10CF00CFF3E031DAE290130FD0232
:10037000031DBB29BC2983297C08F3007B08F200FC
:100380007A08F1007908F000080083120313D801FD
:10039000D21FCB29CC29D929CF09D009D109D2091B
:1003A000CF0A0319D00A0319D10A0319D20AD801B6
:1003B000D80AD61FDC29DD29EC29D309D409D509AF
:1003C000D609D30A0319D40A0319D50A0319D60A80
:1003D0000130FD007D08D8060030DC000030DB0075
:1003E0000030DA000030D9005208510450044F04A4
:1003F0000319FB29FC29492AD701D70A0C2A013005
:10040000FD000310CF0DD00DD10DD20DFD0B012A33
:100410000130FD007D08D707D21F0F2A102AFF29BF
:100420000130FD000310D90DDA0DDB0DDC0DFD0BE5
:10043000122A52085602031D272A51085502031D8D
:10044000272A50085402031D272A4F085302031C71
:100450002A2A2B2A3A2A4F08D3025008031C500F8D
:10046000D4025108031C510FD5025208031C520F2D
:10047000D602591401300310D20CD10CD00CCF0C81
:10048000FF3E031D3B2A0130D702031D482A492A9B
:10049000102A580803194D2A4E2A592AD909DA096F
:1004A000DB09DC09D90A0319DA0A0319DB0A031983
:1004B000DC0A5C08D2005B08D1005A08D000590859
:1004C000CF000800AA300A128A115F200A128A118E
:1004D000F400F501F601F701770883120313BF005A
:1004E0007608BE007508BD007408BC00AB300A1267
:1004F0008A115F200A128A11F400F501F601F70152
:10050000770883160313C7007608C6007508C50070
:100510007408C400AC300A128A115F200A128A11D2
:10052000F400F501F601F701770883160313C30001
:100530007608C2007508C1007408C000AD300A1208
:100540008A115F200A128A11F400F501F601F70101
:10055000770883160313BF007608BE007508BD0038
:100560007408BC00AE300A128A115F200A128A1188
:10057000F400F501F601F701770883160313BB00B9
:100580007608BA007508B9007408B800AF300A12CE
:100590008A115F200A128A11F400F501F601F701B1
:1005A000770883160313B7007608B6007508B50000
:1005B0007408B400B0300A128A115F200A128A113E
:1005C000F400F501F601F701770883160313B30071
:1005D0007608B2007508B1007408B000B1300A1294
:1005E0008A115F200A128A11F400F501F601F70161
:1005F000770883120313BB007608BA007508B900A8
:100600007408B800B2300A128A115F200A128A11E7
:10061000F400F501F601F701770883160313AF0024
:100620007608AE007508AD007408AC00B5300A124B
:100630008A115F200A128A11F400F501F601F70110
:10064000770883160313A7007608A6007508A5008F
:100650007408A40008000A128A1129200A128A11BB
:100660000A128A15EA270A128A1101300A128A111F
:100670000A200A128A11103083120313DF00393066
:10068000DE000D30DD00DD0B432BDE0B432BDF0BDB
:10069000432B0A128A1162220A128A110A128A153F
:1006A000C9270A128A11603083120313DD00F0306B
:1006B000DE00FF30DF00FF30E00083160313240864
:1006C00083120313DD078316031325080318250F70
:1006D0006A2B6D2B83120313DE0783160313260880
:1006E0000318260F742B772B83120313DF0783164F
:1006F000031327080318270A83120313E00760086F
:10070000B7005F08B6005E08B5005D08B4000030B1
:10071000D2000030D1001030D0000030CF003708B8
:10072000F3003608F2003508F1003408F00037080D
:10073000F7003608F6003508F5003408F4000A1210
:100740008A1119210A128A11730883120313D60021
:100750007208D5007108D4007008D3000A128A11FB
:10076000C5210A128A11831203135208EC005108A2
:10077000EB005008EA004F08E9000030D2000030DA
:10078000D1000830D0000030CF006C08F3006B08B7
:10079000F2006A08F1006908F000831603132F08BD
:1007A000F7002E08F6002D08F5002C08F4000A12B8
:1007B0008A1119210A128A11730883120313D600B1
:1007C0007208D5007108D4007008D3000A128A118B
:1007D000C5210A128A11831203135208AB00510873
:1007E000AA005008A9004F08A8000030D20000302D
:1007F000D1000830D0000030CF003708F3003608B1
:10080000F2003508F1003408F0000030F700003045
:10081000F6000030F5000030F4000A128A111921A8
:100820000A128A11730883120313D6007208D500C6
:100830007108D4007008D3000A128A11C5210A1267
:100840008A11831203135208A7005108A60050080A
:10085000A5004F08A40028082407DD000030031875
:1008600001302907DF010318DF0A2507DE0003181E
:10087000DF0A2A085F07E0010318E00A2607DF0005
:100880000318E00A2B0860072707E0006008A300B0
:100890005F08A2005E08A1005D08A0000030D20041
:1008A0000030D1000030D0000430CF000230DD0035
:1008B0000030DE000030DF000030E0002008E10002
:1008C0002108E2002208E3002308E4006D0A6D2CF1
:1008D0000310E10DE20DE30DE40DFF3E031D682C56
:1008E0006108DD0762080318620F772C782CDE0799
:1008F00063080318630F7D2C7E2CDF076408031840
:10090000640AE0076008D6005F08D5005E08D400DE
:100910005D08D3000A128A11C5210A128A118312B6
:100920000313520883160313AB00831203135108F9
:1009300083160313AA0083120313500883160313AC
:10094000A900831203134F0883160313A800003075
:1009500083120313D2000030D1002030D0000030C9
:10096000CF003708F3003608F2003508F1003408EC
:10097000F0000030F7000030F6000030F5000030E5
:10098000F4000A128A1119210A128A1173088312BB
:100990000313D6007208D5007108D4007008D30084
:1009A0000A128A11C5210A128A11831203135208EE
:1009B000AB005108AA005008A9004F08A800003059
:1009C000D2000030D1001030D0000030CF00370806
:1009D000F3003608F2003508F1003408F00037085B
:1009E000F7003608F6003508F5003408F4000A125E
:1009F0008A1119210A128A11730883120313D6006F
:100A00007208D5007108D4007008D3000A128A1148
:100A1000C5210A128A11831203135208EC005108EF
:100A2000EB005008EA004F08E9000030D200013026
:100A3000D1000030D0000030CF006C08F3006B080C
:100A4000F2006A08F1006908F0003B08F7003A0874
:100A5000F6003908F5003808F4000A128A11192145
:100A60000A128A11730883120313D6007208D50084
:100A70007108D4007008D3000A128A11C5210A1225
:100A80008A11831203135208A7005108A6005008C8
:100A9000A5004F08A4000030D2000030D100003083
:100AA000D0000430CF000230DD000030DE00003026
:100AB000DF000030E00028082407E10000300318C0
:100AC00001302907E3010318E30A2507E2000318B0
:100AD000E30A2A086307E4010318E40A2607E3008F
:100AE0000318E40A2B0864072707E4006108DD0700
:100AF00062080318620F7D2D7E2DDE076308031840
:100B0000630F832D842DDF0764080318640AE00750
:100B10006008D6005F08D5005E08D4005D08D300E9
:100B20000A128A11C5210A128A118312031352086C
:100B3000A3005108A2005008A1004F08A0000030F7
:100B4000DD008030DE000030DF000030E0002008F3
:100B5000DD0721080318210FAE2DAF2DDE07220877
:100B60000318220FB42DB52DDF0723080318230A1D
:100B7000E0076008F3005F08F2005E08F1005D081E
:100B8000F0000030F7000030F6000030F5000030D3
:100B9000F4000A128A1119210A128A1170088312AC
:100BA0000313E1007108E2007208E3007308E40037
:100BB0000F300310E40CE30CE20CE10CFF3E031DCC
:100BC000D92D6408B3006308B2006208B10061085F
:100BD000B00083160313200883120313DD0083166D
:100BE0000313210883120313DE0083160313220864
:100BF00083120313DF0083160313230883120313E6
:100C0000E00083160313280883120313DD02831602
:100C100003132908031C290F0E2E112E8312031310
:100C2000DE02831603132A08031C2A0F182E1B2E1C
:100C300083120313DF02831603132B08031C2B0FED
:100C4000222E252E83120313E00283160313831230
:100C500003136008F3005F08F2005E08F1005D080E
:100C6000F0006D0AE1005030E200C330E3000030D4
:100C7000E4000030E500412E650DE50CE40CE30CCA
:100C8000E20CE10B3C2E6508F7006408F6006308EF
:100C9000F5006208F4000A128A1119210A128A1159
:100CA000730883120313AF007208AE007108AD0021
:100CB0007008AC0080302F02031D6A2E00302E0217
:100CC000031D6A2E00302D02031D6A2E00302C02F7
:100CD000031D6A2E03186D2E6E2E912E83120313A0
:100CE0003308F3003208F2003108F1003008F00058
:100CF00003102C0DF4002D0DF5002E0DF6002F0D18
:100D0000F7000A128A115F210A128A1173088312EE
:100D10000313CE007208CD007108CC007008CB0020
:100D2000B32E831203133308F3003208F2003108A4
:100D3000F1003008F0002F08F7002E08F6002D080B
:100D4000F5002C08F4000A128A115F210A128A1198
:100D50000310700D83120313CB00710DCC00720DC4
:100D6000CD00730DCE000030D2000030D100013034
:100D7000D0000030CF004E08D6004D08D5004C08FA
:100D8000D4004B08D3000A128A11C5210A128A1115
:100D9000831203135208F3005108F2005008F100C7
:100DA0004F08F0000030D2000030D1000130D000F8
:100DB0000930CF004E08D6004D08D5004C08D400AD
:100DC0004B08D3000A128A11C5210A128A11831214
:100DD00003135208F7005108F6005008F5004F08B9
:100DE000F4000A128A1119210A128A117308831257
:100DF0000313AB007208AA007108A9007008A800CC
:100E00000030D2000130D1000030D0000030CF00DF
:100E10002B08F3002A08F2002908F1002808F00046
:100E20000030F7000030F6000B30F500DE30F40043
:100E30000A128A1119210A128A11730883120313E4
:100E4000D6007208D5007108D4007008D3000A12C9
:100E50008A11C5210A128A11831203135208AB00AA
:100E60005108AA005008A9004F08A8000030D2007D
:100E70000030D1006330D000C030CF004E08F30006
:100E80004D08F2004C08F1004B08F000FF30F7006D
:100E9000FF30F600E330F5004330F4000A128A1107
:100EA00019210A128A11730883120313D6007208DB
:100EB000D5007108D4007008D3000A128A11C52128
:100EC0000A128A11831203135208A7005108A600C0
:100ED0005008A5004F08A4000030D2000030D10017
:100EE0000030D0001030CF00CF30DD000E30DE00FB
:100EF0000030DF000030E00028082407E100003067
:100F0000031801302907E3010318E30A2507E2006B
:100F10000318E30A2A086307E4010318E40A260712
:100F2000E3000318E40A2B0864072707E4006108BC
:100F3000DD0762080318620F9E2F9F2FDE076308EC
:100F40000318630FA42FA52FDF0764080318640A92
:100F5000E0076008D6005F08D5005E08D4005D0891
:100F6000D3000A128A11C5210A128A1183120313AF
:100F70004F084B07E5000030031801305007E70128
:100F80000318E70A4C07E6000318E70A5108670749
:100F9000E8010318E80A4D07E7000318E80A5208B9
:100FA00068074E07E8006808CE006708CD006608AD
:100FB000CC006508CB00492B0A128A1100280A12BE
:100FC0008A1108200A128A11ED000A128A110920DA
:100FD0000A128A11EE008313A0308400C8300A126E
:100FE0008A1599270A128A11203084004F300A127C
:100FF0008A1599270A128A1183010A128A112B2B4A
:1010000008308A000408840A8207003442344D34D0
:0A10100050343234383430340034E8
:101F2200831203138C1D962F972F912F8C1108006B
:101F320064008001840A04060319003404069A2FFF
:101F42008316031391140A128A1591270A128A150D
:101F520008008316031311150A128A1591270A1213
:101F62008A15080083160313911611160A128A1590
:101F720091270A128A1508008316031391150A1273
:101F82008A1591270A128A1583120313130808006F
:101F9200C0300A128A1199200A128A158312031379
:101FA2003C08303E0A128A11D9200A128A1508000A
:101FB200F00070088312031393000A128A15912706
:101FC2000A128A1583160313111BE82FE92FDA2F41
:101FD2000800831603130716071AF02FF42F83162F
:101FE20003138715F72F83160313871128308312E3
:0E1FF20003139400FF308316031393000800BE
:08400000FF3FFF3FFF3FFF3FC0
:02400E00FF3F72
:00000001FF
