:100000000A128A11E92F00308A000408840A820744
:10001000003442344D3450343234383430340034C7
:10085800831203138C1D312C322C2C2C8C11080084
:1008680064008001840A0406031900340406352C48
:100878008316031391140A128A112C240A128A115E
:1008880008008316031311150A128A112C240A1260
:100898008A11080083160313911611160A128A1179
:1008A8002C240A128A1108008316031391150A12C0
:1008B8008A112C240A128A118312031313080800C0
:1008C800F00070088312031393000A128A112C2473
:1008D8000A128A1183160313111B732C742C652CAE
:1008E8000800831603130716071A7B2C7F2C831620
:1008F80003138715822C831603138711283083125C
:1009080003139400FF308316031393000800F400C8
:100918009D2C740884000A128A1103200A128A1175
:100928000A128A118B250A128A110130F300730802
:10093800F407740884000A128A1103200A128A1123
:10094800003A031DA82CA92C8D2C08000A128A1124
:10095800D5240A128A110A128A1175240A128A11D8
:1009680001300A128A118B240A128A111A30FA00ED
:100978005E30F9006E30F800F80BC02CF90BC02C73
:10098800FA0BC02C00000A128A1132260A128A11A8
:100998000A128A11CB250A128A11C72C0A128A1147
:1009A80000288316031386130613861206120710EF
:1009B800871002300A128A110B250A128A11283070
:1009C8000A128A110B250A128A1180300A128A111A
:1009D8000B250A128A110C300A128A110B250A12E9
:1009E8008A1106300A128A110B250A128A1101305F
:1009F8000A128A110B250A128A114130F400EE30CE
:100A0800F300F30B052DF40B052D00000800F20090
:100A18008312031307107208860087144130F1000F
:100A2800EE30F000F00B162DF10B162D000083129E
:100A3800031387104130F100EE30F000F00B222D47
:100A4800F10B222D00007208F00003300310F00DA6
:100A5800FF3E031D2A2D0310700D83120313860019
:100A680087144130F100EE30F000F00B392DF10B16
:100A7800392D00008312031387104130F100EE3046
:100A8800F000F00B452DF10B452D00000800F20099
:100A98000A128A113C240A128A11EE3083120313B7
:100AA80093000A128A112C240A128A11831603133E
:100AB800111B5F2D602D4C2D00300A128A11642401
:100AC8000A128A1172080A128A1164240A128A11F7
:100AD8000A128A113C240A128A11EF300A128A116A
:100AE80064240A128A110A128A1158240A128A11D5
:100AF800F1007108F3000A128A114E240A128A11B1
:100B08000A128A1145240A128A1173080800F20091
:100B18008312031307147208860087144130F1000A
:100B2800EE30F000F00B962DF10B962D000083129D
:100B3800031387104130F100EE30F000F00BA22DC6
:100B4800F10BA22D00007208F00003300310F00D25
:100B5800FF3E031DAA2D0310700D83120313860098
:100B680087144130F100EE30F000F00BB92DF10B95
:100B7800B92D00008312031387104130F100EE30C5
:100B8800F000F00BC52DF10BC52D00000800C0309A
:100B98000A128A110B250A128A11831203135408A8
:100BA800303E0A128A118B250A128A118312031306
:100BB8005008303E0A128A118B250A128A118312B4
:100BC80003134C08303E0A128A118B250A128A1127
:100BD800831203134808303E0A128A118B250A1221
:100BE8008A11831203134408303E0A128A118B2596
:100BF8000A128A11831203134008303E0A128A111E
:100C08008B250A128A1194300A128A110B250A12AE
:100C18008A11831203133C08303E0A128A118B256D
:100C28000A128A11831203133808303E0A128A11F5
:100C38008B250A128A11831203133408303E0A12D4
:100C48008A118B250A128A11831203133008303E49
:100C58000A128A118B250A128A110800AA300A1270
:100C68008A114B250A128A11F400F501F601F701E1
:100C7800770883120313D7007608D6007508D500C5
:100C88007408D400AB300A128A114B250A128A1153
:100C9800F400F501F601F701770883120313D30076
:100CA8007608D2007508D1007408D000AC300A125A
:100CB8008A114B250A128A11F400F501F601F70191
:100CC800770883120313CF007608CE007508CD008D
:100CD8007408CC00AD300A128A114B250A128A1109
:100CE800F400F501F601F701770883120313CB002E
:100CF8007608CA007508C9007408C800AE300A1220
:100D08008A114B250A128A11F400F501F601F70140
:100D1800770883120313C7007608C6007508C50054
:100D28007408C400AF300A128A114B250A128A11BE
:100D3800F400F501F601F701770883120313C300E5
:100D48007608C2007508C1007408C000B0300A12E5
:100D58008A114B250A128A11F400F501F601F701F0
:100D6800770883120313BF007608BE007508BD001C
:100D78007408BC00B1300A128A114B250A128A1174
:100D8800F400F501F601F701770883120313BB009D
:100D98007608BA007508B9007408B800B2300A12AB
:100DA8008A114B250A128A11F400F501F601F701A0
:100DB800770883120313B7007608B6007508B500E4
:100DC8007408B400B3300A128A114B250A128A112A
:100DD800F400F501F601F701770883120313B30055
:100DE8007608B2007508B1007408B000B4300A1271
:100DF8008A114B250A128A11F400F501F601F70150
:100E0800770883160313BF007608BE007508BD0077
:100E18007408BC00B5300A128A114B250A128A11CF
:100E2800F400F501F601F701770883120313AF0008
:100E38007608AE007508AD007408AC00B6300A122A
:100E48008A114B250A128A11F400F501F601F701FF
:100E5800770883120313AB007608AA007508A90067
:100E68007408A800B7300A128A114B250A128A1191
:100E7800F400F501F601F701770883160313BB00A8
:100E88007608BA007508B9007408B800B8300A12B4
:100E98008A114B250A128A11F400F501F601F701AF
:100EA800770883120313A7007608A6007508A50023
:100EB8007408A400B9300A128A114B250A128A1143
:100EC800F400F501F601F701770883120313A30074
:100ED8007608A2007508A1007408A000BA300A12AA
:100EE8008A114B250A128A11F400F501F601F7015F
:100EF800770883160313D3007608D2007508D1004B
:100F08007408D000BB300A128A114B250A128A11C4
:100F1800F400F501F601F701770883160313CF00F3
:100F28007608CE007508CD007408CC00BC300A12D3
:100F38008A114B250A128A11F400F501F601F7010E
:100F4800770883160313CB007608CA007508C90012
:100F58007408C800BD300A128A114B250A128A117A
:100F6800F400F501F601F701770883160313C700AB
:100F78007608C6007508C5007408C400BE300A1299
:100F88008A114B250A128A11F400F501F601F701BE
:100F9800770883160313C3007608C2007508C100DA
:100FA8007408C000BF300A128A114B250A128A1130
:100FB800F400740C0318E12FE52F8316031314149F
:100FC800E82F8316031314100800FB01FC01831398
:100FD800203084006D300A128A1134240A128A11D2
:100FE800A0308400D4300A128A1134240A128A11DB
:080FF80083010A128A11AA2CE0
:08400000FF3FFF3FFF3FFF3FC0
:02400E00FF3F72
:00000001FF
