:100000000A128A11E52F00308A000408840A820748
:10001000003442344D3450343234383430340034C7
:100C9000831203138C1D4D2E4E2E482E8C110800EE
:100CA00064008001840A0406031900340406512EEE
:100CB0008316031391140A128A1148260A128A1104
:100CC00008008316031311150A128A1148260A1206
:100CD0008A11080083160313911611160A128A113D
:100CE00048260A128A1108008316031391150A1266
:100CF0008A1148260A128A11831203131308080066
:100D0000F00070088312031393000A128A11482618
:100D10000A128A1183160313111B8F2E902E812E17
:100D20000800831603130716071A972E9B2E8316A7
:100D3000031387159E2E8316031387112830831201
:100D400003139400FF308316031393000800F4008C
:100D5000B92E740884000A128A1103200A128A111B
:100D60000A128A11A5270A128A110130F3007308AA
:100D7000F407740884000A128A1103200A128A11E7
:100D8000003A031DC42EC52EA92E08000A128A118E
:100D9000F3260A128A110A128A1191260A128A115E
:100DA00001300A128A11A7260A128A111A30F70096
:100DB0005E30F6006E30F500F50BDC2EF60BDC2E07
:100DC000F70BDC2E0000C0300A128A1165270A12C8
:100DD0008A1100300A128A1129270A128A11EF2E6D
:100DE0000A128A110028831603138613061386122B
:100DF00006120710871002300A128A1165270A129C
:100E00008A1128300A128A1165270A128A11803045
:100E10000A128A1165270A128A110C300A128A11E5
:100E200065270A128A1106300A128A1165270A12EA
:100E30008A1101300A128A1165270A128A1141307B
:100E4000F400EE30F300F30B232FF40B232F0000FC
:100E50000800F1000A128A1158260A128A11EE308F
:100E60008312031393000A128A1148260A128A1168
:100E700083160313111B3D2F3E2F2A2F00300A1219
:100E80008A1180260A128A1171080A128A11802694
:100E90000A128A110A128A1158260A128A11EF3090
:100EA0000A128A1180260A128A110A128A117426DD
:100EB0000A128A110A128A116A260A128A110A1261
:100EC0008A1161260A128A110800F20083120313A4
:100ED00007107208860087144130F100EE30F000F0
:100EE000F00B702FF10B702F00008312031387108B
:100EF0004130F100EE30F000F00B7C2FF10B7C2F35
:100F000000007208F00003300310F00DFF3E031DD7
:100F1000842F0310700D8312031386008714413051
:100F2000F100EE30F000F00B932FF10B932F000047
:100F30008312031387104130F100EE30F000F00B04
:100F40009F2FF10B9F2F00000800F2008312031364
:100F500007147208860087144130F100EE30F0006B
:100F6000F00BB02FF10BB02F00008312031387108A
:100F70004130F100EE30F000F00BBC2FF10BBC2F34
:100F800000007208F00003300310F00DFF3E031D57
:100F9000C42F0310700D8312031386008714413091
:100FA000F100EE30F000F00BD32FF10BD32F000047
:100FB0008312031387104130F100EE30F000F00B84
:100FC000DF2FF10BDF2F00000800F801F901FA0113
:100FD000FB01FC01FD018313203084006D300A12F7
:100FE0008A1150260A128A11A0308400CC300A12CD
:100FF0008A1150260A128A1183010A128A11C62EFA
:08400000FF3FFF3FFF3FFF3FC0
:02400E00FF3F72
:00000001FF
