:100000000A128A11D42F00308A000408840A820759
:10001000003442344D3450343234383430340034C7
:1002580003340034831203138C1D332934292E29C7
:100268008C11080064008001840A04060319003414
:10027800040637298316031391140A128A112E21B2
:100288000A128A1108008316031311150A128A111B
:100298002E210A128A1108008316031311140A1258
:1002A8008A112E210A128A11080083160313911647
:1002B80011160A128A112E210A128A1108008316B1
:1002C800031391150A128A112E210A128A11831218
:1002D800031313080800F000700883120313930037
:1002E8000A128A112E210A128A1183160313111B6E
:1002F8007E297F2970290800831603130716071A19
:1003080086298A298316031387158D2983160313D3
:1003180087112830831203139400FF3083160313C8
:1003280093000800F2000A128A1150210A128A1159
:10033800EE300A128A116F210A128A1172080A1203
:100348008A116F210A128A1171080A128A116F2103
:100358000A128A110A128A1147210A128A11080000
:10036800F400C629740884000A128A1103200A12AC
:100378008A110A128A11BD220A128A110130F30069
:100388007308F407740884000A128A1103200A12F9
:100398008A11003A031DD129D229B62908008316EB
:1003A80003138613061386120612071087100230ED
:1003B8000A128A117D220A128A1128300A128A1119
:1003C8007D220A128A1180300A128A117D220A12AD
:1003D8008A110C300A128A117D220A128A110630FB
:1003E8000A128A117D220A128A1101300A128A1110
:1003F8007D220A128A114130F400EE30F300F30B2B
:10040800032AF40B032A00000800F2000A128A11DA
:100418003E210A128A11EE308312031393000A1246
:100428008A112E210A128A1183160313111B1D2A01
:100438001E2A0A2A72080A128A116F210A128A11C0
:100448000A128A113E210A128A11EF300A128A1101
:100458006F210A128A110A128A1163210A128A115B
:10046800F1007108F3000A128A1159210A128A113F
:100478000A128A1147210A128A11730808007008A3
:1004880071040319482A492A782AF501F50A572AD6
:1004980001300310F00DF10DFF3E031D4D2A013010
:1004A800F4007408F507F11F5A2A5B2A4C2A7108D0
:1004B8007302031D612A70087202031C642A652AEC
:1004C8006B2A7008F2027108031CF303F30201306F
:1004D8000310F10CF00CFF3E031D6C2A0130F502ED
:1004E800031D772A782A5B2A7308F1007208F00046
:1004F8000800F2008312031307107208860087149D
:100508004130F100EE30F000F00B882AF10B882A18
:1005180000008312031387104130F100EE30F00021
:10052800F00B942AF10B942A00007208F0000330B3
:100538000310F00DFF3E031D9C2A0310700D83125B
:100548000313860087144130F100EE30F000F00B01
:10055800AB2AF10BAB2A000083120313871041303A
:10056800F100EE30F000F00BB72AF10BB72A0000CB
:100578000800F20083120313071472088600871418
:100588004130F100EE30F000F00BC82AF10BC82A18
:1005980000008312031387104130F100EE30F000A1
:1005A800F00BD42AF10BD42A00007208F0000330B3
:1005B8000310F00DFF3E031DDC2A0310700D83129B
:1005C8000313860087144130F100EE30F000F00B81
:1005D800EB2AF10BEB2A000083120313871041303A
:1005E800F100EE30F000F00BF72AF10BF72A0000CB
:1005F8000800F501F601700871040319042B052B96
:100608003C2BF701F70A132B01300310F00DF10D05
:10061800FF3E031D092B0130F4007408F707F11F92
:10062800162B172B082B01300310F50DF60DFF3E86
:10063800031D182B71087302031D242B7008720206
:10064800031C272B282B2F2B7008F2027108031C80
:10065800F303F302751401300310F10CF00CFF3EA4
:10066800031D302B0130F702031D3B2B3C2B172BAE
:100678007608F1007508F0000800F601F31F452B15
:10068800462B4D2BF209F309F20A0319F30AF60176
:10069800F60AF11F502B512B562BF009F109F00ADD
:1006A8000319F10A7008710403195B2B5C2B8B2B5F
:1006B800F501F50A6A2B01300310F00DF10DFF3E2C
:1006C800031D602B0130F4007408F507F11F6D2B32
:1006D8006E2B5F2B71087302031D742B7008720256
:1006E800031C772B782B7E2B7008F2027108031CF1
:1006F800F303F30201300310F10CF00CFF3E031D6D
:100708007F2B0130F502031D8A2B8B2B6E2B76086D
:1007180003198F2B902B952BF209F309F20A031971
:10072800F30A7308F1007208F0000800F601F11FDF
:100738009E2B9F2BA62BF009F109F00A0319F10A49
:10074800F601F60AF31FA92BAA2BB32BF209F3091A
:10075800F20A0319F30A0130F4007408F606F701E7
:10076800F801700871040319BA2BBB2BF22BF501A1
:10077800F50AC92B01300310F00DF10DFF3E031DE2
:10078800BF2B0130F4007408F507F11FCC2BCD2BDB
:10079800BE2B01300310F70DF80DFF3E031DCE2BC5
:1007A80071087302031DDA2B70087202031CDD2B1B
:1007B800DE2BE52B7008F2027108031CF303F30229
:1007C800771401300310F10CF00CFF3E031DE62BEB
:1007D8000130F502031DF12BF22BCD2B76080319FE
:1007E800F62BF72BFC2BF709F809F70A0319F80A77
:1007F8007808F1007708F0000800FA01F71F052CC7
:10080800062C132CF409F509F609F709F40A03195B
:10081800F50A0319F60A0319F70AFA01FA0AF31F87
:10082800162C172C222CF009F109F209F309F00A09
:100838000319F10A0319F20A0319F30A7308720477
:10084800710470040319292C2A2C6D2CF901F90A5A
:100858003A2C0130F8000310F00DF10DF20DF30DF4
:10086800F80B2F2C0130F8007808F907F31F3D2CFE
:100878003E2C2D2C73087702031D4C2C720876022F
:10088800031D4C2C71087502031D4C2C7008740252
:10089800031C4F2C502C5E2C7008F4027108031CAA
:1008A800710FF5027208031C720FF6027308031C1D
:1008B800730FF70201300310F30CF20CF10CF00C7B
:1008C800FF3E031D5F2C0130F902031D6C2C6D2CBB
:1008D8003E2C7A080319712C722C7D2CF409F50929
:1008E800F609F709F40A0319F50A0319F60A0319B0
:1008F800F70A7708F3007608F2007508F100740823
:10090800F000080083120313A101F31F8C2C8D2C17
:100918009A2CF009F109F209F309F00A0319F10A0E
:100928000319F20A0319F30AA101A10AF71F9D2C62
:100938009E2CAD2CF409F509F609F709F40A0319F8
:10094800F50A0319F60A0319F70A0130F8007808BE
:10095800A1060030A5000030A4000030A30000303C
:10096800A20073087204710470040319BC2CBD2C16
:100978000A2DA001A00ACD2C0130F8000310F00DBB
:10098800F10DF20DF30DF80BC22C0130F8007808C8
:10099800A007F31FD02CD12CC02C0130F800031075
:1009A800A20DA30DA40DA50DF80BD32C7308770287
:1009B800031DE82C72087602031DE82C71087502E5
:1009C800031DE82C70087402031CEB2CEC2CFB2C88
:1009D8007008F4027108031C710FF5027208031CF9
:1009E800720FF6027308031C730FF702221401300A
:1009F8000310F30CF20CF10CF00CFF3E031DFC2C61
:100A08000130A002031D092D0A2DD12C210803193C
:100A18000E2D0F2D1A2DA209A309A409A509A20AB2
:100A28000319A30A0319A40A0319A50A2508F30040
:100A38002408F2002308F1002208F00008000A1236
:100A48008A11D3210A128A110A128A1180210A12E4
:100A58008A1101300A128A11B4210A128A1110303F
:100A680083120313B8003930B7000D30B600B60B47
:100A78003B2DB70B3B2DB80B3B2DF43083120313E2
:100A8800B6003608F100F4300A128A1196210A12CB
:100A98008A11623083120313B7006530B600B60BB3
:100AA800532DB70B532DF6300A128A1109220A1258
:100AB8008A1183120313B600B701B801B9013908C6
:100AC800C6003808C5003708C4003608C300F73028
:100AD8000A128A1109220A128A1183120313B60014
:100AE800B701B801B9013908CA003808C900370880
:100AF800C8003608C700F8300A128A1109220A12FB
:100B08008A1183120313B600B701B801B901390875
:100B1800CE003808CD003708CC003608CB004B088B
:100B2800B6004C08B7004D08B8004E08B900470891
:100B3800BA004808BB004908BC004A08BD00083094
:100B48000310BA0DBB0DBC0DBD0DFF3E031DA42D3A
:100B58004308BE004408BF004508C0004608C1005D
:100B680010300310BE0DBF0DC00DC10DFF3E031D9B
:100B7800B52D3E08BA073F0803183F0FC42DC52DF1
:100B8800BB0740080318400FCA2DCB2DBC074108EE
:100B98000318410ABD073A08B6073B0803183B0F7C
:100BA800D62DD72DB7073C0803183C0FDC2DDD2DBB
:100BB800B8073D0803183D0AB9070530C200390DCA
:100BC800B90CB80CB70CB60CC20BE32D3908D2001F
:100BD8003808D1003708D0003608CF00C0300A12D4
:100BE8008A117D220A128A110030F3000030F200C7
:100BF8000030F1006430F000831203135208F7004C
:100C08005108F6005008F5004F08F4000A128A113E
:100C180086240A128A11710883120313A700700828
:100C2800A6000A128A1140260A128A110030F3001F
:100C38000030F2000030F1006430F000831203133A
:100C48005208F7005108F6005008F5004F08F40064
:100C58000A128A1101240A128A11710883120313D5
:100C6800A7007008A6000A128A1140260A128A11E3
:100C7800332D0A128A110028003083120313270229
:100C88000A300319260203184A2E4B2E532E260823
:100C9800303E0A128A11BD220A128A11D32F00305F
:100CA80027020A3003192602031C5B2E5C2EA02E95
:100CB800003027026430031926020318642E652EBB
:100CC800A02E0A30F0000030F1002708F3002608B3
:100CD800F2000A128A1143220A128A117108831239
:100CE8000313B5007008B4003508AF003408AE002F
:100CF8000A30F0000030F1002708F3002608F2005F
:100D08000A128A11FD220A128A117108831203132A
:100D1800B1007008B0003008303E0A128A11BD22B6
:100D28000A128A11831203132E08303E0A128A11FE
:100D3800BD220A128A11D32F00302702643003190A
:100D48002602031CA82EA92E202F03302702E830E4
:100D5800031926020318B12EB22E202F0A30F000F4
:100D68000030F1002708F3002608F2000A128A1161
:100D780043220A128A11710883120313B5007008FE
:100D8800B4000A30F0000030F1002708F30026080C
:100D9800F2000A128A11FD220A128A1171088312BE
:100DA8000313B3007008B2003508AF003408AE0072
:100DB8000A30F0000030F1003308F3003208F20086
:100DC8000A128A1141230A128A1171088312031325
:100DD800B5007008B4003508B1003408B0000A3016
:100DE800F0000030F1003308F3003208F2000A1274
:100DF8008A119A230A128A11710883120313AD000B
:100E08007008AC002C08303E0A128A11BD220A1262
:100E18008A11831203133008303E0A128A11BD2248
:100E28000A128A11831203132E08303E0A128A11FD
:100E3800BD220A128A11D32F03302702E830031982
:100E48002602031C282F292FD32F273027020F30E3
:100E5800031926020318312F322FD32F0A30F0003E
:100E68000030F1002708F3002608F2000A128A1160
:100E780043220A128A11710883120313B5007008FD
:100E8800B4000A30F0000030F1002708F30026080B
:100E9800F2000A128A11FD220A128A1171088312BD
:100EA8000313B3007008B2003508AF003408AE0071
:100EB8000A30F0000030F1003308F3003208F20085
:100EC8000A128A1141230A128A1171088312031324
:100ED800B5007008B4003508B1003408B0000A3015
:100EE800F0000030F1003308F3003208F2000A1273
:100EF8008A119A230A128A11710883120313AB000C
:100F08007008AA000A30F0000030F1002B08F30046
:100F18002A08F2000A128A1141230A128A1171085A
:100F280083120313B5007008B4003508AD00340807
:100F3800AC000A30F0000030F1002B08F3002A085A
:100F4800F2000A128A119A230A128A11710883126E
:100F58000313A9007008A8002808303E0A128A1155
:100F6800BD220A128A11831203132C08303E0A127A
:100F78008A11BD220A128A11831203133008303EE7
:100F88000A128A11BD220A128A11831203132E082B
:100F9800303E0A128A11BD220A128A11D32F080084
:100FA8000A128A112C210A128A11EE000A128A11D9
:100FB8002D210A128A11EF00831790308400A43083
:100FC8000A128A1136210A128A118313A03084006A
:100FD800F0300A128A1136210A128A114F30840021
:100FE8006E300A128A1136210A128A11FB01FC019D
:080FF80083010A128A11232D66
:08400000FF3FFF3FFF3FFF3FC0
:02400E00FF3F72
:00000001FF
