:060000000A128A11122809
:10000800FE00030EF9000408FA000A08FB00831238
:1000180003137F08FC000A128A1130280A128A1179
:10002800152883134130FD000230FE002F30FF00F9
:100038003A3084000A128A11FC210A128A112030EF
:10004800840032300A128A1127220A128A11FD010D
:1000580083010A128A11CA288C1E33283428BF2823
:100068001A08F7007708AA0047302A06031D3D281A
:100078003E28BF280715831603138C128312031317
:100088008C12FD0102307D02031C4B284C284D28A0
:100098005E288C1E502851284D281A08F7007D0824
:1000A8002B3E84007708831380000130F70077081F
:1000B800FD0746283A30F7007708F0002B300A127F
:1000C8008A1109210A128A117008F8007808831227
:1000D8000313A9002908031D72287328BC28871553
:1000E800FD0107307D02031C7A287B287C288D2897
:1000F8008C1E7F2880287C281A08F7007D08203E5F
:1001080084007708831380000130F7007708FD0723
:100118007528C4300A128A11BA210A128A110130CC
:1001280083120313A7000030A8002808803AFF00B4
:1001380080307F02031DA22807302702031CA52850
:10014800A628A728BC28831203132708203E84006A
:10015800831300080A128A119A210A128A1101309F
:1001680083120313A7070318A80A0030A8079928C1
:10017800831203138C127C08FF007B088A007A081C
:100188008400790E8300FE0E7E0E09008316031389
:100198008801071187110712C0308B0020308C00AE
:1001A8000A128A11DA210A128A1180300A128A1177
:1001B80078210A128A1101300A128A1133210A128F
:1001C8008A11C0300A128A1178210A128A1106305F
:1001D8000A128A1133210A128A110A128A111B2261
:1001E8000A128A110D3083120313B900AF30B80018
:1001F800B530B700B70BFE28B80BFE28B90BFE28A0
:100208000529F1280A128A111228F600132901304B
:10021800F2007208F6070130F2007208F007700861
:10022800840083130008F200760884000008F300B5
:1002380072087302F4007408F5007508031D252977
:1002480026292D29760884000008031D2C292D292C
:100258000B297508F000F101F01BF1030800831267
:100268000313B6004929360884000A128A110B22A2
:100278000A128A110A128A1156210A128A110130A9
:1002880083120313B5003508B607360884000A122E
:100298008A110B220A128A11003A031D5429552982
:1002A8003729080083120313B200320888000714A4
:1002B8008714B301B401013083120313B307031881
:1002C800B40A0030B4073408803AFF0083307F0254
:1002D800031D7029E8303302031C732974295F2930
:1002E800831203138710080083120313B200320825
:1002F800880007108714B301B40101308312031377
:10030800B3070318B40A0030B4073408803AFF0072
:1003180083307F02031D9229E8303302031C95299C
:10032800962981298312031387100800F0007008AA
:1003380083120313880007148714F101F2010130B6
:10034800F1070318F20A0030F2077208803AFF003A
:1003580083307F02031DB229E8307102031CB529DE
:10036800B629A3298312031387100800F000700828
:1003780083120313880007108714F101F20101307A
:10038800F1070318F20A0030F2077208803AFF00FA
:1003980083307F02031DD229E8307102031CD5295E
:1003A800D629C32983120313871008008316031361
:1003B80007108710880138300A128A1178210A122A
:1003C8008A110E300A128A1178210A128A1106300F
:1003D8000A128A1178210A128A1180300A128A11A7
:1003E80078210A128A1108007E088A007F08820094
:1003F8000A128A11F8210A128A118000840A040854
:100408007D0603190034FF0A0319FE0AFC2902308D
:100418008A000408840A820700344C344F344E346E
:100428003A3400344C34413454343A340034903043
:100438008312031398001F30831603139900831245
:1004480003138C12080064008001840A040603194F
:1004580000340406282A503453340034003400345D
:040468000034003428
:08400000FF3FFF3FFF3FFF3FC0
:02400E00FA3F77
:00000001FF
