:100000000A128A11C62F01340034033400340A1650
:100010008A1121240A128A110A168A1110230A123F
:100020008A1101300A168A1140250A128A110A160D
:100030008A114E230A128A110A168A1176230A128D
:100040008A110A168A118C260A128A110A128A1536
:10005000AC240A128A110A128A158D250A128A11F5
:100060000A128A1509200A128A11831203131F1516
:100070001F193B283C283828413083120313EB001A
:10008000ED30EA00EA0B4228EB0B42284728C0304B
:100090000A168A1140250A128A110A128A15752039
:1000A0000A128A110A128A15D6230A128A110A160E
:1000B0008A1160230A128A110A128A153F220A1233
:1000C0008A110A128A1508230A128A118316031349
:1000D000590883120313EB00831603135808831285
:1000E0000313EA006A08EB00EA01831603135408BD
:1000F000831203136A0783160313E70055080318D6
:10010000550A831203136B0783160313E800510883
:1001100083120313EB008316031350088312031397
:10012000EA006A08EB00EA01831603134C08831205
:1001300003136A0783160313E5004D0803184D0ADD
:10014000831203136B0783160313E6004908831217
:100150000313EB0083160313480883120313EA000A
:100160006A08EB00EA0183160313440883120313A1
:100170006A0783160313E30045080318450A831230
:1001800003136B0783160313E40040088312031361
:10019000EB00EA01831603133C08831203136A077A
:1001A00083160313E1003D0803183D0A831203136D
:1001B0006B0783160313E2000A128A119D220A12AA
:1001C0008A110A168A1105250A128A110A168A113D
:1001D000A6230A128A110D300A168A11E1220A1288
:1001E0008A11073083120313EC005830EB005930AA
:1001F000EA00EA0BF928EB0BF928EC0BF92801309F
:1002000083160313ED070318EE0A0030EE071128DA
:100210000A128A11002800307A020A300319790282
:100220000318132914291C297908303E0A168A114B
:10023000E1220A128A119C2A00307A020A3003193C
:100240007902031C24292529692900307A026430A7
:100250000319790203182D292E2969290A30F00083
:100260000030F1007A08F3007908F2000A168A11CA
:1002700057240A128A11710883120313D4007008DC
:10028000D3005408CE005308CD000A30F0000030EF
:10029000F1007A08F3007908F2000A168A110226A2
:1002A0000A128A11710883120313D0007008CF005C
:1002B0004F08303E0A168A11E1220A128A1183126F
:1002C00003134D08303E0A168A11E1220A128A11E0
:1002D0009C2A00307A02643003197902031C7129C8
:1002E0007229E92903307A02E830031979020318E8
:1002F0007A297B29E9290A30F0000030F1007A08D8
:10030000F3007908F2000A168A1157240A128A119A
:10031000710883120313D4007008D3000A30F00070
:100320000030F1007A08F3007908F2000A168A1109
:1003300002260A128A11710883120313D200700870
:10034000D1005408CE005308CD000A30F000003030
:10035000F1005208F3005108F2000A168A11DA2659
:100360000A128A11710883120313D4007008D30093
:100370005408D0005308CF000A30F0000030F100DC
:100380005208F3005108F2000A168A1199270A123E
:100390008A11710883120313CC007008CB004B083C
:1003A000303E0A168A11E1220A128A1183120313BF
:1003B0004F08303E0A168A11E1220A128A1183126E
:1003C00003134D08303E0A168A11E1220A128A11DF
:1003D0009C2A03307A02E83003197902031CF129C0
:1003E000F2299C2A27307A020F3003197902031868
:1003F000FA29FB299C2A0A30F0000030F1007A0823
:10040000F3007908F2000A168A1157240A128A1199
:10041000710883120313D4007008D3000A30F0006F
:100420000030F1007A08F3007908F2000A168A1108
:1004300002260A128A11710883120313D20070086F
:10044000D1005408CE005308CD000A30F00000302F
:10045000F1005208F3005108F2000A168A11DA2658
:100460000A128A11710883120313D4007008D30092
:100470005408D0005308CF000A30F0000030F100DB
:100480005208F3005108F2000A168A1199270A123D
:100490008A11710883120313CA007008C9000A3058
:1004A000F0000030F1004A08F3004908F2000A1693
:1004B0008A11DA260A128A11710883120313D400F2
:1004C0007008D3005408CC005308CB000A30F00069
:1004D0000030F1004A08F3004908F2000A168A11B8
:1004E00099270A128A11710883120313C800700831
:1004F000C7004708303E0A168A11E1220A128A1103
:10050000831203134B08303E0A168A11E1220A12A5
:100510008A11831203134F08303E0A168A11E12212
:100520000A128A11831203134D08303E0A168A11EB
:10053000E1220A128A119C2A0800603083120313F8
:10054000D500F030D600FF30D700FF30D80083163A
:100550000313300883120313D507831603133108DE
:100560000318310FB42AB72A83120313D607831650
:10057000031332080318320FBE2AC12A8312031351
:10058000D7078316031333080318330A83120313A0
:10059000D8075808AB005708AA005608A900550804
:1005A000A8000030CA000030C9001030C800003078
:1005B000C7002B08F3002A08F2002908F1002808D8
:1005C000F0002B08F7002A08F6002908F500280893
:1005D000F4000A168A1146260A128A117308831239
:1005E0000313CE007208CD007108CC007008CB0058
:1005F0000A128A15E3200A128A11831203134A0889
:10060000E6004908E5004808E4004708E300003038
:10061000CA000030C9000830C8000030C7006608B2
:10062000F3006508F2006408F1006308F000831627
:1006300003133B08F7003A08F6003908F5003808BC
:10064000F4000A168A1146260A128A1173088312C8
:100650000313CE007208CD007108CC007008CB00E7
:100660000A128A15E3200A128A11831203134A0818
:10067000A7004908A6004808A5004708A4000030C4
:10068000CA000030C9000830C8000030C700831617
:1006900003136508F0006608F1000030F11BFF301D
:1006A000F200F300831203132B08F7002A08F60068
:1006B0002908F5002808F4000A168A1146260A12AD
:1006C0008A11730883120313CE007208CD007108DB
:1006D000CC007008CB000A128A15E3200A128A1196
:1006E000831203134A08A3004908A2004808A10086
:1006F0004708A00024082007D50000300318013067
:100700002507D7010318D70A2107D6000318D70AEF
:1007100026085707D8010318D80A2207D70003185C
:10072000D80A270858072307D80058088316031348
:10073000AB0083120313570883160313AA00831216
:100740000313560883160313A900831203135508D5
:1007500083160313A800003083120313CA0000306D
:10076000C9000030C8000430C7000230D500003096
:10077000D6000030D7000030D800831603132808B5
:1007800083120313D900831603132908831203135A
:10079000DA00831603132A0883120313DB0083167F
:1007A00003132B0883120313DC008316031368085A
:1007B00083120313DE0083160313670883120313E7
:1007C000DD000310DD0DDE0D0310DD0DDE0D5D0817
:1007D000DF005E08E0000030E01BFF30E100E200D7
:1007E0005F08D90760080318600FF72BF82BDA07AA
:1007F00061080318610FFD2BFE2BDB07620803184D
:10080000620ADC076D0A092C0310D90DDA0DDB0D25
:10081000DC0DFF3E031D042C5908D5075A080318A8
:100820005A0F132C142CD6075B0803185B0F192CD6
:100830001A2CD7075C0803185C0AD8075808CE00A2
:100840005708CD005608CC005508CB000A128A156F
:10085000E3200A128A11831203134A088316031332
:10086000B70083120313490883160313B6008312DB
:100870000313480883160313B500831203134708B4
:1008800083160313B400003083120313CA00003030
:10089000C9002030C8000030C70083160313630866
:1008A000F0006408F1000030F11BFF30F200F300AB
:1008B000831203132B08F7002A08F6002908F50015
:1008C0002808F4000A168A1146260A128A117308AB
:1008D00083120313CE007208CD007108CC0070089B
:1008E000CB000A128A15E3200A128A11831203131D
:1008F0004A08A7004908A6004808A5004708A40020
:100900000030CA000030C9001030C8000030C700F5
:100910002B08F3002A08F2002908F1002808F0004B
:100920002B08F7002A08F6002908F5002808F4002B
:100930000A168A1146260A128A11730883120313B3
:10094000CE007208CD007108CC007008CB000A12EE
:100950008A15E3200A128A11831203134A08E6005B
:100960004908E5004808E4004708E3000030CA00F1
:100970000130C9000030C8000030C7006608F3002D
:100980006508F2006408F1006308F00083160313A1
:100990003F08F7003E08F6003D08F5003C08F4006B
:1009A0000A168A1146260A128A1173088312031343
:1009B000CE007208CD007108CC007008CB000A127E
:1009C0008A15E3200A128A11831203134A08A3002E
:1009D0004908A2004808A1004708A0000030CA004A
:1009E0000030C9000030C8000430C7000230D50014
:1009F0000030D6000030D7000030D800240820078F
:100A0000D9000030031801302507DB010318DB0A89
:100A10002107DA000318DB0A26085B07DC0103184C
:100A2000DC0A2207DB000318DC0A27085C0723071F
:100A3000DC005908D5075A0803185A0F202D212D1C
:100A4000D6075B0803185B0F262D272DD7075C08F8
:100A500003185C0AD8075808CE005708CD0056087E
:100A6000CC005508CB000A128A15E3200A128A111D
:100A7000831203134A0883160313AB008312031374
:100A8000490883160313AA00831203134808831628
:100A90000313A90083120313470883160313A80046
:100AA000003083120313D5008030D6000030D70009
:100AB0000030D80083160313280883120313D507C8
:100AC0008316031329080318290F672D6A2D831233
:100AD0000313D607831603132A0803182A0F712D50
:100AE000742D83120313D707831603132B080318DF
:100AF0002B0A83120313D8075808F3005708F20093
:100B00005608F1005508F000831603136108F4003D
:100B10006208F500F601F7010A168A1146260A1244
:100B20008A11700883120313D9007108DA00720861
:100B3000DB007308DC000F300310DC0CDB0CDA0C7C
:100B4000D90CFF3E031D9C2D5C0883160313A700E0
:100B5000831203135B0883160313A6008312031387
:100B60005A0883160313A50083120313590883162A
:100B70000313A4002C0883120313D5008316031358
:100B80002D0883120313D600831603132E08831235
:100B90000313D700831603132F0883120313D800FF
:100BA00083160313340883120313D5028316031329
:100BB0003508031C350FDD2DE02D83120313D602FB
:100BC000831603133608031C360FE72DEA2D831214
:100BD0000313D702831603133708031C370FF12DB5
:100BE000F42D83120313D802831603138312031305
:100BF0005808F3005708F2005608F1005508F000B5
:100C00006D0AD9005030DA00C330DB000030DC0060
:100C10000030DD00102E5D0DDD0CDC0CDB0CDA0C81
:100C2000D90B0B2E5D08F7005C08F6005B08F50099
:100C30005A08F4000A168A1146260A128A11730805
:100C400083160313A3007208A2007108A1007008A4
:100C5000A00080302302031D392E00302202031D24
:100C6000392E00302102031D392E00302002031DD1
:100C7000392E03183C2E3D2E602E831603132708B1
:100C8000F3002608F2002508F1002408F000031004
:100C9000200DF400210DF500220DF600230DF700C4
:100CA0000A168A1133270A128A1173088312031352
:100CB000C6007208C5007108C4007008C300822E07
:100CC000831603132708F3002608F2002508F10015
:100CD0002408F0002308F7002208F6002108F50098
:100CE0002008F4000A168A1133270A128A11031009
:100CF000700D83120313C300710DC400720DC50083
:100D0000730DC6000030CA000030C9000130C800B1
:100D10000030C7004608CE004508CD004408CC008E
:100D20004308CB000A128A15E3200A128A118312A3
:100D300003134A08F3004908F2004808F100470885
:100D4000F0000030CA000030C9000130C800003097
:100D5000C7004608CE004508CD004408CC00430833
:100D6000CB000A128A15E3200A128A118312031398
:100D70004A08F7004908F6004808F5004708F4005B
:100D80000A168A1146260A128A117308831203135F
:100D9000A7007208A6007108A5007008A400003022
:100DA000CA000130C9000030C8000030C700270861
:100DB000F3002608F2002508F1002408F0000030B6
:100DC000F7000030F6000B30F500DE30F4000A16B4
:100DD0008A1146260A128A11730883120313CE0061
:100DE0007208CD007108CC007008CB000A128A1579
:100DF000E3200A128A11831203134A08A700490844
:100E0000A6004808A5004708A4000030CA00013029
:100E1000C9000030C8000030C7004608F30045088C
:100E2000F2004408F1004308F000FF30F700FF3003
:100E3000F600E330F5004330F4000A168A11462626
:100E40000A128A11730883120313CE007208CD00B0
:100E50007108CC007008CB000A128A15E3200A1230
:100E60008A11831203134A08A3004908A200480804
:100E7000A1004708A0000030CA000030C9000030BF
:100E8000C8001030C700CF30D5000E30D60000307B
:100E9000D7000030D80024082007D90000300318FC
:100EA00001302507DB010318DB0A2107DA000318EC
:100EB000DB0A26085B07DC010318DC0A2207DB00DB
:100EC0000318DC0A27085C072307DC005908D5074C
:100ED0005A0803185A0F6D2F6E2FD6075B08031898
:100EE0005B0F732F742FD7075C0803185C0AD807B1
:100EF0005808CE005708CD005608CC005508CB0046
:100F00000A128A15E3200A128A1183120313470872
:100F10004307DD000030031801304807DF010318E4
:100F2000DF0A4407DE000318DF0A49085F07E00113
:100F30000318E00A4507DF000318E00A4A086007C3
:100F40004607E0006008C6005F08C5005E08C400F0
:100F50005D08C3000030CA000030C9000030C8007E
:100F60006430C7004608CE004508CD004408CC00D8
:100F70004308CB000A128A15E3200A128A11831251
:100F800003134808AF004708AE0008008316031398
:100F90000A128A1103200A128A11ED000A128A111C
:100FA00004200A128A11EE00831203130A128A1116
:100FB00005200A128A11ED000A128A1106200A126F
:100FC0008A11EE008317903084009B300A168A1134
:100FD000A1220A128A118313A0308400ED300A1670
:100FE0008A11A1220A128A112030840047300A1681
:100FF0008A11A1220A128A1183010A128A11072872
:101000008316031311140A168A1191220A128A15E3
:1010100008008530831203139F00C030831603132A
:101020009F00831203131E08831603179100831673
:1010300003131E088316031790004130F100EE30B1
:10104000F000F00B2128F10B212800008D308312D5
:1010500003139F00C030831603139F0083120313F2
:101060001E08831603179300831603131E088316A6
:10107000031792004130F100EE30F000F00B3E28F3
:10108000F10B3E2800009530831203139F00C030FF
:10109000831603139F00831203131E08831603177E
:1010A0009500831603131E0883160317940041301E
:1010B000F100EE30F000F00B5B28F10B5B28000034
:1010C0009D30831203139F00C030831603139F00CB
:1010D000831203131E088316031797008316031346
:1010E0001E08831603179600080083120313E801F5
:1010F0006808E5006507903E840083170008E60055
:10110000840A0008E7006608D5006708D600D70102
:10111000D8010A128A1580210A128A1520300A166F
:101120008A1180250A128A1583120313E9016908BE
:10113000DC3E840083130008303E0A168A11E12247
:101140000A128A15831203136908031DA828A92807
:10115000B0282E300A168A11E1220A128A15BC28FC
:1011600002306906031DB528B628BC282C300A16A3
:101170008A11E1220A128A15013083120313E50055
:101180006508E90703306902031CC728C8289728A7
:10119000033083120313E7008A30E6005530E50080
:1011A000E50BD028E60BD028E70BD02801308312BE
:1011B0000313E5006508E80704306802031CE12812
:1011C000E2287828080083120313D001CA1FE928F7
:1011D000EA28F728C709C809C909CA09C70A0319AB
:1011E000C80A0319C90A0319CA0AD001D00ACE1FB6
:1011F000FA28FB280A29CB09CC09CD09CE09CB0A4C
:101200000319CC0A0319CD0A0319CE0A0130FD00D7
:101210007D08D0060030D4000030D3000030D2006A
:101220000030D1004A084904480447040319192929
:101230001A296729CF01CF0A2A290130FD0003109E
:10124000C70DC80DC90DCA0DFD0B1F290130FD00CA
:101250007D08CF07CA1F2D292E291D290130FD0029
:101260000310D10DD20DD30DD40DFD0B30294A083A
:101270004E02031D452949084D02031D4529480812
:101280004C02031D452947084B02031C48294929E4
:1012900058294708CB024808031C480FCC024908CC
:1012A000031C490FCD024A08031C4A0FCE025114F9
:1012B00001300310CA0CC90CC80CC70CFF3E031D3B
:1012C00059290130CF02031D662967292E295008AC
:1012D00003196B296C297729D109D209D309D409BB
:1012E000D10A0319D20A0319D30A0319D40A5408DC
:1012F000CA005308C9005208C8005108C7000800B6
:10130000003083120313CA000030C9000030C80047
:10131000C830C7005808F3005708F2005608F1001B
:101320005508F0000030F7000030F6000030F500FE
:101330006430F4000A168A1146260A128A157308C8
:1013400083120313CE007208CD007108CC00700820
:10135000CB000A128A15E3200A128A15831203139E
:101360004808E0004708DF000A30F0000030F100D4
:101370006008F3005F08F2000A168A1157240A1267
:101380008A15710883120313E4007008E3000A3021
:10139000F0000030F1006008F3005F08F2000A1668
:1013A0008A1102260A128A15710883120313E200B9
:1013B0007008E1006408DA006308D9000A30F00020
:1013C0000030F1006208F3006108F2000A168A1189
:1013D00057240A128A15710883120313E400700857
:1013E000E3006408DC006308DB000A30F000003032
:1013F000F1006208F3006108F2000A168A11022661
:101400000A128A15710883120313E4007008E300BE
:101410006408DE006308DD005D08303E0A168A11AC
:1014200080250A128A152E300A168A1180250A1282
:101430008A15831203135B08303E0A168A11802531
:101440000A128A15831203135908303E0A168A11AC
:1014500080250A128A15831203135E08F1005D08C5
:10146000F0005C08F3005B08F2005A08F500590828
:10147000F4000A168A111D230A128A150800AA30E0
:101480000A168A1191240A128A15F400F501F60150
:10149000F701770883160313DB007608DA00750876
:1014A000D9007408D800AB300A168A1191240A12A8
:1014B0008A15F400F501F601F70177088316031386
:1014C000D7007608D6007508D5007408D400AC3073
:1014D0000A168A1191240A128A15F400F501F60100
:1014E000F701770883160313D3007608D200750836
:1014F000D1007408D000AD300A168A1191240A1266
:101500008A15F400F501F601F70177088316031335
:10151000CF007608CE007508CD007408CC00AE3040
:101520000A168A1191240A128A15F400F501F601AF
:10153000F701770883160313CB007608CA007508F5
:10154000C9007408C800AF300A168A1191240A1223
:101550008A15F400F501F601F701770883160313E5
:10156000C7007608C6007508C5007408C400B0300E
:101570000A168A1191240A128A15F400F501F6015F
:10158000F701770883160313C3007608C2007508B5
:10159000C1007408C000B1300A168A1191240A12E1
:1015A0008A15F400F501F601F70177088316031395
:1015B000BF007608BE007508BD007408BC00B230DC
:1015C0000A168A1191240A128A15F400F501F6010F
:1015D000F701770883160313BB007608BA00750875
:1015E000B9007408B800B5300A168A1191240A129D
:1015F0008A15F400F501F601F70177088316031345
:10160000B3007608B2007508B1007408B000080095
:10161000831203136D08C70005300310C70DFF3E8A
:10162000031D0D2B0310470D343EC8004808F10080
:10163000F4300A168A11C3230A128A15A3308312C2
:101640000313C8005430C700C70B242BC80B242B2E
:101650000000F6300A168A1191240A128A158312A4
:101660000313C700C801C901CA014A08D7004908C5
:10167000D6004808D5004708D400F7300A168A116A
:1016800091240A128A1583120313C700C801C901E5
:10169000CA014A08DB004908DA004808D9004708AF
:1016A000D800F8300A168A1191240A128A1583127A
:1016B0000313C700C801C901CA014A08DF0049086D
:1016C000DE004808DD004708DC006D08083CC70064
:1016D000C70A5C08C8005D08C9005E08CA005F0848
:1016E000CB005808CC005908CD005A08CE005B0842
:1016F000CF0008300310CC0DCD0DCE0DCF0DFF3E29
:10170000031D7A2B5408D0005508D1005608D2008A
:101710005708D30010300310D00DD10DD20DD30DCA
:10172000FF3E031D8B2B5008CC0751080318510FA7
:101730009A2B9B2BCD0752080318520FA02BA12BDD
:10174000CE0753080318530ACF074C08C8074D08A3
:1017500003184D0FAC2BAD2BC9074E0803184E0FC5
:10176000B22BB32BCA074F0803184F0ACB07BD2B68
:101770004B0DCB0CCA0CC90CC80CC70BB82B4B08B3
:1017800083160313AF00831203134A08831603134F
:10179000AE0083120313490883160313AD008312AE
:1017A0000313480883160313AC0008000A168A11B5
:1017B0008C230A128A150A168A1100240A128A1525
:1017C000831203134203031DE62BE72B4F2C0A164B
:1017D0008A11C0250A128A1583120313D5005508F1
:1017E000BF000A168A11C0250A128A158312031334
:1017F000D5005508BE000A168A11C0250A128A159E
:1018000083120313D5005508C1000A168A11C0259A
:101810000A128A1583120313D5005508C0000A1650
:101820008A11C0250A128A1583120313D500D60126
:101830005508B0005608B1003F083E07D500D60154
:10184000D60D41085507D700003003180130560760
:10185000D80040085707D900003003180130580756
:10186000DA00FF305905DB0000305A05DC00310892
:101870005C06031D3D2C30085B06031D402C412CEB
:101880004F2C4108D500D6015508B4005608B500C4
:101890003F08D500D6015508B2005608B300943071
:1018A0000A168A1140250A128A1553300A168A111F
:1018B000E1230A128A1599300A168A1140250A1264
:1018C0008A15831203133508FA003408F9000A1246
:1018D0008A156E260A128A15831203133508FA0038
:1018E0003408F9000A128A110B210A128A152C30C9
:1018F0000A168A11E1220A128A159D300A168A11E7
:1019000040250A128A154D300A168A11E1230A125F
:101910008A15A2300A168A1140250A128A158312E6
:1019200003133308FA003208F9000A128A156E26EA
:101930000A128A15831203133308FA003208F900D9
:101940000A128A110B210A128A152C300A168A11E2
:10195000E1220A128A15080080300A168A114025F1
:101960000A128A158312031338080A168A110423EF
:101970000A128A150A168A1180250A128A158312FC
:10198000031338080A168A118C220A128A150A16BD
:101990008A1180250A128A153A300A168A11802582
:1019A0000A128A158312031337080A168A110423B0
:1019B0000A128A150A168A1180250A128A158312BC
:1019C000031337080A168A118C220A128A150A167E
:1019D0008A1180250A128A153A300A168A11802542
:1019E0000A128A158312031336080A168A11042371
:1019F0000A128A150A168A1180250A128A1583127C
:101A0000031336080A168A118C220A128A150A163E
:101A10008A1180250A128A152F300A168A1180250C
:101A20000A128A158312031339080A168A1104232D
:101A30000A128A150A168A1180250A128A1583123B
:101A4000031339080A168A118C220A128A150A16FB
:101A50008A1180250A128A158C300A168A114025AF
:101A60000A128A15831203133A080A168A110423EC
:101A70000A128A150A168A1180250A128A158312FB
:101A800003133A080A168A118C220A128A150A16BA
:101A90008A1180250A128A153A300A168A11802581
:101AA0000A128A15831203133B080A168A110423AB
:101AB0000A128A150A168A1180250A128A158312BB
:101AC00003133B080A168A118C220A128A150A1679
:101AD0008A1180250A128A153A300A168A11802541
:101AE0000A128A15831203133C080A168A1104236A
:101AF0000A128A150A168A1180250A128A1583127B
:101B000003133C080A168A118C220A128A150A1637
:101B10008A1180250A128A150800831203133808D7
:101B20000A168A1104230A128A150A168A11E1225A
:101B30000A128A158312031338080A168A118C2296
:101B40000A128A150A168A11E1220A128A153A30F7
:101B50000A168A11E1220A128A1583120313370822
:101B60000A168A1104230A128A150A168A11E1221A
:101B70000A128A158312031337080A168A118C2257
:101B80000A128A150A168A11E1220A128A153A30B7
:101B90000A168A11E1220A128A15831203133608E3
:101BA0000A168A1104230A128A150A168A11E122DA
:101BB0000A128A158312031336080A168A118C2218
:101BC0000A128A150A168A11E1220A128A152C3085
:101BD0000A168A11E1220A128A15831203133908A0
:101BE0000A168A1104230A128A150A168A11E1229A
:101BF0000A128A158312031339080A168A118C22D5
:101C00000A128A150A168A11E1220A128A152C3044
:101C10000A168A11E1220A128A15831203133A085E
:101C20000A168A1104230A128A150A168A11E12259
:101C30000A128A15831203133A080A168A118C2293
:101C40000A128A150A168A11E1220A128A153A30F6
:101C50000A168A11E1220A128A15831203133B081D
:101C60000A168A1104230A128A150A168A11E12219
:101C70000A128A15831203133B080A168A118C2252
:101C80000A128A150A168A11E1220A128A153A30B6
:101C90000A168A11E1220A128A15831203133C08DC
:101CA0000A168A1104230A128A150A168A11E122D9
:101CB0000A128A15831203133C080A168A118C2211
:101CC0000A128A150A168A11E1220A128A152C3084
:101CD0000A168A11E1220A128A15080000307A02D7
:101CE0000A30031979020318762E772E7F2E790891
:101CF000303E0A168A1180250A128A15FF2F0030FD
:101D00007A020A3003197902031C872E882ECC2E02
:101D100000307A026430031979020318902E912E54
:101D2000CC2E0A30F0000030F1007A08F300790878
:101D3000F2000A168A1157240A128A1571088312B2
:101D40000313D4007008D3005408CE005308CD000C
:101D50000A30F0000030F1007A08F3007908F20050
:101D60000A168A1102260A128A15710883120313B1
:101D7000D0007008CF004F08303E0A168A11802527
:101D80000A128A15831203134D08303E0A168A116F
:101D900080250A128A15FF2F00307A026430031959
:101DA0007902031CD42ED52E4C2F03307A02E83052
:101DB000031979020318DD2EDE2E4C2F0A30F000B5
:101DC0000030F1007A08F3007908F2000A168A114F
:101DD00057240A128A15710883120313D40070085D
:101DE000D3000A30F0000030F1007A08F3007908DF
:101DF000F2000A168A1102260A128A157108831245
:101E00000313D2007008D1005408CE005308CD004F
:101E10000A30F0000030F1005208F3005108F200DF
:101E20000A168A11DA260A128A1571088312031318
:101E3000D4007008D3005408D0005308CF000A30F3
:101E4000F0000030F1005208F3005108F2000A16C9
:101E50008A1199270A128A15710883120313CC007C
:101E60007008CB004B08303E0A168A1180250A12F2
:101E70008A15831203134F08303E0A168A118025F3
:101E80000A128A15831203134D08303E0A168A116E
:101E900080250A128A15FF2F03307A02E8300319D1
:101EA0007902031C542F552FFF2F27307A020F3051
:101EB0000319790203185D2F5E2FFF2F0A30F000FF
:101EC0000030F1007A08F3007908F2000A168A114E
:101ED00057240A128A15710883120313D40070085C
:101EE000D3000A30F0000030F1007A08F3007908DE
:101EF000F2000A168A1102260A128A157108831244
:101F00000313D2007008D1005408CE005308CD004E
:101F10000A30F0000030F1005208F3005108F200DE
:101F20000A168A11DA260A128A1571088312031317
:101F3000D4007008D3005408D0005308CF000A30F2
:101F4000F0000030F1005208F3005108F2000A16C8
:101F50008A1199270A128A15710883120313CA007D
:101F60007008C9000A30F0000030F1004A08F300A0
:101F70004908F2000A168A11DA260A128A1571082F
:101F800083120313D4007008D3005408CC00530804
:101F9000CB000A30F0000030F1004A08F300490895
:101FA000F2000A168A1199270A128A1571088312FB
:101FB0000313C8007008C7004708303E0A168A118C
:101FC00080250A128A15831203134B08303E0A1625
:101FD0008A1180250A128A15831203134F08303E96
:101FE0000A168A1180250A128A15831203134D08D6
:101FF000303E0A168A1180250A128A15FF2F080022
:1020000010308A000408840A820700340034003447
:1020100080343F341834723431343F34F034FD347A
:1020200075343E344734583463343D345834953431
:102030001D343C348234C434AE343A34A834783459
:1020400021343934EF34933480343734A03492342B
:10205000A73435344634563415343434003400341F
:1020600000340034C434FF347F343F348034EF34E0
:10207000FF34BE349034E134A9343E34EC3482343D
:102080007634BE348234AD342B343E340E343C349A
:10209000C334BD348734D13413343D3441347834BF
:1020A000D334BB34483475346D3469343A34003435
:1020B000543465346D3470343A34003468345034F8
:1020C00061343A34003441346C3474343A3400347A
:10251800F00070080F39303E0800831203138C1D39
:10252800962A972A912A8C110800831203138C1D6E
:102538009E2A9F2A992A8C11080064008001840A27
:102548000406031900340406A22A831603139114FF
:102558000A168A1191220A168A1108008316031393
:1025680011150A168A1191220A168A110800831673
:10257800031391140A168A1199220A168A1108005F
:102588008316031311150A168A1199220A168A113D
:10259800080083160313911611160A168A11912240
:1025A8000A168A11080083160313911611160A16C3
:1025B8008A1199220A168A110800F00070088312FD
:1025C800031399000C1EE92AEA2AE62A0C120800CD
:1025D8008316031391150A168A1191220A168A1175
:1025E80083120313130808008316031391150A16A0
:1025F8008A1199220A168A118312031313080800F4
:10260800F1007108F00004300310F00CFF3E031DC8
:10261800082B7008303E08002030831603139800FA
:1026280090308312031398001F3083160313990008
:1026380008007008F600760883160313DC00720899
:10264800F6007608DD007408F6007608DE0008005B
:10265800F00070088312031393000A168A1191225E
:102668000A168A1183160313111B3B2B3C2B2D2BA7
:102678000800F00070088312031393000A168A11E9
:1026880099220A168A1183160313111B4C2B4D2B02
:10269800472B0800831603136E08FA006D08F9002B
:1026A8000A128A110B210A168A1129300A168A1170
:1026B800E1220A168A110800831603130716071A5F
:1026C800662B6A2B8316031387156D2B831603134A
:1026D80087112830831203139400FF3083160313E5
:1026E80093000800831603130716071A7C2B802B08
:1026F800831603138715832B83160313871128303A
:10270800831203139400FF30831603139300080009
:10271800831603130810831203130810A330F10063
:102728005530F000F00B962BF10B962B8312031308
:1027380008143130F000F00B9F2BA22B83160313E3
:1027480008140800831203132F08FA002E08F90052
:102758000A128A110B210A168A112C300A168A11BC
:10276800E1220A168A11831203132D08FA002C0895
:10277800F9000A128A110B210A168A110800F200C0
:102788000A128A1500200A168A11EE300A168A11D2
:102798002C230A168A1172080A168A112C230A1683
:1027A8008A1171080A168A112C230A168A110A1628
:1027B8008A11B2220A168A110800F400F32B740851
:1027C80084000A168A1100200A168A110A168A112C
:1027D80080250A168A110130F3007308F40774087B
:1027E80084000A168A1100200A168A11003A031D6D
:1027F800FE2BFF2BE32B080083120313C201423088
:10280800F000F00B052C00008312031308180D2CA0
:102818000E2C202C8530F000F00B102C83120313A3
:10282800081C172C182C202C5330F000F00B1A2CF5
:1028380083120313C201C20A080083160313861306
:102848000613861206120710871002300A168A111C
:1028580040250A168A1128300A168A1140250A16B8
:102868008A1180300A168A1140250A168A110C30FE
:102878000A168A1140250A168A1106300A168A1184
:1028880040250A168A1101300A168A1140250A16AF
:102898008A114130F400EE30F300F30B512CF40BA5
:1028A800512C000008007008710403195C2C5D2C81
:1028B8008C2CF501F50A6B2C01300310F00DF10D8D
:1028C800FF3E031D612C0130F4007408F507F11F69
:1028D8006E2C6F2C602C71087302031D752C700808
:1028E8007202031C782C792C7F2C7008F202710874
:1028F800031CF303F30201300310F10CF00CFF3E4C
:10290800031D802C0130F502031D8B2C8C2C6F2CA1
:102918007308F1007208F0000800F2000A168A1124
:10292800A9220A168A11EE308312031393000A169D
:102938008A1191220A168A1183160313111BA52CDA
:10294800A62C922C72080A168A112C230A168A11B0
:102958000A168A11A9220A168A11EF300A168A1154
:102968002C230A168A110A168A11EC220A168A11D1
:10297800F1007108F3000A168A11CD220A168A118D
:102988000A168A11B2220A168A1173080800F20080
:102998000A168A11BB220A168A11D0308312031331
:1029A80093000A168A1199220A168A1183160313AC
:1029B800111BDF2CE02CCC2C72080A168A113D233F
:1029C8000A168A110A168A11BB220A168A11D130F0
:1029D8000A168A113D230A168A110A168A11F82244
:1029E8000A168A11F1007108F3000A168A11D72213
:1029F8000A168A110A168A11C4220A168A1173083D
:102A08000800D4300A168A1140250A168A1159304E
:102A18000A168A11E1230A168A11D9300A168A1170
:102A280040250A168A11831203132F08FA002E086C
:102A3800F9000A128A156E260A168A11DE300A165D
:102A48008A1140250A168A115E300A168A11E12376
:102A58000A168A11E3300A168A1140250A168A11C5
:102A6800831203132D08FA002C08F9000A128A159C
:102A78006E260A168A110800F20083120313071043
:102A88007208860087144130F100EE30F000F00B38
:102A98004B2DF10B4B2D000083120313871041308F
:102AA800F100EE30F000F00B572DF10B572D000020
:102AB8007208F00003300310F00DFF3E031D5F2D78
:102AC8000310700D83120313860087144130F10040
:102AD800EE30F000F00B6E2DF10B6E2D000083121E
:102AE800031387104130F100EE30F000F00B7A2D1F
:102AF800F10B7A2D00000800F2008312031307146B
:102B08007208860087144130F100EE30F000F00BB7
:102B18008B2DF10B8B2D000083120313871041308E
:102B2800F100EE30F000F00B972DF10B972D00001F
:102B38007208F00003300310F00DFF3E031D9F2DB7
:102B48000310700D83120313860087144130F100BF
:102B5800EE30F000F00BAE2DF10BAE2D000083121D
:102B6800031387104130F100EE30F000F00BBA2D5E
:102B7800F10BBA2D00000800F30183120313081C9F
:102B8800C62DC72DC12D3130F000F00BC92DCC2D2D
:102B9800831203130818D12DD22DE32D0130F00034
:102BA8007308073C013EDA2D0310F00DFF3E031DAC
:102BB800D82D7008FF3AF1007108F205F62D0130A2
:102BC800F0007308073C013EEB2D0310F00DFF3EAB
:102BD800031DE92D7008F1007108F2040818F52D9D
:102BE800F62DF22D0130F0007008F307083073025B
:102BF800031CFF2D002EC12D72080800F501F601F7
:102C0800700871040319092E0A2E412EF701F70ADC
:102C1800182E01300310F00DF10DFF3E031D0E2E8E
:102C28000130F4007408F707F11F1B2E1C2E0D2E1F
:102C380001300310F50DF60DFF3E031D1D2E710822
:102C48007302031D292E70087202031C2C2E2D2ED0
:102C5800342E7008F2027108031CF303F302751492
:102C680001300310F10CF00CFF3E031D352E01302E
:102C7800F702031D402E412E1C2E7608F100750820
:102C8800F00008000030FC000030FB000030FA00C3
:102C98000030F900701C512E522E692E7408F90765
:102CA800750803110318013E03195B2EFA0776080D
:102CB80003110318013E0319622EFB07770803115D
:102CC8000318013E0319692EFC070130F8000310B0
:102CD800F40DF50DF60DF70DF80B6B2E0130031002
:102CE800F30CF20CF10CF00CFF3E031D732E73086D
:102CF800720471047004031D822E832E4E2E7C08EC
:102D0800F3007B08F2007A08F1007908F000080067
:102D180000300A168A11CB240A168A11F4007408A6
:102D280083120313BC0001300A168A11CB240A1639
:102D38008A11F400740883120313BB0002300A16C8
:102D48008A11CB240A168A11F4007408831203131B
:102D5800BA0003300A168A11CB240A168A11F40025
:102D6800740883120313B90004300A168A11CB249D
:102D78000A168A11F400740883120313B800053088
:102D88000A168A11CB240A168A11F40074088312D1
:102D98000313B70006300A168A11CB240A168A11C3
:102DA800F400740883120313B6000800F601F31F39
:102DB800DE2EDF2EE62EF209F309F20A0319F30AD2
:102DC800F601F60AF11FE92EEA2EEF2EF009F109B5
:102DD800F00A0319F10A700871040319F42EF52E8C
:102DE800242FF501F50A032F01300310F00DF10D22
:102DF800FF3E031DF92E0130F4007408F507F11F9A
:102E0800062F072FF82E71087302031D0D2F700867
:102E18007202031C102F112F172F7008F20271086D
:102E2800031CF303F30201300310F10CF00CFF3E16
:102E3800031D182F0130F502031D232F242F072F00
:102E480076080319282F292F2E2FF209F309F20AE1
:102E58000319F30A7308F1007208F0000800003043
:102E6800FC000030FB000030FA000030F900730865
:102E78007204710470040319422F432F902FFD012F
:102E8800FD0A532F0130F8000310F00DF10DF20D7B
:102E9800F30DF80B482F0130F8007808FD07F31FF1
:102EA800562F572F462F0130F8000310F90DFA0D51
:102EB800FB0DFC0DF80B592F73087702031D6E2FBD
:102EC80072087602031D6E2F71087502031D6E2F9E
:102ED80070087402031C712F722F812F7008F4027E
:102EE8007108031C710FF5027208031C720FF602B9
:102EF8007308031C730FF702791401300310F30CE5
:102F0800F20CF10CF00CFF3E031D822F0130FD0284
:102F1800031D8F2F902F572F7C08F3007B08F2009A
:102F28007A08F1007908F0000800F601F11F9D2FDA
:102F38009E2FA52FF009F109F00A0319F10AF601ED
:102F4800F60AF31FA82FA92FB22FF209F309F20AE4
:102F58000319F30A0130F4007408F606F701F801C2
:102F6800700871040319B92FBA2FF12FF501F50A6A
:102F7800C82F01300310F00DF10DFF3E031DBE2FC9
:102F88000130F4007408F507F11FCB2FCC2FBD2FAB
:102F980001300310F70DF80DFF3E031DCD2F71080A
:102FA8007302031DD92F70087202031CDC2FDD2F5A
:102FB800E42F7008F2027108031CF303F30277147C
:102FC80001300310F10CF00CFF3E031DE52F01301A
:102FD800F502031DF02FF12FCC2F76080319F52FDA
:102FE800F62FFB2FF709F809F70A0319F80A7808EA
:082FF800F1007708F000080069
:08400000FF3FFF3FFF3FFF3FC0
:02400E00FA3F77
:00000001FF
