:100000000A128A11EF2F00308A000408840A82073E
:060010000034203400342E
:1007D400F00070088312031399000C1EF22BF32B04
:1007E400EF2B0C120800203083160313980090306E
:1007F4008312031398001F30831603139900080013
:100804007008F600760883120313CB007208F60012
:100814007608CC007408F6007608CD000800023093
:100824000A128A1179240A128A1128300A128A11AA
:1008340079240A128A1180300A128A1179240A1240
:100844008A110C300A128A1179240A128A1106308C
:100854000A128A1179240A128A1101300A128A11A1
:1008640079240A128A114130F400EE30F300F30BBC
:10087400392CF40B392C000008007008710403199A
:10088400442C452C742CF501F50A532C013003102B
:10089400F00DF10DFF3E031D492C0130F4007408E6
:1008A400F507F11F562C572C482C71087302031DB1
:1008B4005D2C70087202031C602C612C672C70087C
:1008C400F2027108031CF303F30201300310F10C6C
:1008D400F00CFF3E031D682C0130F502031D732C40
:1008E400742C572C7308F1007208F0000800F20011
:1008F4008312031307107208860087144130F10035
:10090400EE30F000F00B842CF10B842C00008312E9
:10091400031387104130F100EE30F000F00B902CFF
:10092400F10B902C00007208F00003300310F00D5E
:10093400FF3E031D982C0310700D831203138600D1
:1009440087144130F100EE30F000F00BA72CF10BCE
:10095400A72C00008312031387104130F100EE30FE
:10096400F000F00BB32CF10BB32C00000800F200E4
:100974008312031307147208860087144130F100B0
:10098400EE30F000F00BC42CF10BC42C00008312E9
:10099400031387104130F100EE30F000F00BD02C3F
:1009A400F10BD02C00007208F00003300310F00D9E
:1009B400FF3E031DD82C0310700D83120313860011
:1009C40087144130F100EE30F000F00BE72CF10B0E
:1009D400E72C00008312031387104130F100EE303E
:1009E400F000F00BF32CF10BF32C00000800F501E0
:1009F400F601700871040319002D012D382DF7013B
:100A0400F70A0F2D01300310F00DF10DFF3E031D09
:100A1400052D0130F4007408F707F11F122D132D72
:100A2400042D01300310F50DF60DFF3E031D142DAA
:100A340071087302031D202D70087202031C232DFC
:100A4400242D2B2D7008F2027108031CF303F3020A
:100A5400751401300310F10CF00CFF3E031D2C2D16
:100A64000130F702031D372D382D132D7608F100C0
:100A74007508F00008000030FC000030FB00003076
:100A8400FA000030F900701C482D492D602D7408BF
:100A9400F907750803110318013E0319522DFA07CB
:100AA400760803110318013E0319592DFB07770833
:100AB40003110318013E0319602DFC070130F800EF
:100AC4000310F40DF50DF60DF70DF80B622D013042
:100AD4000310F30CF20CF10CF00CFF3E031D6A2D15
:100AE4007308720471047004031D792D7A2D452D49
:100AF4007C08F3007B08F2007A08F1007908F00022
:100B040008008530831203139F00C030831603133B
:100B14009F00831203131E08C400831603131E08C8
:100B240083120313C3004130F100EE30F000F00BE8
:100B3400992DF10B992D00008D30831203139F0022
:100B4400C030831603139F00831203131E08C600CC
:100B5400831603131E0883120313C5004130F100EA
:100B6400EE30F000F00BB42DF10BB42D00009530F5
:100B7400831203139F00C030831603139F00831254
:100B840003131E08C800831603131E0883120313DD
:100B9400C7004130F100EE30F000F00BCF2DF10B27
:100BA400CF2D00009D30831203139F00C0308316A5
:100BB40003139F00831203131E08CA008316031332
:100BC4001E0883120313C900080083120313A9012A
:100BD400A31FED2DEE2DFB2DA009A109A209A30948
:100BE400A00A0319A10A0319A20A0319A30AA90155
:100BF400A90AA71FFE2DFF2D0E2EA409A509A609DB
:100C0400A709A40A0319A50A0319A60A0319A70A1E
:100C14000130FD007D08A9060030AD000030AC00B5
:100C24000030AB000030AA00230822042104200471
:100C340003191D2E1E2E6B2EA801A80A2E2E01307C
:100C4400FD000310A00DA10DA20DA30DFD0B232E7D
:100C54000130FD007D08A807A31F312E322E212E5E
:100C64000130FD000310AA0DAB0DAC0DAD0DFD0B55
:100C7400342E23082702031D492E22082602031DB1
:100C8400492E21082502031D492E20082402031C95
:100C94004C2E4D2E5C2E2008A4022108031C210F8B
:100CA400A5022208031C220FA6022308031C230FFB
:100CB400A7022A1401300310A30CA20CA10CA00C4F
:100CC400FF3E031D5D2E0130A802031D6A2E6B2E0C
:100CD400322E290803196F2E702E7B2EAA09AB0918
:100CE400AC09AD09AA0A0319AB0A0319AC0A031922
:100CF400AD0A2D08A3002C08A2002B08A1002A0885
:100D0400A000080083160313860187010A128A11C2
:100D140011240A128A110A128A11F5230A128A115D
:100D24000A128A1183250A128A11831203131F15CA
:100D34001F199D2E9E2E9A2E413083120313BF003D
:100D4400ED30BE00BE0BA42EBF0BA42EA92E831221
:100D54000313C1014108BE003E07433E84008313D0
:100D64000008BF00840A0008C0003F08AE00400825
:100D7400AF00B001B1010A128A1130270A128A1198
:100D840001300A128A11B9240A128A118312031338
:100D9400C20142084B3E840083130008303E0A120D
:100DA4008A11EA230A128A11831203134208031DCB
:100DB400DC2EDD2EE42E2E300A128A11EA230A12CA
:100DC4008A11F02E02304206031DE92EEA2EF02E7F
:100DD4002C300A128A11EA230A128A110130831272
:100DE4000313BE003E08C20703304202031CFB2E5D
:100DF400FC2ECB2E0D3083120313C000AF30BF0086
:100E0400B530BE00BE0B042FBF0B042FC00B042F44
:100E14000B2F013083120313BE003E08C1070430B8
:100E24004102031C162F172FAC2E01300A128A110F
:100E340079240A128A111A3083120313C0005E3017
:100E4400BF006D30BE00BE0B252FBF0B252FC00B7E
:100E5400252F2C2F922E0A128A110028003083127B
:100E64000313A3000030A2000030A100C830A0008A
:100E74003108F3003008F2002F08F1002E08F000CA
:100E84000030F7000030F6000030F5006430F40064
:100E94000A128A113D250A128A1173088312031358
:100EA400A7007208A6007108A5007008A4000A1221
:100EB4008A11E7250A128A11831203132108B90043
:100EC4002008B8000A30F0000030F1003908F300BF
:100ED4003808F2000A128A113F240A128A11710892
:100EE40083120313BD007008BC000A30F000003008
:100EF400F1003908F3003808F2000A128A11F924C3
:100F04000A128A11710883120313BB007008BA0015
:100F14003D08B3003C08B2000A30F0000030F10094
:100F24003B08F3003A08F2000A128A113F240A121D
:100F34008A11710883120313BD007008BC003D08B8
:100F4400B5003C08B4000A30F0000030F1003B0862
:100F5400F3003A08F2000A128A11F9240A128A11DB
:100F6400710883120313BD007008BC003D08B7006C
:100F74003C08B6003608303E0A128A11B9240A1217
:100F84008A112E300A128A11B9240A128A11831284
:100F940003133408303E0A128A11B9240A128A1142
:100FA400831203133208303E0A128A11B9240A123A
:100FB4008A11831203133708F1003608F00035084C
:100FC400F3003408F2003308F5003208F4000A1282
:100FD4008A1102240A128A11080083120313C3011E
:100FE400C401C501C601C701C801C901CA01CB01B9
:0C0FF400CC01CD0183010A128A11842E69
:08400000FF3FFF3FFF3FFF3FC0
:02400E00FA3F77
:00000001FF
