:060000000A128A11E72F2D
:1000080001340034F601F31F0A280B281228F209DC
:10001800F309F20A0319F30AF601F60AF11F152883
:1000280016281B28F009F109F00A0319F10A7008CB
:1000380071040319202821285028F501F50A2F28D2
:1000480001300310F00DF10DFF3E031D252801308E
:10005800F4007408F507F11F3228332824287108A2
:100068007302031D392870087202031C3C283D28BE
:1000780043287008F2027108031CF303F3020130ED
:100088000310F10CF00CFF3E031D44280130F5026B
:10009800031D4F285028332876080319542855285B
:1000A8005A28F209F309F20A0319F30A7308F1004E
:1000B8007208F00008000A128A1583240A128A11AD
:1000C8000A128A15D4230A128A1101300A128A15D3
:1000D8002D250A128A110A128A1501240A128A1178
:1000E8000A128A1513240A128A110A128A15792605
:1000F8000A128A110A128A1101230A128A110A1293
:100108008A11E2230A128A110A128A15C7260A12CC
:100118008A11831203131F151F19932894289028F6
:10012800413083120313C400ED30C300C30B9A2877
:10013800C40B9A289F28C0300A128A152D250A1246
:100148008A110A128A1592270A128A110A128A112A
:100158002B220A128A110D300A128A15B1230A12AB
:100168008A11073083120313C5005830C400593070
:10017800C300C30BBD28C40BBD28C50BBD28013067
:1001880083120313EB070318EC0A0030EC07692805
:100198000A128A11002883120313A901A31FD52864
:1001A800D628E328A009A109A209A309A00A0319CE
:1001B800A10A0319A20A0319A30AA901A90AA71FD8
:1001C800E628E728F628A409A509A609A709A40A84
:1001D8000319A50A0319A60A0319A70A0130FD0085
:1001E8007D08A9060030AD000030AC000030AB003F
:1001F8000030AA0023082204210420040319052939
:1002080006295329A801A80A16290130FD00031060
:10021800A00DA10DA20DA30DFD0B0B290130FD00B2
:100228007D08A807A31F19291A2909290130FD00EB
:100238000310AA0DAB0DAC0DAD0DFD0B1C29230849
:100248002702031D312922082602031D312921080E
:100258002502031D312920082402031C34293529CD
:1002680044292008A4022108031C210FA502220802
:10027800031C220FA6022308031C230FA7022A141B
:1002880001300310A30CA20CA10CA00CFF3E031D0F
:1002980045290130A802031D522953291A29290882
:1002A8000319572958296329AA09AB09AC09AD09CB
:1002B800AA0A0319AB0A0319AC0A0319AD0A2D08D7
:1002C800A3002C08A2002B08A1002A08A0000800FF
:1002D800003083120313A3000030A2000030A100F5
:1002E800C830A0003108F3003008F2002F08F100F0
:1002F8002E08F0000030F7000030F6000030F5005E
:100308006430F4000A128A1533260A128A11730817
:1003180083120313A7007208A6007108A5007008CD
:10032800A4000A128A11CF200A128A118312031319
:100338002108B9002008B8000A30F0000030F100A8
:100348003908F3003808F2000A128A15B9240A128B
:100358008A11710883120313BD007008BC000A30AB
:10036800F0000030F1003908F3003808F2000A12F2
:100378008A15EF250A128A11710883120313BB002C
:100388007008BA003D08B3003C08B2000A30F0001B
:100398000030F1003B08F3003A08F2000A128A150F
:1003A800B9240A128A11710883120313BD00700858
:1003B800BC003D08B5003C08B4000A30F00000302D
:1003C800F1003B08F3003A08F2000A128A15EF25FB
:1003D8000A128A11710883120313BD007008BC0049
:1003E8003D08B7003C08B6003608303E0A128A15A8
:1003F8006D250A128A112E300A128A156D250A12E5
:100408008A11831203133408303E0A128A156D25A7
:100418000A128A11831203133208303E0A128A150F
:100428006D250A128A11831203133708F100360862
:10043800F0003508F3003408F2003308F5003208FC
:10044800F4000A128A15E1230A128A1108000A1216
:100458008A1529240A128A110A128A1562240A1294
:100468008A11831203136A03031D3B2A3C2AA42A18
:100478000A128A15AD250A128A1183120313AE00D7
:100488002E08E7000A128A15AD250A128A1183126E
:100498000313AE002E08E6000A128A15AD250A12CB
:1004A8008A1183120313AE002E08E9000A128A1576
:1004B800AD250A128A1183120313AE002E08E80034
:1004C8000A128A15AD250A128A1183120313AE0087
:1004D800AF012E08D8002F08D90067086607AE00BC
:1004E800AF01AF0D69082E07B000003003180130C6
:1004F8002F07B10068083007B20000300318013038
:100508003107B300FF303205B40000303305B500C1
:1005180059083506031D922A58083406031D952AE2
:10052800962AA42A6908AE00AF012E08DC002F081D
:10053800DD006708AE00AF012E08DA002F08DB00E7
:1005480094300A128A152D250A128A1107300A12C8
:100558008A1543240A128A1199300A128A152D2500
:100568000A128A11831203135D08FA005C08F90065
:100578000A128A11C3240A128A11831203135D080E
:10058800FA005C08F9000A128A1155260A128A1123
:100598002C300A128A15B1230A128A119D300A12C8
:1005A8008A152D250A128A1101300A128A15432448
:1005B8000A128A11A2300A128A152D250A128A11E6
:1005C800831203135B08FA005A08F9000A128A1109
:1005D800C3240A128A11831203135B08FA005A080B
:1005E800F9000A128A1155260A128A112C300A12A9
:1005F8008A15B1230A128A11080080300A128A1556
:100608002D250A128A118312031362080A128A1509
:10061800C8230A128A110A128A156D250A128A112C
:100628008312031362080A128A1580230A128A1198
:100638000A128A156D250A128A113A300A128A1589
:100648006D250A128A118312031363080A128A1588
:10065800C8230A128A110A128A156D250A128A11EC
:100668008312031363080A128A1580230A128A1157
:100678000A128A156D250A128A113A300A128A1549
:100688006D250A128A118312031364080A128A1547
:10069800C8230A128A110A128A156D250A128A11AC
:1006A8008312031364080A128A1580230A128A1116
:1006B8000A128A156D250A128A1189300A128A15BA
:1006C8002D250A128A118312031360080A128A154B
:1006D800C8230A128A110A128A156D250A128A116C
:1006E8008312031360080A128A1580230A128A11DA
:1006F8000A128A156D250A128A113A300A128A15C9
:100708006D250A128A11831203135F080A128A15CB
:10071800C8230A128A110A128A156D250A128A112B
:10072800831203135F080A128A1580230A128A119A
:100738000A128A156D250A128A113A300A128A1588
:100748006D250A128A11831203135E080A128A158C
:10075800C8230A128A110A128A156D250A128A11EB
:10076800831203135E080A128A1580230A128A115B
:100778000A128A156D250A128A112F300A128A1553
:100788006D250A128A118312031361080A128A1549
:10079800C8230A128A110A128A156D250A128A11AB
:1007A8008312031361080A128A1580230A128A1118
:1007B8000A128A156D250A128A110800831203137A
:1007C80062080A128A15C8230A128A110A128A159F
:1007D800B1230A128A118312031362080A128A15B6
:1007E80080230A128A110A128A15B1230A128A1161
:1007F8003A300A128A15B1230A128A118312031396
:1008080063080A128A15C8230A128A110A128A155D
:10081800B1230A128A118312031363080A128A1574
:1008280080230A128A110A128A15B1230A128A1120
:100838003A300A128A15B1230A128A118312031355
:1008480064080A128A15C8230A128A110A128A151C
:10085800B1230A128A118312031364080A128A1533
:1008680080230A128A110A128A15B1230A128A11E0
:100878002C300A128A15B1230A128A118312031323
:1008880060080A128A15C8230A128A110A128A15E0
:10089800B1230A128A118312031360080A128A15F7
:1008A80080230A128A110A128A15B1230A128A11A0
:1008B8003A300A128A15B1230A128A1183120313D5
:1008C8005F080A128A15C8230A128A110A128A15A1
:1008D800B1230A128A11831203135F080A128A15B8
:1008E80080230A128A110A128A15B1230A128A1160
:1008F8003A300A128A15B1230A128A118312031395
:100908005E080A128A15C8230A128A110A128A1561
:10091800B1230A128A11831203135E080A128A1578
:1009280080230A128A110A128A15B1230A128A111F
:100938002C300A128A15B1230A128A118312031362
:1009480061080A128A15C8230A128A110A128A151E
:10095800B1230A128A118312031361080A128A1535
:1009680080230A128A110A128A15B1230A128A11DF
:100978002C300A128A15B1230A128A110800003095
:100988007A020A30031979020318CB2CCC2CD42C08
:100998007908303E0A128A156D250A128A11542EDA
:1009A80000307A020A3003197902031CDC2CDD2C92
:1009B800212D00307A026430031979020318E52CDE
:1009C800E62C212D0A30F0000030F1007A08F300FF
:1009D8007908F2000A128A15B9240A128A117108D4
:1009E80083120313AD007008AC002D08A7002C0873
:1009F800A6000A30F0000030F1007A08F300790808
:100A0800F2000A128A15EF250A128A117108831258
:100A18000313A9007008A8002808303E0A128A1596
:100A28006D250A128A11831203132608303E0A1212
:100A38008A156D250A128A11542E00307A02643004
:100A480003197902031C292D2A2DA12D03307A02BE
:100A5800E830031979020318322D332DA12D0A30FD
:100A6800F0000030F1007A08F3007908F2000A1269
:100A78008A15B9240A128A11710883120313AD006A
:100A88007008AC000A30F0000030F1007A08F3007A
:100A98007908F2000A128A15EF250A128A117108DC
:100AA80083120313AB007008AA002D08A7002C08B6
:100AB800A6000A30F0000030F1002B08F3002A08E5
:100AC800F2000A128A1106200A128A11710883128A
:100AD8000313AD007008AC002D08A9002C08A8006D
:100AE8000A30F0000030F1002B08F3002A08F20069
:100AF8000A128A152B270A128A1171088312031306
:100B0800A5007008A4002408303E0A128A156D2535
:100B18000A128A11831203132808303E0A128A1512
:100B28006D250A128A11831203132608303E0A1211
:100B38008A156D250A128A11542E03307A02E8307C
:100B480003197902031CA92DAA2D542E27307A02E5
:100B58000F30031979020318B22DB32D542E0A3021
:100B6800F0000030F1007A08F3007908F2000A1268
:100B78008A15B9240A128A11710883120313AD0069
:100B88007008AC000A30F0000030F1007A08F30079
:100B98007908F2000A128A15EF250A128A117108DB
:100BA80083120313AB007008AA002D08A7002C08B5
:100BB800A6000A30F0000030F1002B08F3002A08E4
:100BC800F2000A128A1106200A128A117108831289
:100BD8000313AD007008AC002D08A9002C08A8006C
:100BE8000A30F0000030F1002B08F3002A08F20068
:100BF8000A128A152B270A128A1171088312031305
:100C0800A3007008A2000A30F0000030F1002308A9
:100C1800F3002208F2000A128A1106200A128A1129
:100C2800710883120313AD007008AC002D08A500ED
:100C38002C08A4000A30F0000030F1002308F3006B
:100C48002208F2000A128A152B270A128A11710843
:100C580083120313A1007008A0002008303E0A1276
:100C68008A156D250A128A11831203132408303E4F
:100C78000A128A156D250A128A118312031328088D
:100C8800303E0A128A156D250A128A11831203133F
:100C98002608303E0A128A156D250A128A11542E2A
:100CA800080000307A020A300319790203185D2E11
:100CB8005E2E662E7908303E0A128A15B1230A1272
:100CC8008A11E62F00307A020A3003197902031CD0
:100CD8006E2E6F2EB32E00307A026430031979021B
:100CE8000318772E782EB32E0A30F0000030F1006A
:100CF8007A08F3007908F2000A128A15B9240A1250
:100D08008A11710883120313AD007008AC002D0816
:100D1800A7002C08A6000A30F0000030F1007A087D
:100D2800F3007908F2000A128A15EF250A128A11CF
:100D3800710883120313A9007008A8002808303E20
:100D48000A128A15B1230A128A118312031326087C
:100D5800303E0A128A15B1230A128A11E62F003092
:100D68007A02643003197902031CBB2EBC2E332F80
:100D780003307A02E830031979020318C42EC52E0D
:100D8800332F0A30F0000030F1007A08F3007908B8
:100D9800F2000A128A15B9240A128A1171088312FC
:100DA8000313AD007008AC000A30F0000030F10009
:100DB8007A08F3007908F2000A128A15EF250A1258
:100DC8008A11710883120313AB007008AA002D085A
:100DD800A7002C08A6000A30F0000030F1002B080C
:100DE800F3002A08F2000A128A1106200A128A1150
:100DF800710883120313AD007008AC002D08A90018
:100E08002C08A8000A30F0000030F1002B08F3008D
:100E18002A08F2000A128A152B270A128A11710869
:100E280083120313A5007008A4002408303E0A1298
:100E38008A15B1230A128A11831203132808303E37
:100E48000A128A15B1230A128A118312031326087B
:100E5800303E0A128A15B1230A128A11E62F03308E
:100E68007A02E83003197902031C3B2F3C2FE62F46
:100E780027307A020F30031979020318442F452FBF
:100E8800E62F0A30F0000030F1007A08F300790804
:100E9800F2000A128A15B9240A128A1171088312FB
:100EA8000313AD007008AC000A30F0000030F10008
:100EB8007A08F3007908F2000A128A15EF250A1257
:100EC8008A11710883120313AB007008AA002D0859
:100ED800A7002C08A6000A30F0000030F1002B080B
:100EE800F3002A08F2000A128A1106200A128A114F
:100EF800710883120313AD007008AC002D08A90017
:100F08002C08A8000A30F0000030F1002B08F3008C
:100F18002A08F2000A128A152B270A128A11710868
:100F280083120313A3007008A2000A30F0000030F7
:100F3800F1002308F3002208F2000A128A110620A1
:100F48000A128A11710883120313AD007008AC00ED
:100F58002D08A5002C08A4000A30F0000030F1008C
:100F68002308F3002208F2000A128A152B270A1216
:100F78008A11710883120313A1007008A0002008C9
:100F8800303E0A128A15B1230A128A1183120313FA
:100F98002408303E0A128A15B1230A128A118312D4
:100FA80003132808303E0A128A15B1230A128A113F
:100FB800831203132608303E0A128A15B1230A1237
:100FC8008A11E62F08000A128A1104200A128A11CF
:100FD800EB000A128A1105200A128A11EC00831309
:100FE800463084006B300A128A158D230A128A1142
:100FF80083010A128A115F2808308A000408840ACB
:1010080082070034483475346D3469343A34003416
:0C101800543465346D3470343A340034C4
:10170000F00070080F39303E0800831203138C1D5F
:101710008A2B8B2B852B8C11080064008001840A96
:1017200004060319003404068E2B83160313911448
:101730000A128A1585230A128A15080083160313D4
:1017400011150A128A1585230A128A1508008316B4
:101750000313911611160A128A1585230A128A1587
:101760000800F00070088312031399000C1EB92BB7
:10177000BA2BB62B0C1208008316031391150A120C
:101780008A1585230A128A15831203131308080089
:10179000F1007108F00004300310F00CFF3E031D4F
:1017A000CC2B7008303E08002030831603139800BD
:1017B00090308312031398001F308316031399008F
:1017C00008007008F600760883120313D10072082F
:1017D000F6007608D2007408F6007608D3000800F8
:1017E000F00070088312031393000A128A158523F0
:1017F0000A128A1583160313111BFF2B002CFA2BD8
:101800000800831203136C08FA006B08F9000A122F
:101810008A1155260A128A1529300A128A15B1230F
:101820000A128A150800831603130716071A192CC3
:101830001D2C831603138715202C83160313871181
:101840002830831203139400FF3083160313930090
:101850000800831603130810831203130810A33023
:10186000F1005530F000F00B332CF10B332C8312C8
:10187000031308143130F000F00B3C2C3F2C83167E
:10188000031308140800F400552C740884000A128D
:101890008A1500200A128A150A128A156D250A1265
:1018A0008A150130F3007308F407740884000A12E3
:1018B0008A1500200A128A15003A031D602C612C3B
:1018C000452C080083120313EA014230F000F00BAC
:1018D000672C00008312031308186F2C702C822CC5
:1018E0008530F000F00B722C83120313081C792C46
:1018F0007A2C822C5330F000F00B7C2C83120313D3
:10190000EA01EA0A080083160313861306138612F7
:1019100006120710871002300A128A152D250A12A6
:101920008A1528300A128A152D250A128A15803048
:101930000A128A152D250A128A150C300A128A15E8
:101940002D250A128A1506300A128A152D250A122B
:101950008A1501300A128A152D250A128A1541307E
:10196000F400EE30F300F30BB32CF40BB32C0000B7
:101970000800700871040319BE2CBF2CEE2CF50171
:10198000F50ACD2C01300310F00DF10DFF3E031DC3
:10199000C32C0130F4007408F507F11FD02CD12CB2
:1019A000C22C71087302031DD72C70087202031C2D
:1019B000DA2CDB2CE12C7008F2027108031CF30313
:1019C000F30201300310F10CF00CFF3E031DE22C7A
:1019D0000130F502031DED2CEE2CD12C7308F10023
:1019E0007208F0000800F2000A128A1595230A1204
:1019F0008A15D0308312031393000A128A158523A7
:101A00000A128A1583160313111B072D082DF42CB7
:101A100072080A128A15F0230A128A150A128A1508
:101A200095230A128A15D1300A128A15F0230A1258
:101A30008A150A128A15BC230A128A15F100710848
:101A4000F3000A128A15A7230A128A150A128A15A8
:101A50009E230A128A1573080800F20083120313EA
:101A600007107208860087144130F100EE30F00054
:101A7000F00B382DF10B382D000083120313871063
:101A80004130F100EE30F000F00B442DF10B442D0D
:101A900000007208F00003300310F00DFF3E031D3C
:101AA0004C2D0310700D83120313860087144130F0
:101AB000F100EE30F000F00B5B2DF10B5B2D000020
:101AC0008312031387104130F100EE30F000F00B69
:101AD000672DF10B672D00000800F200831203133D
:101AE00007147208860087144130F100EE30F000D0
:101AF000F00B782DF10B782D000083120313871063
:101B00004130F100EE30F000F00B842DF10B842D0C
:101B100000007208F00003300310F00DFF3E031DBB
:101B20008C2D0310700D831203138600871441302F
:101B3000F100EE30F000F00B9B2DF10B9B2D00001F
:101B40008312031387104130F100EE30F000F00BE8
:101B5000A72DF10BA72D00000800F301831203133A
:101B6000081CB32DB42DAE2D3130F000F00BB62D86
:101B7000B92D831203130818BE2DBF2DD02D0130AF
:101B8000F0007308073C013EC72D0310F00DFF3E27
:101B9000031DC52D7008FF3AF1007108F205E32D11
:101BA0000130F0007308073C013ED82D0310F00D02
:101BB000FF3E031DD62D7008F1007108F2040818CD
:101BC000E22DE32DDF2D0130F0007008F30708301F
:101BD0007302031CEC2DED2DAE2D72080800F501EB
:101BE000F601700871040319F62DF72D2E2EF7015A
:101BF000F70A052E01300310F00DF10DFF3E031D15
:101C0000FB2D0130F4007408F707F11F082E092E90
:101C1000FA2D01300310F50DF60DFF3E031D0A2EBF
:101C200071087302031D162E70087202031C192E10
:101C30001A2E212E7008F2027108031CF303F3021E
:101C4000751401300310F10CF00CFF3E031D222E21
:101C50000130F702031D2D2E2E2E092E7608F100DD
:101C60007508F00008000030FC000030FB00003078
:101C7000FA000030F900701C3E2E3F2E562E7408DC
:101C8000F907750803110318013E0319482EFA07D6
:101C9000760803110318013E03194F2EFB0777083E
:101CA00003110318013E0319562EFC070130F800FA
:101CB0000310F40DF50DF60DF70DF80B582E01304D
:101CC0000310F30CF20CF10CF00CFF3E031D602E20
:101CD0007308720471047004031D6F2E702E3B2E66
:101CE0007C08F3007B08F2007A08F1007908F00024
:101CF000080000300A128A15F3240A128A15F4002B
:101D0000740883120313E40001300A128A15F324C5
:101D10000A128A15F400740883120313E3000230D8
:101D20000A128A15F3240A128A15F4007408831221
:101D30000313E20003300A128A15F3240A128A15EB
:101D4000F400740883120313E10004300A128A15A8
:101D5000F3240A128A15F400740883120313E000B6
:101D600005300A128A15F3240A128A15F400740841
:101D700083120313DF0006300A128A15F3240A12B5
:101D80008A15F400740883120313DE0008008530FE
:101D9000831203139F00C030831603139F00831226
:101DA00003131E08C700831603131E0883120313B0
:101DB000C6004130F100EE30F000F00BDD2EF10BEB
:101DC000DD2E00008D30831203139F00C030831678
:101DD00003139F00831203131E08C9008316031305
:101DE0001E0883120313C8004130F100EE30F000EA
:101DF000F00BF82EF10BF82E000095308312031330
:101E00009F00C030831603139F00831203131E0824
:101E1000CB00831603131E0883120313CA0041303C
:101E2000F100EE30F000F00B132FF10B132F000038
:101E30009D30831203139F00C030831603139F004D
:101E4000831203131E08CD00831603131E0883128A
:101E50000313CC000800F601F11F2F2F302F372F6E
:101E6000F009F109F00A0319F10AF601F60AF31F65
:101E70003A2F3B2F442FF209F309F20A0319F30A10
:101E80000130F4007408F606F701F80170087104D7
:101E900003194B2F4C2F832FF501F50A5A2F0130D0
:101EA0000310F00DF10DFF3E031D502F0130F40023
:101EB0007408F507F11F5D2F5E2F4F2F01300310BF
:101EC000F70DF80DFF3E031D5F2F71087302031D10
:101ED0006B2F70087202031C6E2F6F2F762F700805
:101EE000F2027108031CF303F302771401300310AC
:101EF000F10CF00CFF3E031D772F0130F502031D9E
:101F0000822F832F5E2F76080319872F882F8D2F1E
:101F1000F709F809F70A0319F80A7808F1007708B1
:101F2000F000080083120313C1014108BE003E0700
:101F3000463E840083130008BF00840A0008C000E6
:101F40003F08AE004008AF00B001B1010A128A118B
:101F50006C210A128A1520300A128A156D250A1280
:101F60008A1583120313C2014208513E8400831371
:101F70000008303E0A128A15B1230A128A1583120C
:101F800003134208031DC52FC62FCD2F2E300A1272
:101F90008A15B1230A128A15D92F02304206031D71
:101FA000D22FD32FD92F2C300A128A15B1230A121F
:101FB0008A15013083120313BE003E08C2070330A6
:101FC0004202031CE42FE52FB42F033083120313C6
:101FD000C0008A30BF005530BE00BE0BED2FBF0BD6
:101FE000ED2FC00BED2F013083120313BE003E080E
:101FF000C10704304102031CFE2FFF2F952F08005C
:08400000FF3FFF3FFF3FFF3FC0
:02400E00FA3F77
:00000001FF
