:100000000A128A11EF2F00308A000408840A82073E
:060010000034203400342E
:1007C800F00070088312031399000C1EEC2BED2B1C
:1007D800E92B0C1208002030831603139800903080
:1007E8008312031398001F3083160313990008001F
:1007F8007008F600760883120313CB007208F6001F
:100808007608CC007408F6007608CD00080002309F
:100818000A128A1173240A128A1128300A128A11BC
:1008280073240A128A1180300A128A1173240A1258
:100838008A110C300A128A1173240A128A1106309E
:100848000A128A1173240A128A1101300A128A11B3
:1008580073240A128A114130F400EE30F300F30BCE
:10086800332CF40B332C00000800700871040319B2
:100878003E2C3F2C6E2CF501F50A4D2C013003104F
:10088800F00DF10DFF3E031D432C0130F4007408F8
:10089800F507F11F502C512C422C71087302031DCF
:1008A800572C70087202031C5A2C5B2C612C7008A0
:1008B800F2027108031CF303F30201300310F10C78
:1008C800F00CFF3E031D622C0130F502031D6D2C58
:1008D8006E2C512C7308F1007208F0000800F20029
:1008E8008312031307107208860087144130F10041
:1008F800EE30F000F00B7E2CF10B7E2C0000831202
:10090800031387104130F100EE30F000F00B8A2C11
:10091800F10B8A2C00007208F00003300310F00D70
:10092800FF3E031D922C0310700D831203138600E3
:1009380087144130F100EE30F000F00BA12CF10BE0
:10094800A12C00008312031387104130F100EE3010
:10095800F000F00BAD2CF10BAD2C00000800F200FC
:100968008312031307147208860087144130F100BC
:10097800EE30F000F00BBE2CF10BBE2C0000831201
:10098800031387104130F100EE30F000F00BCA2C51
:10099800F10BCA2C00007208F00003300310F00DB0
:1009A800FF3E031DD22C0310700D83120313860023
:1009B80087144130F100EE30F000F00BE12CF10B20
:1009C800E12C00008312031387104130F100EE3050
:1009D800F000F00BED2CF10BED2C00000800F501F8
:1009E800F601700871040319FA2CFB2C322DF7015B
:1009F800F70A092D01300310F00DF10DFF3E031D1C
:100A0800FF2C0130F4007408F707F11F0C2D0D2D91
:100A1800FE2C01300310F50DF60DFF3E031D0E2DC3
:100A280071087302031D1A2D70087202031C1D2D14
:100A38001E2D252D7008F2027108031CF303F30222
:100A4800751401300310F10CF00CFF3E031D262D28
:100A58000130F702031D312D322D0D2D7608F100DE
:100A68007508F00008000030FC000030FB00003082
:100A7800FA000030F900701C422D432D5A2D7408DD
:100A8800F907750803110318013E03194C2DFA07DD
:100A9800760803110318013E0319532DFB07770845
:100AA80003110318013E03195A2DFC070130F80001
:100AB8000310F40DF50DF60DF70DF80B5C2D013054
:100AC8000310F30CF20CF10CF00CFF3E031D642D27
:100AD8007308720471047004031D732D742D3F2D67
:100AE8007C08F3007B08F2007A08F1007908F0002E
:100AF80008008530831203139F00C0308316031348
:100B08009F00831203131E08C400831603131E08D4
:100B180083120313C3004130F100EE30F000F00BF4
:100B2800932DF10B932D00008D30831203139F003A
:100B3800C030831603139F00831203131E08C600D8
:100B4800831603131E0883120313C5004130F100F6
:100B5800EE30F000F00BAE2DF10BAE2D000095300D
:100B6800831203139F00C030831603139F00831260
:100B780003131E08C800831603131E0883120313E9
:100B8800C7004130F100EE30F000F00BC92DF10B39
:100B9800C92D00009D30831203139F00C0308316B7
:100BA80003139F00831203131E08CA00831603133E
:100BB8001E0883120313C900080083120313A90136
:100BC800A31FE72DE82DF52DA009A109A209A30966
:100BD800A00A0319A10A0319A20A0319A30AA90161
:100BE800A90AA71FF82DF92D082EA409A509A609F9
:100BF800A709A40A0319A50A0319A60A0319A70A2B
:100C08000130FD007D08A9060030AD000030AC00C1
:100C18000030AB000030AA0023082204210420047D
:100C28000319172E182E652EA801A80A282E0130A0
:100C3800FD000310A00DA10DA20DA30DFD0B1D2E8F
:100C48000130FD007D08A807A31F2B2E2C2E1B2E7C
:100C58000130FD000310AA0DAB0DAC0DAD0DFD0B61
:100C68002E2E23082702031D432E22082602031DC9
:100C7800432E21082502031D432E20082402031CAD
:100C8800462E472E562E2008A4022108031C210FA9
:100C9800A5022208031C220FA6022308031C230F07
:100CA800A7022A1401300310A30CA20CA10CA00C5B
:100CB800FF3E031D572E0130A802031D642E652E2A
:100CC8002C2E29080319692E6A2E752EAA09AB093C
:100CD800AC09AD09AA0A0319AB0A0319AC0A03192E
:100CE800AD0A2D08A3002C08A2002B08A1002A0891
:100CF800A000080083160313860187010A128A11CF
:100D08000B240A128A110A128A11EF230A128A1175
:100D18000A128A117D250A128A11831203131F15DC
:100D28001F19972E982E942E413083120313BF005B
:100D3800ED30BE00BE0B9E2EBF0B9E2EA32E83123F
:100D48000313C1014108BE003E07433E84008313DC
:100D58000008BF00840A0008C0003F08AE00400831
:100D6800AF00B001B1010A128A1130270A128A11A4
:100D780001300A128A11B3240A128A11831203134A
:100D8800C20142084B3E840083130008303E0A1219
:100D98008A11E4230A128A11831203134208031DDD
:100DA800D62ED72EDE2E2E300A128A11E4230A12EE
:100DB8008A11EA2E02304206031DE32EE42EEA2EA3
:100DC8002C300A128A11E4230A128A110130831284
:100DD8000313BE003E08C20703304202031CF52E6F
:100DE800F62EC52E0D3083120313C000AF30BF009E
:100DF800B530BE00BE0BFE2EBF0BFE2EC00BFE2E66
:100E0800052F013083120313BE003E08C1070430CA
:100E18004102031C102F112FA62E0D300A128A1121
:100E2800E4230A128A1101300A128A1173240A1261
:100E38008A111A3083120313C0005E30BF006D3070
:100E4800BE00BE0B252FBF0B252FC00B252F2C2F27
:100E58008C2E0A128A110028003083120313A30073
:100E68000030A2000030A100C830A0003108F30013
:100E78003008F2002F08F1002E08F0000030F700CB
:100E88000030F6000030F5006430F4000A128A11D0
:100E980037250A128A11730883120313A7007208F0
:100EA800A6007108A5007008A4000A128A11E1259D
:100EB8000A128A11831203132108B9002008B80006
:100EC8000A30F0000030F1003908F3003808F20069
:100ED8000A128A1139240A128A117108831203131B
:100EE800BD007008BC000A30F0000030F10039087D
:100EF800F3003808F2000A128A11F3240A128A1140
:100F0800710883120313BB007008BA003D08B300D0
:100F18003C08B2000A30F0000030F1003B08F30052
:100F28003A08F2000A128A1139240A128A11710841
:100F380083120313BD007008BC003D08B5003C08CF
:100F4800B4000A30F0000030F1003B08F3003A0822
:100F5800F2000A128A11F3240A128A117108831204
:100F68000313BD007008BC003D08B7003C08B6007C
:100F78003608303E0A128A11B3240A128A112E301A
:100F88000A128A11B3240A128A118312031334082D
:100F9800303E0A128A11B3240A128A1183120313EB
:100FA8003208303E0A128A11B3240A128A118312B7
:100FB80003133708F1003608F0003508F300340849
:100FC800F2003308F5003208F4000A128A11FC23F3
:100FD8000A128A11080083120313C301C401C50150
:100FE800C601C701C801C901CA01CB01CC01CD01A5
:080FF80083010A128A117E2E0A
:08400000FF3FFF3FFF3FFF3FC0
:02400E00FA3F77
:00000001FF
