:060000000A128A11E72F2D
:10000800831603130810831203130810A330F1009A
:100018005530F000F00B0E28F10B0E288312031355
:1000280008143130F000F00B17281A288316031330
:1000380008140800F501F601700871040319252851
:1000480026285D28F701F70A342801300310F00D3F
:10005800F10DFF3E031D2A280130F4007408F7074C
:10006800F11F37283828292801300310F50DF60D1F
:10007800FF3E031D392871087302031D45287008C7
:100088007202031C4828492850287008F202710897
:10009800031CF303F302751401300310F10CF00C88
:1000A800FF3E031D51280130F702031D5C285D281F
:1000B80038287608F1007508F00008000030FC00C8
:1000C8000030FB000030FA000030F900701C6D2889
:1000D8006E2885287408F907750803110318013E6E
:1000E80003197728FA07760803110318013E031944
:1000F8007E28FB07770803110318013E031985289A
:10010800FC070130F8000310F40DF50DF60DF70D9E
:10011800F80B872801300310F30CF20CF10CF00CEB
:10012800FF3E031D8F287308720471047004031DB9
:100138009E289F286A287C08F3007B08F2007A082A
:10014800F1007908F00008000A128A15CE260A1272
:100158008A110A128A1560260A128A1101300A12B7
:100168008A153E270A128A110A128A1158210A1280
:100178008A11831203131F151F19C328C428C02806
:10018800413083120313C400ED30C300C30BCA28E7
:10019800C40BCA28CF280A128A157C260A128A118B
:1001A8000A128A1123220A128A110A128A11ED23CD
:1001B8000A128A110D300A128A1555260A128A1156
:1001C8001A3083120313C5005E30C4006D30C300BB
:1001D800C30BEC28C40BEC28C50BEC28F328013022
:1001E80083120313E4070318E50A0030E507B22871
:1001F8000A128A110028F601F31F032904290B2982
:10020800F209F309F20A0319F30AF601F60AF11FD3
:100218000E290F291429F009F109F00A0319F10A26
:1002280070087104031919291A294929F501F50AD1
:10023800282901300310F00DF10DFF3E031D1E2982
:100248000130F4007408F507F11F2B292C291D290A
:1002580071087302031D322970087202031C3529C4
:1002680036293C297008F2027108031CF303F302D3
:1002780001300310F10CF00CFF3E031D3D29013045
:10028800F502031D482949292C29760803194D2907
:100298004E295329F209F309F20A0319F30A7308DC
:1002A800F1007208F00008008530831203139F00E4
:1002B800C030831603139F00831203131E08C70060
:1002C800831603131E0883120313C6004130F1007E
:1002D800EE30F000F00B6E29F10B6E2900008D3026
:1002E800831203139F00C030831603139F008312E9
:1002F80003131E08C900831603131E088312031371
:10030800C8004130F100EE30F000F00B8929F10B04
:10031800892900009530831203139F00C03083168B
:1003280003139F00831203131E08CB0083160313C5
:100338001E0883120313CA004130F100EE30F000AA
:10034800F00BA429F10BA42900009D30831203139C
:100358009F00C030831603139F00831203131E08E7
:10036800CD00831603131E0883120313CC00080064
:10037800F601F11FC029C129C829F009F109F00ABD
:100388000319F10AF601F60AF31FCB29CC29D5295E
:10039800F209F309F20A0319F30A0130F4007408A8
:1003A800F606F701F801700871040319DC29DD2944
:1003B800142AF501F50AEB2901300310F00DF10DAF
:1003C800FF3E031DE1290130F4007408F507F11F11
:1003D800EE29EF29E02901300310F70DF80DFF3E53
:1003E800031DF02971087302031DFC2970087202AD
:1003F800031CFF29002A072A7008F2027108031C4F
:10040800F303F302771401300310F10CF00CFF3EF4
:10041800031D082A0130F502031D132A142AEF29A7
:1004280076080319182A192A1E2AF709F809F70A5B
:100438000319F80A7808F1007708F0000800831219
:100448000313C1014108BE003E07463E84008313E2
:100458000008BF00840A0008C0003F08AE0040083A
:10046800AF00B001B1010A128A112E230A128A11B3
:1004780020300A128A157E270A128A118312031362
:10048800C2014208513E840083130008303E0A121C
:100498008A1555260A128A11831203134208031D6E
:1004A800562A572A5E2A2E300A128A1555260A120B
:1004B8008A116A2A02304206031D632A642A6A2ABC
:1004C8002C300A128A1555260A128A110130831215
:1004D8000313BE003E08C20703304202031C752AFC
:1004E800762A452A033083120313C0008A30BF00DE
:1004F8005530BE00BE0B7E2ABF0B7E2AC00B7E2A5B
:10050800013083120313BE003E08C10704304102C4
:10051800031C8F2A902A262A080083120313A90194
:10052800A31F972A982AA52AA009A109A209A30905
:10053800A00A0319A10A0319A20A0319A30AA90107
:10054800A90AA71FA82AA92AB82AA409A509A60999
:10055800A709A40A0319A50A0319A60A0319A70AD1
:100568000130FD007D08A9060030AD000030AC0068
:100578000030AB000030AA00230822042104200424
:100588000319C72AC82A152BA801A80AD82A013096
:10059800FD000310A00DA10DA20DA30DFD0BCD2A8A
:1005A8000130FD007D08A807A31FDB2ADC2ACB2A1F
:1005B8000130FD000310AA0DAB0DAC0DAD0DFD0B08
:1005C800DE2A23082702031DF32A22082602031D18
:1005D800F32A21082502031DF32A20082402031CFC
:1005E800F62AF72A062B2008A4022108031C210F4B
:1005F800A5022208031C220FA6022308031C230FAE
:10060800A7022A1401300310A30CA20CA10CA00C01
:10061800FF3E031D072B0130A802031D142B152BC9
:10062800DC2A29080319192B1A2B252BAA09AB092F
:10063800AC09AD09AA0A0319AB0A0319AC0A0319D4
:10064800AD0A2D08A3002C08A2002B08A1002A0837
:10065800A0000800003083120313A3000030A2009A
:100668000030A100C830A0003108F3003008F200C3
:100678002F08F1002E08F0000030F7000030F600D7
:100688000030F5006430F4000A128A1162200A1260
:100698008A11730883120313A7007208A600710851
:1006A800A5007008A4000A128A1191220A128A1160
:1006B800831203132108B9002008B8000A30F0009B
:1006C8000030F1003908F3003808F2000A128A15E0
:1006D80004270A128A11710883120313BD007008D7
:1006E800BC000A30F0000030F1003908F300380887
:1006F800F2000A128A111E200A128A117108831246
:100708000313BB007008BA003D08B3003C08B200F0
:100718000A30F0000030F1003B08F3003A08F2001C
:100728000A128A1504270A128A1171088312031300
:10073800BD007008BC003D08B5003C08B4000A3094
:10074800F0000030F1003B08F3003A08F2000A120A
:100758008A111E200A128A11710883120313BD0020
:100768007008BC003D08B7003C08B6003608303EAB
:100778000A128A157E270A128A112E300A128A1541
:100788007E270A128A11831203133408303E0A1294
:100798008A157E270A128A11831203133208303E03
:1007A8000A128A157E270A128A1183120313370840
:1007B800F1003608F0003508F3003408F200330879
:1007C800F5003208F4000A128A156D260A128A11F9
:1007D80008000A128A1104200A128A110A128A15BC
:1007E800AD260A128A11831203136303031DFD2B1E
:1007F800FE2B662C0A128A15BE270A128A1183124A
:100808000313AE002E08E0000A128A15BE270A124A
:100818008A1183120313AE002E08DF000A128A150C
:10082800BE270A128A1183120313AE002E08E200B3
:100838000A128A15BE270A128A1183120313AE0000
:100848002E08E1000A128A15BE270A128A1183129D
:100858000313AE00AF012E08D8002F08D900600896
:100868005F07AE00AF01AF0D62082E07B000003081
:10087800031801302F07B10061083007B2000030BB
:10088800031801303107B300FF303205B4000030DF
:100898003305B50059083506031D542C580834068D
:1008A800031D572C582C662C6208AE00AF012E0889
:1008B800DC002F08DD006008AE00AF012E08DA006A
:1008C8002F08DB00C0300A128A153E270A128A1147
:1008D80007300A128A158E260A128A11C5300A12A2
:1008E8008A153E270A128A11831203135D08FA003B
:1008F8005C08F9000A128A11C3240A128A118312A9
:1009080003135D08FA005C08F9000A128A115526DB
:100918000A128A112C300A128A1555260A128A11CF
:10092800C9300A128A153E270A128A1101300A12A2
:100938008A158E260A128A11CE300A128A153E2787
:100948000A128A11831203135B08FA005A08F90085
:100958000A128A11C3240A128A11831203135B082C
:10096800FA005A08F9000A128A1155260A128A1141
:100978002C300A128A1555260A128A1108000030EE
:100988007A020A30031979020318CB2CCC2CD42C08
:100998007908303E0A128A157E270A128A11542EC7
:1009A80000307A020A3003197902031CDC2CDD2C92
:1009B800212D00307A026430031979020318E52CDE
:1009C800E62C212D0A30F0000030F1007A08F300FF
:1009D8007908F2000A128A1504270A128A11710886
:1009E80083120313AD007008AC002D08A7002C0873
:1009F800A6000A30F0000030F1007A08F300790808
:100A0800F2000A128A111E200A128A117108831232
:100A18000313A9007008A8002808303E0A128A1596
:100A28007E270A128A11831203132608303E0A12FF
:100A38008A157E270A128A11542E00307A026430F1
:100A480003197902031C292D2A2DA12D03307A02BE
:100A5800E830031979020318322D332DA12D0A30FD
:100A6800F0000030F1007A08F3007908F2000A1269
:100A78008A1504270A128A11710883120313AD001C
:100A88007008AC000A30F0000030F1007A08F3007A
:100A98007908F2000A128A111E200A128A117108B6
:100AA80083120313AB007008AA002D08A7002C08B6
:100AB800A6000A30F0000030F1002B08F3002A08E5
:100AC800F2000A128A11FF200A128A117108831291
:100AD8000313AD007008AC002D08A9002C08A8006D
:100AE8000A30F0000030F1002B08F3002A08F20069
:100AF8000A128A11BC210A128A117108831203137F
:100B0800A5007008A4002408303E0A128A157E2722
:100B18000A128A11831203132808303E0A128A1512
:100B28007E270A128A11831203132608303E0A12FE
:100B38008A157E270A128A11542E03307A02E83069
:100B480003197902031CA92DAA2D542E27307A02E5
:100B58000F30031979020318B22DB32D542E0A3021
:100B6800F0000030F1007A08F3007908F2000A1268
:100B78008A1504270A128A11710883120313AD001B
:100B88007008AC000A30F0000030F1007A08F30079
:100B98007908F2000A128A111E200A128A117108B5
:100BA80083120313AB007008AA002D08A7002C08B5
:100BB800A6000A30F0000030F1002B08F3002A08E4
:100BC800F2000A128A11FF200A128A117108831290
:100BD8000313AD007008AC002D08A9002C08A8006C
:100BE8000A30F0000030F1002B08F3002A08F20068
:100BF8000A128A11BC210A128A117108831203137E
:100C0800A3007008A2000A30F0000030F1002308A9
:100C1800F3002208F2000A128A11FF200A128A1130
:100C2800710883120313AD007008AC002D08A500ED
:100C38002C08A4000A30F0000030F1002308F3006B
:100C48002208F2000A128A11BC210A128A117108BC
:100C580083120313A1007008A0002008303E0A1276
:100C68008A157E270A128A11831203132408303E3C
:100C78000A128A157E270A128A118312031328087A
:100C8800303E0A128A157E270A128A11831203132C
:100C98002608303E0A128A157E270A128A11542E17
:100CA800080000307A020A300319790203185D2E11
:100CB8005E2E662E7908303E0A128A1555260A12CB
:100CC8008A11E62F00307A020A3003197902031CD0
:100CD8006E2E6F2EB32E00307A026430031979021B
:100CE8000318772E782EB32E0A30F0000030F1006A
:100CF8007A08F3007908F2000A128A1504270A1202
:100D08008A11710883120313AD007008AC002D0816
:100D1800A7002C08A6000A30F0000030F1007A087D
:100D2800F3007908F2000A128A111E200A128A11A9
:100D3800710883120313A9007008A8002808303E20
:100D48000A128A1555260A128A11831203132608D5
:100D5800303E0A128A1555260A128A11E62F0030EB
:100D68007A02643003197902031CBB2EBC2E332F80
:100D780003307A02E830031979020318C42EC52E0D
:100D8800332F0A30F0000030F1007A08F3007908B8
:100D9800F2000A128A1504270A128A1171088312AE
:100DA8000313AD007008AC000A30F0000030F10009
:100DB8007A08F3007908F2000A128A111E200A1232
:100DC8008A11710883120313AB007008AA002D085A
:100DD800A7002C08A6000A30F0000030F1002B080C
:100DE800F3002A08F2000A128A11FF200A128A1157
:100DF800710883120313AD007008AC002D08A90018
:100E08002C08A8000A30F0000030F1002B08F3008D
:100E18002A08F2000A128A11BC210A128A117108E2
:100E280083120313A5007008A4002408303E0A1298
:100E38008A1555260A128A11831203132808303E90
:100E48000A128A1555260A128A11831203132608D4
:100E5800303E0A128A1555260A128A11E62F0330E7
:100E68007A02E83003197902031C3B2F3C2FE62F46
:100E780027307A020F30031979020318442F452FBF
:100E8800E62F0A30F0000030F1007A08F300790804
:100E9800F2000A128A1504270A128A1171088312AD
:100EA8000313AD007008AC000A30F0000030F10008
:100EB8007A08F3007908F2000A128A111E200A1231
:100EC8008A11710883120313AB007008AA002D0859
:100ED800A7002C08A6000A30F0000030F1002B080B
:100EE800F3002A08F2000A128A11FF200A128A1156
:100EF800710883120313AD007008AC002D08A90017
:100F08002C08A8000A30F0000030F1002B08F3008C
:100F18002A08F2000A128A11BC210A128A117108E1
:100F280083120313A3007008A2000A30F0000030F7
:100F3800F1002308F3002208F2000A128A11FF20A8
:100F48000A128A11710883120313AD007008AC00ED
:100F58002D08A5002C08A4000A30F0000030F1008C
:100F68002308F3002208F2000A128A11BC210A128F
:100F78008A11710883120313A1007008A0002008C9
:100F8800303E0A128A1555260A128A118312031353
:100F98002408303E0A128A1555260A128A1183122D
:100FA80003132808303E0A128A1555260A128A1198
:100FB800831203132608303E0A128A1555260A1290
:100FC8008A11E62F08000A128A154B260A128A117E
:100FD800E4000A128A154C260A128A11E5008313C6
:100FE8004630840064300A128A154D260A128A1186
:100FF80083010A128A11A82808308A000408840A82
:1010080082070034483475346D3469343A34003416
:0C101800543465346D3470343A340034C4
:101C96000134003464008001840A04060319003408
:101CA60004064E2EF00070088312031399000C1ED2
:101CB6005D2E5E2E5A2E0C1208002030831603135A
:101CC600980090308312031398001F308316031375
:101CD600990008007008F600760883120313D100F5
:101CE6007208F6007608D2007408F6007608D3006B
:101CF6000800831203136508FA006408F9000A1243
:101D06008A1155260A128A1529300A128A1555266D
:101D16000A128A150800F400A02E740884000A121C
:101D26008A1500200A128A150A128A157E270A12B7
:101D36008A150130F3007308F407740884000A1248
:101D46008A1500200A128A15003A031DAB2EAC2E06
:101D5600902E080083120313E3014230F000F00BCB
:101D6600B22E0000831203130818BA2EBB2ECD2EF6
:101D76008530F000F00BBD2E83120313081CC42E11
:101D8600C52ECD2E5330F000F00BC72E8312031351
:101D9600E301E30A0800831603138613061386126B
:101DA60006120710871002300A128A153E270A12F9
:101DB6008A1528300A128A153E270A128A1580309B
:101DC6000A128A153E270A128A150C300A128A153B
:101DD6003E270A128A1506300A128A153E270A126B
:101DE6008A1501300A128A153E270A128A154130D1
:101DF600F400EE30F300F30BFE2EF40BFE2E000083
:101E06000800700871040319092F0A2F392FF501EC
:101E1600F50A182F01300310F00DF10DFF3E031DDA
:101E26000E2F0130F4007408F507F11F1B2F1C2F2D
:101E36000D2F71087302031D222F70087202031CF6
:101E4600252F262F2C2F7008F2027108031CF3038E
:101E5600F30201300310F10CF00CFF3E031D2D2F91
:101E66000130F502031D382F392F1C2F7308F1009E
:101E76007208F0000800F2008312031307107208BC
:101E8600860087144130F100EE30F000F00B492F48
:101E9600F10B492F00008312031387104130F10024
:101EA600EE30F000F00B552FF10B552F00007208A5
:101EB600F00003300310F00DFF3E031D5D2F0310ED
:101EC600700D83120313860087144130F100EE3043
:101ED600F000F00B6C2FF10B6C2F00008312031334
:101EE60087104130F100EE30F000F00B782FF10B47
:101EF600782F00000800F2008312031307147208FB
:101F0600860087144130F100EE30F000F00B892F87
:101F1600F10B892F00008312031387104130F10063
:101F2600EE30F000F00B952FF10B952F00007208A4
:101F3600F00003300310F00DFF3E031D9D2F03102C
:101F4600700D83120313860087144130F100EE30C2
:101F5600F000F00BAC2FF10BAC2F00008312031333
:101F660087104130F100EE30F000F00BB82FF10B86
:101F7600B82F00000800F30183120313081CC42FB6
:101F8600C52FBF2F3130F000F00BC72FCA2F831299
:101F960003130818CF2FD02FE12F0130F00073085C
:101FA600073C013ED82F0310F00DFF3E031DD62F30
:101FB6007008FF3AF1007108F205F42F0130F000C5
:101FC6007308073C013EE92F0310F00DFF3E031D89
:101FD600E72F7008F1007108F2040818F32FF42FA8
:101FE600F02F0130F0007008F30708307302031C6D
:0A1FF600FD2FFE2FBF2F7208080018
:08400000FF3FFF3FFF3FFF3FC0
:02400E00FA3F77
:00000001FF
