:060000000A128A11F22F22
:10086E00F00070088312031399000C1E3F2C402CCD
:10087E003C2C0C1208002030831603139800903085
:10088E008312031398001F30831603139900080078
:10089E0002300A128A11B7240A128A1128300A125B
:1008AE008A11B7240A128A1180300A128A11B724CB
:1008BE000A128A110C300A128A11B7240A128A11EE
:1008CE0006300A128A11B7240A128A1101300A124E
:1008DE008A11B7240A128A114130F400EE30F30067
:1008EE00F30B772CF40B772C0000080070087104C2
:1008FE000319822C832CB22CF501F50A912C0130B0
:10090E000310F00DF10DFF3E031D872C0130F40096
:10091E007408F507F11F942C952C862C7108730220
:10092E00031D9B2C70087202031C9E2C9F2CA52C61
:10093E007008F2027108031CF303F3020130031076
:10094E00F10CF00CFF3E031DA62C0130F502031D29
:10095E00B12CB22C952C7308F1007208F00008002F
:10096E00F2008312031307107208860087144130B9
:10097E00F100EE30F000F00BC22CF10BC22C000097
:10098E008312031387104130F100EE30F000F00BAC
:10099E00CE2CF10BCE2C00007208F00003300310A9
:1009AE00F00DFF3E031DD62C0310700D83120313A2
:1009BE00860087144130F100EE30F000F00BE52C8C
:1009CE00F10BE52C00008312031387104130F10068
:1009DE00EE30F000F00BF12CF10BF12C00000800C2
:1009EE00F200831203130714720886008714413035
:1009FE00F100EE30F000F00B022DF10B022D000095
:100A0E008312031387104130F100EE30F000F00B2B
:100A1E000E2DF10B0E2D00007208F00003300310A6
:100A2E00F00DFF3E031D162D0310700D83120313E0
:100A3E00860087144130F100EE30F000F00B252DCA
:100A4E00F10B252D00008312031387104130F100A6
:100A5E00EE30F000F00B312DF10B312D00000800BF
:100A6E00F501F6017008710403193E2D3F2D762D08
:100A7E00F701F70A4D2D01300310F00DF10DFF3E79
:100A8E00031D432D0130F4007408F707F11F502D9C
:100A9E00512D422D01300310F50DF60DFF3E031DB5
:100AAE00522D71087302031D5E2D70087202031C15
:100ABE00612D622D692D7008F2027108031CF3037B
:100ACE00F302751401300310F10CF00CFF3E031D00
:100ADE006A2D0130F702031D752D762D512D7608E6
:100AEE00F1007508F00008000030FC000030FB003B
:100AFE000030FA000030F900701C862D872D9E2DD7
:100B0E007408F907750803110318013E0319902D97
:100B1E00FA07760803110318013E0319972DFB07F8
:100B2E00770803110318013E03199E2DFC070130AF
:100B3E00F8000310F40DF50DF60DF70DF80BA02DC2
:100B4E0001300310F30CF20CF10CF00CFF3E031D00
:100B5E00A82D7308720471047004031DB72DB82DEF
:100B6E00832D7C08F3007B08F2007A08F1007908E7
:100B7E00F00008008530831203139F00C0308316E7
:100B8E0003139F00831203131E08C400831603135E
:100B9E001E0883120313C3004130F100EE30F00043
:100BAE00F00BD72DF10BD72D00008D3083120313D0
:100BBE009F00C030831603139F00831203131E0879
:100BCE00C600831603131E0883120313C50041309B
:100BDE00F100EE30F000F00BF22DF10BF22D0000D3
:100BEE009530831203139F00C030831603139F00AA
:100BFE00831203131E08C800831603131E088312E4
:100C0E000313C7004130F100EE30F000F00B0D2E53
:100C1E00F10B0D2E00009D30831203139F00C03088
:100C2E00831603139F00831203131E08CA00831634
:100C3E0003131E0883120313C9000800831603133F
:100C4E00860187010A128A114F240A128A110A128A
:100C5E008A1142240A128A110A128A11C1250A1215
:100C6E008A11831203131F151F193E2E3F2E3B2E82
:100C7E00413083120313BF00ED30BE00BE0B452E74
:100C8E00BF0B452E4A2E83120313C101C2018312DC
:100C9E0003134108BE003E07433E84008313000841
:100CAE00BF00840A0008C0003F08AE004008AF0035
:100CBE00B001B1010A128A1146270A128A11613057
:100CCE000A128A1137240A128A110D308312031365
:100CDE00C000AF30BF00B530BE00BE0B742EBF0BD0
:100CEE00742EC00B742E7B2E013083120313C1079A
:100CFE000318C20A0030C2074208803AFF00803053
:100D0E007F02031D8C2E04304102031C8F2E902E69
:100D1E004E2E01300A128A11B7240A128A111A3085
:100D2E0083120313C0005E30BF006D30BE00BE0BD9
:100D3E009E2EBF0B9E2EC00B9E2EA52E332E0A125C
:100D4E008A11002883120313A901A31FAF2EB02E00
:100D5E00BD2EA009A109A209A309A00A0319A10A7F
:100D6E000319A20A0319A30AA901A90AA71FC02ED3
:100D7E00C12ED02EA409A509A609A709A40A0319F4
:100D8E00A50A0319A60A0319A70A0130FD007D085A
:100D9E00A9060030AD000030AC000030AB000030D2
:100DAE00AA0023082204210420040319DF2EE02EBA
:100DBE002D2FA801A80AF02E0130FD000310A00D62
:100DCE00A10DA20DA30DFD0BE52E0130FD007D083A
:100DDE00A807A31FF32EF42EE32E0130FD000310FF
:100DEE00AA0DAB0DAC0DAD0DFD0BF62E2308270293
:100DFE00031D0B2F22082602031D0B2F210825028F
:100E0E00031D0B2F20082402031C0E2F0F2F1E2F45
:100E1E002008A4022108031C210FA5022208031C8E
:100E2E00220FA6022308031C230FA7022A14013047
:100E3E000310A30CA20CA10CA00CFF3E031D1F2F30
:100E4E000130A802031D2C2F2D2FF42E2908031973
:100E5E00312F322F3D2FAA09AB09AC09AD09AA0AD1
:100E6E000319AB0A0319AC0A0319AD0A2D08A30026
:100E7E002C08A2002B08A1002A08A00008000030B0
:100E8E0083120313A3000030A2000030A100C8306B
:100E9E00A0003108F3003008F2002F08F1002E08F0
:100EAE00F0000030F7000030F6000030F50064303E
:100EBE00F4000A128A117B250A128A117308831212
:100ECE000313A7007208A6007108A5007008A400FD
:100EDE000A128A11A9260A128A11831203132108F3
:100EEE00B9002008B8000A30F0000030F1003908CF
:100EFE00F3003808F2000A128A117D240A128A11B0
:100F0E00710883120313BD007008BC000A30F00094
:100F1E000030F1003908F3003808F2000A128A1185
:100F2E0037250A128A11710883120313BB00700849
:100F3E00BA003D08B3003C08B2000A30F0000030A1
:100F4E00F1003B08F3003A08F2000A128A117D24E0
:100F5E000A128A11710883120313BD007008BC00B7
:100F6E003D08B5003C08B4000A30F0000030F10036
:100F7E003B08F3003A08F2000A128A1137250A12CA
:100F8E008A11710883120313BD007008BC003D085E
:100F9E00B7003C08B6003608303E0A128A11F72414
:100FAE000A128A112E300A128A11F7240A128A1195
:100FBE00831203133408303E0A128A11F7240A12E0
:100FCE008A11831203133208303E0A128A11F72453
:100FDE000A128A11080083120313C301C401C5014A
:100FEE00C601C701C801C901CA0183010A128A11CB
:020FFE00252E9E
:08400000FF3FFF3FFF3FFF3FC0
:02400E00FA3F77
:00000001FF
