:100000000A128A11DE2F00308A000408840A82074F
:10001000003421342134433441344E3427345434B1
:100020002034463445345434433448342034443442
:1000300041345434413421342134003421344334A4
:100040004C344F34553444345934203445344E34D0
:100050005634493452344F344E344D3445344E3492
:100060005434213400342D342D342D34543452344E
:1000700059342034203452344534533445345434C4
:10008000543449344E3447342D342D342D34003417
:10009000523445344334483441345234473445347F
:1000A000203449344D344D3445344434493441349A
:1000B000543445344C34593400342D3421342134F3
:1000C0002134423441345434543445345234593454
:1000D00020344C344F3457342134213421342D34DE
:1000E000003446344F34523420345234453453347F
:1000F0005434543449344E34473420344434453431
:100100005634493443344534003450345234453441
:100110005334533420345034553453344834203419
:1001200042345534543454344F344E340034433410
:100130006F346E346E3465346334743469346E34C1
:1001400067342E342E342E3400345334573449342B
:1001500054344334483449344E34473420344F34D3
:100160004634463400345234653473346534743460
:10017000743469346E3467342E342E342E340034A3
:10018000573445344C3443344F344D3445342E3495
:100190002E342E3400344C344F344E343A34003440
:0E01A0004C34413454343A34003420340034AA
:10071C0064008001840A04060319003404068F2B3C
:10072C00831203138C1E9B2B9C2B962B8C121A085A
:10073C00080090308312031398001F3083160313A4
:10074C00990008007E088A007F0882000A128A112C
:10075C00A8230A128A118000840A04087D06031952
:10076C000034FF0A0319FE0AAC2BF2007208831244
:10077C0003138800071287164130F100EE30F000A9
:10078C00F00BC62BF10BC62B000083120313871240
:10079C000800F200720883120313880007168716EC
:1007AC004130F100EE30F000F00BDA2BF10BDA2BCC
:1007BC000000831203138712080094300A128A1166
:1007CC00BB230A128A117D300A128A1153240A1291
:1007DC008A11D4300A128A11BB230A128A11693089
:1007EC000A128A1153240A128A110800092C0A12BF
:1007FC008A1172240A128A11162C0A128A11B8262E
:10080C000A128A11162C7908003A03190E2C162C90
:10081C007808003A0319FD2B013A0319032C162C06
:10082C000800C0340034F9340034A4340034B0343B
:10083C000034993400349234003482340034F83467
:10084C0000348034003490340034C034003401342B
:10085C0000340034003447345034523438300A12E7
:10086C008A11BB230A128A110E300A128A11BB2379
:10087C000A128A1101300A128A11BB230A128A1138
:10088C0006300A128A11BB230A128A1180300A120E
:10089C008A11BB230A128A110800F400652C740813
:1008AC0084000A128A1103200A128A110A128A1170
:1008BC00CF230A128A110130F3007308F40774086D
:1008CC0084000A128A1103200A128A11003A031DAD
:1008DC00702C712C552C080080300A128A11BB2305
:1008EC000A128A1116300A128A1153240A128A111A
:1008FC00C0300A128A11BB230A128A1101300A1263
:10090C008A1153240A128A110730F7005830F60066
:10091C005930F500F50B902CF60B902CF70B902C16
:10092C00972C94300A128A11BB230A128A11CD30EB
:10093C000A128A1153240A128A11D4300A128A110B
:10094C00BB230A128A112B300A128A1153240A1261
:10095C008A11080001300A128A11BB230A128A116B
:10096C0080300A128A11BB230A128A1155300A12DE
:10097C008A1153240A128A110330F7008A30F600C8
:10098C005530F500F50BC82CF60BC82CF70BC82C02
:10099C00CF2CC0300A128A11BB230A128A1155308F
:1009AC000A128A1153240A128A11D4300A128A119B
:1009BC00BB230A128A1140300A128A1153240A12DC
:1009CC008A110830F7009D30F6000530F500F50B64
:1009DC00ED2CF60BED2CF70BED2CF42C01300A1250
:1009EC008A11BB230A128A11C0300A128A11BB2346
:1009FC000A128A119D300A128A1153240A128A1182
:100A0C000330F7008A30F6005530F500F50B0C2D4D
:100A1C00F60B0C2DF70B0C2D132DC1300A128A116D
:100A2C0053240A128A110330F7008A30F60055302D
:100A3C00F500F50B1F2DF60B1F2DF70B1F2D262D7B
:100A4C00C1300A128A1153240A128A110330F7009A
:100A5C008A30F6005530F500F50B322DF60B322DA1
:100A6C00F70B322D392DC1300A128A1153240A1278
:100A7C008A110D30F700AF30F600B630F500F50BEB
:100A8C00452DF60B452DF70B452D000001300A12B4
:100A9C008A11BB230A128A11522D0800F401F501A8
:100AAC00F701F8010A128A1196230A128A11F3002F
:100ABC007308F60024307606031D652D662DE72D90
:100ACC00FB01FC01831203138C1E6D2D6E2D682D02
:100ADC001A08F3007B08573E8400730883138000C8
:100AEC000130FB070318FC0A0030FC077C08803A35
:100AFC00FF0080307F02031D852D03307B02031C19
:100B0C00882D892D682D7B08573E84008313800126
:100B1C00FB01FC01B22D7B083A3E84000008F30077
:100B2C007B08573E84000008730603199E2D9F2DE9
:100B3C00AC2D0130F4070318F50A0030F5075830D6
:100B4C000A128A11CF230A128A11BA2D0130FB071F
:100B5C000318FC0A0030FC077B083A3E84000008AE
:100B6C00031DB92DBA2D912D74087504031DBF2DCD
:100B7C00C02DE72DF901FA010A128A1196230A12E7
:100B8C008A11F3007908903E840073088317800063
:100B9C000130F9070318FA0A0030FA077A08803A8C
:100BAC00FF0080307F02031DDD2D44307902031CD1
:100BBC00E02DE12DC22D7908903E84008317800131
:100BCC00FA2D0130F7070318F80A0030F8077808F7
:100BDC00803AFF0080307F02031DF62D5F307702D4
:100BEC00031CF92DFA2D582D0800831603138801C8
:100BFC0086018715871207120A128A119F230A127F
:100C0C008A110A128A1134240A128A110A128A11C0
:100C1C0054250A128A11B8300A128A1153240A1266
:100C2C008A11063083120313BF001330BE00AD309F
:100C3C00BD00BD0B1F2EBE0B1F2EBF0B1F2E013078
:100C4C000A128A11BB230A128A1180300A128A11E5
:100C5C00BB230A128A118F300A128A1153240A12EA
:100C6C008A110D3083120313BF00AF30BE00B530B4
:100C7C00BD00BD0B3F2EBE0B3F2EBF0B3F2E462E95
:100C8C000130F8000030F9000A128A11FC230A1214
:100C9C008A1141308400203083120313BD000408F4
:100CAC00BE001630BF003D08840083130008C0004E
:100CBC00BD0A3E08840040088000BE0ABF0B592EB6
:100CCC0083120313871D6B2E6C2E662E0130DA07F0
:100CDC000318DB0A0030DB075A08BD003D07413E14
:100CEC008400831300088600A22E01300A128A1198
:100CFC00BB230A128A1180300A128A11BB230A12F2
:100D0C008A11AB300A128A1153240A128A11063046
:100D1C0083120313BF001330BE00AD30BD00BD0BFA
:100D2C00952EBE0B952EBF0B952E01300A128A11F3
:100D3C00BB230A128A112B2E5B08803AFF008030ED
:100D4C007F02031DAB2E0B305A02031CAE2EAF2EAE
:100D5C007B2E0A128A11B0240A128A11662E0A12EC
:100D6C008A11002801300A128A11BB230A128A1137
:100D7C0080300A128A11BB230A128A11C3300A125C
:100D8C008A1153240A128A1184300A128A11BB2345
:100D9C000A128A111030F5000030F6007508903EEA
:100DAC008400831700080A128A11CF230A128A11B1
:100DBC000130F5070318F60A0030F6077608803A7A
:100DCC00FF0080307F02031DED2E12307502031CD4
:100DDC00F02EF12ED42E2E300A128A11CF230A12A5
:100DEC008A111230F5000030F6007508903E840030
:100DFC00831700080A128A11CF230A128A110130B4
:100E0C00F5070318F60A0030F6077608803AFF005B
:100E1C0080307F02031D142F14307502031C172F12
:100E2C00182FFB2E1530F5000030F6007508903E9B
:100E3C008400831700080A128A11CF230A128A1120
:100E4C000130F5070318F60A0030F6077608803AE9
:100E5C00FF0080307F02031D352F19307502031CF3
:100E6C00382F392F1C2FDF300A128A11CF230A1288
:100E7C008A1120300A128A11CF230A128A114E309D
:100E8C000A128A11CF230A128A11C0300A128A114F
:100E9C00BB230A128A11C8300A128A1153240A126F
:100EAC008A11C4300A128A11BB230A128A111D300E
:100EBC00F5000030F6007508903E8400831700089A
:100ECC000A128A11CF230A128A110130F50703186E
:100EDC00F60A0030F6077608803AFF0080307F0271
:100EEC00031D7A2F1F307502031C7D2F7E2F612F5F
:100EFC002E300A128A11CF230A128A111F30F500E4
:100F0C000030F6007508903E8400831700080A1222
:100F1C008A11CF230A128A110130F5070318F60A39
:100F2C000030F6077608803AFF0080307F02031D00
:100F3C00A12F21307502031CA42FA52F882F22303E
:100F4C00F5000030F6007508903E84008317000809
:100F5C000A128A11CF230A128A110130F5070318DD
:100F6C00F60A0030F6077608803AFF0080307F02E0
:100F7C00031DC22F26307502031CC52FC62FA92FA7
:100F8C00DF300A128A11CF230A128A1120300A127A
:100F9C008A11CF230A128A1145300A128A11CF23E3
:100FAC000A128A110A128A11E3230A128A11080002
:100FBC0083133D30FD000430FE001730FF0020305D
:100FCC0084000A128A11AC230A128A1183179030FA
:100FDC008400EF300A128A118E230A128A11D7016B
:100FEC00D801D901DA01DB01DC01DD0183010A1230
:040FFC008A11FB2D2E
:08400000FF3FFF3FFF3FFF3FC0
:02400E00FA3F77
:00000001FF
