:100000000A128A11D62F00308A000408840A820757
:10001000003446344F34523420345234453453344F
:1000200045345434543449344E3447342034443401
:100030004534563449344334453400345034523412
:1000400045345334533420345034553453344834C5
:10005000203442345534543454344F344E34003404
:1000600043346F346E346E346534633474346934BD
:100070006E3467342E342E342E3400344C344F34E6
:100080004E343A3400344C34413454343A3400342D
:100A5A0047345034523464008001840A040603196E
:100A6A0000340406312D831203138C1E3D2D3E2DB6
:100A7A00382D8C121A08080090308312031398003C
:100A8A001F308316031399000800F20072088312BC
:100A9A0003138800071287164130F100EE30F00088
:100AAA00F00B552DF10B552D0000831203138712FD
:100ABA000800F200720883120313880007168716CB
:100ACA004130F100EE30F000F00B692DF10B692D89
:100ADA000000831203138712080094300A128A1145
:100AEA004A250A128A1116300A128A11AA250A12EE
:100AFA008A11D4300A128A114A250A128A1101303F
:100B0A000A128A11AA250A128A11080038300A1212
:100B1A008A114A250A128A110E300A128A114A25A6
:100B2A000A128A1101300A128A114A250A128A11F6
:100B3A0006300A128A114A250A128A1180300A12CC
:100B4A008A114A250A128A110800F400BC2D740879
:100B5A0084000A128A1103200A128A110A128A11BF
:100B6A005E250A128A110130F3007308F40774082B
:100B7A0084000A128A1103200A128A11003A031DFC
:100B8A00C72DC82DAC2D08008316031388018712C0
:100B9A0007120A128A1141250A128A110A128A11A7
:100BAA000A260A128A110A128A118B250A128A1136
:100BBA0028300A128A11AA250A128A111A30F90053
:100BCA005E30F8006E30F700F70BE92DF80BE92DCF
:100BDA00F90BE92D00000A128A11B5260A128A11A8
:100BEA000830F9009D30F8000530F700F70BFB2DAF
:100BFA00F80BFB2DF90BFB2D022E0A128A11722516
:100C0A000A128A110A128A110028F501F6010A123B
:100C1A008A1138250A128A11F3007308F400243065
:100C2A007406031D192E1A2EA12EFC01FD01831232
:100C3A0003138C1E212E222E1C2E1A08F3007C0868
:100C4A00203E84007308831380000130FC070318D8
:100C5A00FD0A0030FD077D08803AFF0080307F02E0
:100C6A00031D392E03307C02031C3C2E3D2E1C2E04
:100C7A007C08203E840083138001FC01FD01662E5E
:100C8A007C08273E84000008F3007C08203E84008C
:100C9A00000873060319522E532E602E0130831258
:100CAA000313A5000030A60058300A128A115E25E7
:100CBA000A128A116E2E0130FC070318FD0A003051
:100CCA00FD077C08273E84000008031D6D2E6E2E4A
:100CDA00452E8312031325082604031D752E762E2E
:100CEA00A12EA301A4010A128A1138250A128A1117
:100CFA00F300831203132308903E840073088317BA
:100D0A0080000130A3070318A40A0030A4072408AE
:100D1A00803AFF0080307F02031D952E4430230263
:100D2A00031C982E992E782E831203132308903EC3
:100D3A00840083178001B42E0130F5070318F60AE0
:100D4A000030F6077608803AFF0080307F02031DE4
:100D5A00B02E5F307502031CB32EB42E0C2E080081
:100D6A0001300A128A114A250A128A1180300A129F
:100D7A008A114A250A128A1136300A128A11AA25BC
:100D8A000A128A1184300A128A114A250A128A1111
:100D9A001030FA000030FB007A08903E8400831776
:100DAA0000080A128A115E250A128A110130FA070E
:100DBA000318FB0A0030FB077B08803AFF008030EB
:100DCA007F02031DEA2E12307A02031CED2EEE2E4C
:100DDA00D12E2E300A128A115E250A128A11123079
:100DEA00FA000030FB007A08903E8400831700085E
:100DFA000A128A115E250A128A110130FA070318AB
:100E0A00FB0A0030FB077B08803AFF0080307F0234
:100E1A00031D112F14307A02031C142F152FF82EDC
:100E2A001530FA000030FB007A08903E84008317E0
:100E3A0000080A128A115E250A128A110130FA077D
:100E4A000318FB0A0030FB077B08803AFF0080305A
:100E5A007F02031D322F19307A02031C352F362FD9
:100E6A00192FDF300A128A115E250A128A112030E0
:100E7A000A128A115E250A128A114E300A128A1142
:100E8A005E250A128A11C0300A128A114A250A12EC
:100E9A008A113B300A128A11AA250A128A11C43011
:100EAA000A128A114A250A128A111D30FA000030E4
:100EBA00FB007A08903E8400831700080A128A1100
:100ECA005E250A128A110130FA070318FB0A00305C
:100EDA00FB077B08803AFF0080307F02031D772FD3
:100EEA001F307A02031C7A2F7B2F5E2F2E300A12B4
:100EFA008A115E250A128A111F30FA000030FB009F
:100F0A007A08903E8400831700080A128A115E2527
:100F1A000A128A110130FA070318FB0A0030FB078C
:100F2A007B08803AFF0080307F02031D9E2F21300C
:100F3A007A02031CA12FA22F852F2230FA0000303B
:100F4A00FB007A08903E8400831700080A128A116F
:100F5A005E250A128A110130FA070318FB0A0030CB
:100F6A00FB077B08803AFF0080307F02031DBF2FFA
:100F7A0026307A02031CC22FC32FA62FDF300A1293
:100F8A008A115E250A128A1120300A128A115E25F8
:100F9A000A128A1145300A128A115E250A128A112A
:100FAA0008000A128A112D250A128A11A7000A12AC
:100FBA008A112E250A128A11A8000A128A112F25CF
:100FCA000A128A11A900831790308400EF300A129E
:100FDA008A1130250A128A11A001A101A201A301D6
:100FEA00A401A501A601FA01FB01FC01FD0183018F
:060FFA000A128A11C92D44
:08400000FF3FFF3FFF3FFF3FC0
:02400E00FA3F77
:00000001FF
