:100000000A128A11D12F00308A000408840A82075C
:10001000003421342134433441344E3427345434B1
:100020002034463445345434433448342034443442
:1000300041345434413421342134003421344334A4
:100040004C344F34553444345934203445344E34D0
:100050005634493452344F344E344D3445344E3492
:100060005434213400342D342D342D34543452344E
:1000700059342034203452344534533445345434C4
:10008000543449344E3447342D342D342D34003417
:10009000523445344334483441345234473445347F
:1000A000203449344D344D3445344434493441349A
:1000B000543445344C34593400342D3421342134F3
:1000C0002134423441345434543445345234593454
:1000D00020344C344F3457342134213421342D34DE
:1000E000003446344F34523420345234453453347F
:1000F0005434543449344E34473420344434453431
:100100005634493443344534003450345234453441
:100110005334533420345034553453344834203419
:1001200042345534543454344F344E3400344E3405
:100130004F3420344734503452344D344334203417
:1001400046344F3455344E344434003443346F34E1
:100150006E346E3465346334743469346E346734A9
:100160002E342E342E34003453345734493454341E
:100170004334483449344E34473420344F344634C1
:100180004634003452346534733465347434743412
:1001900069346E3467342E342E342E3400345734A0
:1001A00045344C3443344F344D3445342E342E349E
:1001B0002E3400344534523452344F3452342C34BB
:1001C00000344C344F344E343A3400344C344134DF
:0A01D00054343A3400342034003473
:1003EE000134003400340034473450345234640045
:1003FE008001840A0406031900340406FF298312BF
:10040E0003138C1E0B2A0C2A062A8C121A080800BB
:10041E0090308312031398001F3083160313990034
:10042E0008007E088A007F0882000A128A111822AC
:10043E000A128A118000840A04087D06031900340A
:10044E00FF0A0319FE0A1C2AF20072088312031314
:10045E008800071287164130F100EE30F000F00BE5
:10046E00362AF10B362A0000831203138712080076
:10047E00F2007208831203138800071687164130A4
:10048E00F100EE30F000F00B4A2AF10B4A2A000080
:10049E008312031387120800C0340034F934003479
:1004AE00A4340034B034003499340034923400341F
:1004BE0082340034F8340034803400349034003404
:1004CE00C034003494300A128A112B220A128A1177
:1004DE007D300A128A11BC220A128A11D4300A12F5
:1004EE008A112B220A128A1169300A128A11BC2231
:1004FE000A128A1108008F2A0A128A1105230A127B
:10050E008A119C2A0A128A11AB260A128A119C2A77
:10051E007908003A0319942A9C2A7808003A03199C
:10052E00832A013A0319892A9C2A080038300A12B4
:10053E008A112B220A128A110E300A128A112B22CC
:10054E000A128A1101300A128A112B220A128A11FA
:10055E0006300A128A112B220A128A1180300A12D0
:10056E008A112B220A128A110800F400CE2A74086E
:10057E0084000A128A1103200A128A110A128A11A1
:10058E003F220A128A110130F3007308F40774082F
:10059E0084000A128A1103200A128A11003A031DDE
:1005AE00D92ADA2ABE2A0800831203133808BE009D
:1005BE003708BD003A08C0003908BF003C08C20029
:1005CE003B08C1003E08AE003D08AD004008B0003B
:1005DE003F08AF004208B2004108B1000A128A116A
:1005EE0043230A128A11831203132E08C4002D0806
:1005FE00C3004408B8004308B700080080300A1250
:10060E008A112B220A128A1116300A128A11BC2262
:10061E000A128A11C0300A128A112B220A128A116A
:10062E0001300A128A11BC220A128A110730F70011
:10063E005830F6005930F500F50B232BF60B232B13
:10064E00F70B232B2A2B94300A128A112B220A1213
:10065E008A11E3300A128A11BC220A128A11D4308E
:10066E000A128A112B220A128A112B300A128A11AF
:10067E00BC220A128A110800752B831203132D084F
:10068E002F02B3002E08031C2E0A3002B4003308CA
:10069E00013EA70034080318013E003EA8000A12CE
:1006AE008A11CB230A128A11831203132108AA007E
:1006BE002008A9000A128A1112240A128A11831222
:1006CE0003132D082707B5002E0803182E0A280736
:1006DE00B6003608AE003508AD00842B8312031326
:1006EE003208803AFF0080307F02031D802B0130DC
:1006FE0031020318832B842B442B08000030FC009E
:10070E000030FB000030FA000030F900701C902B16
:10071E00912BA82B7408F907750803110318013ED5
:10072E0003199A2BFA07760803110318013E0319D1
:10073E00A12BFB07770803110318013E0319A82B01
:10074E00FC070130F8000310F40DF50DF60DF70D52
:10075E00F80BAA2B01300310F30CF20CF10CF00C79
:10076E00FF3E031DB22B7308720471047004031D47
:10077E00C12BC22B8D2B7C08F3007B08F2007A086C
:10078E00F1007908F0000800831203136908F300E2
:10079E006808F2006708F1006608F0004130F700C3
:1007AE00C630F6004E30F5006D30F4000A128A1194
:1007BE0085230A128A11730883120313E900720843
:1007CE00E8007108E7007008E6003930E6073030BF
:1007DE0003183130E707003003180130E807003006
:1007EE0003180130E9076608A2006708A30068082D
:1007FE00A4006908A5001030A600250DA50CA40CB8
:10080E00A30CA20CA60B042CFF302205A0007F30F7
:10081E002305A100080083120313AC01AA1F182C94
:10082E00192C202CA909AA09A90A0319AA0AAC0194
:10083E00AC0AA81F232C242C292CA709A809A70A27
:10084E000319A80A2708280403192E2C2F2C5E2C16
:10085E00AB01AB0A3D2C01300310A70DA80DFF3ED6
:10086E00031D332C0130FD007D08AB07A81F402C63
:10087E00412C322C28082A02031D472C2708290256
:10088E00031C4A2C4B2C512C2708A9022808031CA8
:10089E00AA03AA0201300310A80CA70CFF3E031DE9
:1008AE00522C0130AB02031D5D2C5E2C412C2C080A
:1008BE000319622C632C682CA909AA09A90A031929
:1008CE00AA0A2A08A8002908A700080001300A125F
:1008DE008A112B220A128A1180300A128A112B22B7
:1008EE000A128A1155300A128A11BC220A128A1172
:1008FE000330F7008A30F6005530F500F50B852CE5
:10090E00F60B852CF70B852C8C2CC0300A128A1115
:10091E002B220A128A1155300A128A11BC220A128F
:10092E008A11D4300A128A112B220A128A114030EF
:10093E000A128A11BC220A128A110830F7009D3061
:10094E00F6000530F500F50BAA2CF60BAA2CF70BCA
:10095E00AA2CB12C01300A128A112B220A128A11EA
:10096E00C0300A128A112B220A128A11AC300A12D6
:10097E008A11BC220A128A110330F7008A30F6005F
:10098E005530F500F50BC92CF60BC92CF70BC92CFD
:10099E00D02CD0300A128A11BC220A128A110330CE
:1009AE00F7008A30F6005530F500F50BDC2CF60B0F
:1009BE00DC2CF70BDC2CE32CD0300A128A11BC2273
:1009CE000A128A110330F7008A30F6005530F5000E
:1009DE00F50BEF2CF60BEF2CF70BEF2CF62CD03093
:1009EE000A128A11BC220A128A110D30F700AF309A
:1009FE00F600B630F500F50B022DF60B022DF70BB7
:100A0E00022D000001300A128A112B220A128A11BD
:100A1E000F2D080083120313A001A101A301A4014D
:100A2E000A128A1106220A128A11F500750883121B
:100A3E000313A20024302206031D262D272DC22DBE
:100A4E00A701A801831203138C1E2E2D2F2D292DE5
:100A5E001A08F50027085F3E84007508831380008E
:100A6E000130A7070318A80A0030A8072808803A03
:100A7E00FF0080307F02031D462D03302702031C2A
:100A8E00492D4A2D292D8312031327085F3E84001A
:100A9E0083138001A701A801872D27086A3E8400D1
:100AAE000008F50027085F3E84000008750603194C
:100ABE00612D622D812D0130A0070318A10A00308F
:100ACE00A10780300A128A112B220A128A11D23003
:100ADE000A128A11BC220A128A1194300A128A1141
:100AEE002B220A128A118F300A128A11BC220A1284
:100AFE008A118F2D0130A7070318A80A0030A80706
:100B0E0027086A3E84000008031D8E2D8F2D542D5C
:100B1E008312031320082104031D962D972DC22D39
:100B2E00A501A6010A128A1106220A128A11F500DF
:100B3E00831203132508903E8400750883178000E6
:100B4E000130A5070318A60A0030A6072608803A2A
:100B5E00FF0080307F02031DB62D44302502031C9A
:100B6E00B92DBA2D992D831203132508903E8400BA
:100B7E0083178001D52D0130A3070318A40A003076
:100B8E00A4072408803AFF0080307F02031DD12D78
:100B9E005F302302031CD42DD52D172D080083168C
:100BAE000313880186018715871207120A128A110C
:100BBE000F220A128A110A128A119D220A128A1112
:100BCE000A128A1111250A128A11C7300A128A11C5
:100BDE00BC220A128A11063083120313C700133087
:100BEE00C600AD30C500C50BFA2DC60BFA2DC70BCE
:100BFE00FA2D01300A128A112B220A128A11803024
:100C0E000A128A112B220A128A119E300A128A1196
:100C1E00BC220A128A110D3083120313C700AF30A3
:100C2E00C600B530C500C50B1A2EC60B1A2EC70B43
:100C3E001A2E212E003083120313B700B800013094
:100C4E00B9000030BA000130BB000030BC000A12FF
:100C5E008A11DB220A128A11831203133808E50067
:100C6E003708E4006508F9006408F8000A128A11D2
:100C7E0082220A128A1149308400A0308312031393
:100C8E00C5000408C6001630C7004508840083134B
:100C9E000008C800C50A4608840048088000C60A35
:100CAE00C70B4C2E83120313871D5E2E5F2E592EFB
:100CBE000130E2070318E30A0030E3076208C500BB
:100CCE004507493E8400831300088600952E0130A7
:100CDE000A128A112B220A128A1180300A128A11E4
:100CEE002B220A128A11BA300A128A11BC220A1257
:100CFE008A11063083120313C7001330C600AD30BD
:100D0E00C500C50B882EC60B882EC70B882E01304A
:100D1E000A128A112B220A128A11062E6308803AB1
:100D2E00FF0080307F02031D9E2E0B306202031CDB
:100D3E00A12EA22E6E2E0A128A116D240A128A116B
:100D4E00592E0A128A11002801300A128A112B22FA
:100D5E000A128A1180300A128A112B220A128A1163
:100D6E00D9300A128A11BC220A128A1184300A1250
:100D7E008A112B220A128A111030F5000030F6006B
:100D8E007508903E8400831700080A128A113F22CC
:100D9E000A128A110130F5070318F60A0030F60719
:100DAE007608803AFF0080307F02031DE02E12305D
:100DBE007502031CE32EE42EC72E2E300A128A1162
:100DCE003F220A128A111230F5000030F600750823
:100DDE00903E8400831700080A128A113F220A12DD
:100DEE008A110130F5070318F60A0030F607760867
:100DFE00803AFF0080307F02031D072F14307502EA
:100E0E00031C0A2F0B2FEE2E1530F5000030F600C6
:100E1E007508903E8400831700080A128A113F223B
:100E2E000A128A110130F5070318F60A0030F60788
:100E3E007608803AFF0080307F02031D282F19307C
:100E4E007502031C2B2F2C2F0F2FDF300A128A1145
:100E5E003F220A128A1120300A128A113F220A12E8
:100E6E008A114E300A128A113F220A128A11C0309C
:100E7E000A128A112B220A128A11DE300A128A11E4
:100E8E00BC220A128A11C4300A128A112B220A12AB
:100E9E008A111D30F5000030F6007508903E840072
:100EAE00831700080A128A113F220A128A11013092
:100EBE00F5070318F60A0030F6077608803AFF00A9
:100ECE0080307F02031D6D2F1F307502031C702FA3
:100EDE00712F542F2E300A128A113F220A128A11B4
:100EEE001F30F5000030F6007508903E8400831721
:100EFE0000080A128A113F220A128A110130F507E0
:100F0E000318F60A0030F6077608803AFF008030A4
:100F1E007F02031D942F21307502031C972F982FEB
:100F2E007B2F2230F5000030F6007508903E8400CD
:100F3E00831700080A128A113F220A128A11013001
:100F4E00F5070318F60A0030F6077608803AFF0018
:100F5E0080307F02031DB52F26307502031CB82F7B
:100F6E00B92F9C2FDF300A128A113F220A128A11E2
:100F7E0020300A128A113F220A128A1145300A12B3
:100F8E008A113F220A128A110A128A1169220A1242
:100F9E008A1108008313B630FD000230FE00533074
:100FAE00FF00A03084000A128A111C220A128A1134
:100FBE006D30FD000130FE00F730FF00663084001A
:100FCE000A128A111C220A128A1183179030840089
:100FDE00EF300A128A11FE210A128A11DF01E00196
:100FEE00E101E201E301E401E50183010A128A1144
:020FFE00D62DEE
:08400000FF3FFF3FFF3FFF3FC0
:02400E00FA3F77
:00000001FF
